{
	"Assemply-EVM-OpCodes.sol": {
		"LearnAssembly": {
			"abi": [
				{
					"inputs": [],
					"name": "addToEVM",
					"outputs": [],
					"stateMutability": "pure",
					"type": "function"
				},
				{
					"inputs": [],
					"name": "addToEVM2",
					"outputs": [
						{
							"internalType": "bool",
							"name": "success",
							"type": "bool"
						}
					],
					"stateMutability": "view",
					"type": "function"
				}
			],
			"devdoc": {
				"kind": "dev",
				"methods": {},
				"version": 1
			},
			"evm": {
				"assembly": "    /* \"Assemply-EVM-OpCodes.sol\":435:1609  contract LearnAssembly{\r... */\n  mstore(0x40, 0x80)\n  callvalue\n  dup1\n  iszero\n  tag_1\n  jumpi\n  0x00\n  dup1\n  revert\ntag_1:\n  pop\n  dataSize(sub_0)\n  dup1\n  dataOffset(sub_0)\n  0x00\n  codecopy\n  0x00\n  return\nstop\n\nsub_0: assembly {\n        /* \"Assemply-EVM-OpCodes.sol\":435:1609  contract LearnAssembly{\r... */\n      mstore(0x40, 0x80)\n      callvalue\n      dup1\n      iszero\n      tag_1\n      jumpi\n      0x00\n      dup1\n      revert\n    tag_1:\n      pop\n      jumpi(tag_2, lt(calldatasize, 0x04))\n      shr(0xe0, calldataload(0x00))\n      dup1\n      0x4fee737f\n      eq\n      tag_3\n      jumpi\n      dup1\n      0xdadf8fee\n      eq\n      tag_4\n      jumpi\n    tag_2:\n      0x00\n      dup1\n      revert\n        /* \"Assemply-EVM-OpCodes.sol\":1329:1600  function addToEVM2() public view returns (bool success){\r... */\n    tag_3:\n      tag_5\n      tag_6\n      jump\t// in\n    tag_5:\n      mload(0x40)\n      tag_7\n      swap2\n      swap1\n      tag_8\n      jump\t// in\n    tag_7:\n      mload(0x40)\n      dup1\n      swap2\n      sub\n      swap1\n      return\n        /* \"Assemply-EVM-OpCodes.sol\":464:1323  function addToEVM() pure external {\r... */\n    tag_4:\n      tag_9\n      tag_10\n      jump\t// in\n    tag_9:\n      stop\n        /* \"Assemply-EVM-OpCodes.sol\":1329:1600  function addToEVM2() public view returns (bool success){\r... */\n    tag_6:\n        /* \"Assemply-EVM-OpCodes.sol\":1371:1383  bool success */\n      0x00\n        /* \"Assemply-EVM-OpCodes.sol\":1395:1404  uint size */\n      dup1\n        /* \"Assemply-EVM-OpCodes.sol\":1415:1427  address addr */\n      0x00\n        /* \"Assemply-EVM-OpCodes.sol\":1553:1557  addr */\n      dup1\n        /* \"Assemply-EVM-OpCodes.sol\":1541:1558  extcodesize(addr) */\n      extcodesize\n        /* \"Assemply-EVM-OpCodes.sol\":1533:1558  size := extcodesize(addr) */\n      swap2\n      pop\n        /* \"Assemply-EVM-OpCodes.sol\":1591:1592  0 */\n      0x00\n        /* \"Assemply-EVM-OpCodes.sol\":1586:1590  size */\n      dup3\n        /* \"Assemply-EVM-OpCodes.sol\":1586:1592  size>0 */\n      gt\n        /* \"Assemply-EVM-OpCodes.sol\":1579:1592  return size>0 */\n      swap3\n      pop\n      pop\n      pop\n        /* \"Assemply-EVM-OpCodes.sol\":1329:1600  function addToEVM2() public view returns (bool success){\r... */\n      swap1\n      jump\t// out\n        /* \"Assemply-EVM-OpCodes.sol\":464:1323  function addToEVM() pure external {\r... */\n    tag_10:\n        /* \"Assemply-EVM-OpCodes.sol\":509:515  uint x */\n      0x00\n        /* \"Assemply-EVM-OpCodes.sol\":526:532  uint y */\n      dup1\n        /* \"Assemply-EVM-OpCodes.sol\":885:886  y */\n      dup1\n        /* \"Assemply-EVM-OpCodes.sol\":882:883  x */\n      dup3\n        /* \"Assemply-EVM-OpCodes.sol\":878:887  add(x, y) */\n      add\n        /* \"Assemply-EVM-OpCodes.sol\":1015:1019  0x40 */\n      0x40\n        /* \"Assemply-EVM-OpCodes.sol\":1009:1020  mload(0x40) */\n      mload\n        /* \"Assemply-EVM-OpCodes.sol\":1099:1100  4 */\n      0x04\n        /* \"Assemply-EVM-OpCodes.sol\":1097:1098  a */\n      dup2\n        /* \"Assemply-EVM-OpCodes.sol\":1090:1101  mstore(a,4) */\n      mstore\n        /* \"Assemply-EVM-OpCodes.sol\":627:1180  {\r... */\n      pop\n      pop\n      pop\n      pop\n        /* \"Assemply-EVM-OpCodes.sol\":464:1323  function addToEVM() pure external {\r... */\n      jump\t// out\n        /* \"#utility.yul\":7:116   */\n    tag_14:\n        /* \"#utility.yul\":88:109   */\n      tag_16\n        /* \"#utility.yul\":103:108   */\n      dup2\n        /* \"#utility.yul\":88:109   */\n      tag_17\n      jump\t// in\n    tag_16:\n        /* \"#utility.yul\":83:86   */\n      dup3\n        /* \"#utility.yul\":76:110   */\n      mstore\n        /* \"#utility.yul\":7:116   */\n      pop\n      pop\n      jump\t// out\n        /* \"#utility.yul\":122:332   */\n    tag_8:\n        /* \"#utility.yul\":209:213   */\n      0x00\n        /* \"#utility.yul\":247:249   */\n      0x20\n        /* \"#utility.yul\":236:245   */\n      dup3\n        /* \"#utility.yul\":232:250   */\n      add\n        /* \"#utility.yul\":224:250   */\n      swap1\n      pop\n        /* \"#utility.yul\":260:325   */\n      tag_19\n        /* \"#utility.yul\":322:323   */\n      0x00\n        /* \"#utility.yul\":311:320   */\n      dup4\n        /* \"#utility.yul\":307:324   */\n      add\n        /* \"#utility.yul\":298:304   */\n      dup5\n        /* \"#utility.yul\":260:325   */\n      tag_14\n      jump\t// in\n    tag_19:\n        /* \"#utility.yul\":122:332   */\n      swap3\n      swap2\n      pop\n      pop\n      jump\t// out\n        /* \"#utility.yul\":338:428   */\n    tag_17:\n        /* \"#utility.yul\":372:379   */\n      0x00\n        /* \"#utility.yul\":415:420   */\n      dup2\n        /* \"#utility.yul\":408:421   */\n      iszero\n        /* \"#utility.yul\":401:422   */\n      iszero\n        /* \"#utility.yul\":390:422   */\n      swap1\n      pop\n        /* \"#utility.yul\":338:428   */\n      swap2\n      swap1\n      pop\n      jump\t// out\n\n    auxdata: 0xa2646970667358221220141677a8bfd315fbbef039baaef97c84054250a03101aac60ff82307aa04929e64736f6c63430008070033\n}\n",
				"bytecode": {
					"linkReferences": {},
					"object": "608060405234801561001057600080fd5b5060e88061001f6000396000f3fe6080604052348015600f57600080fd5b506004361060325760003560e01c80634fee737f146037578063dadf8fee146051575b600080fd5b603d6059565b60405160489190608d565b60405180910390f35b6057606d565b005b6000806000803b9150600082119250505090565b6000808082016040516004815250505050565b60878160a6565b82525050565b600060208201905060a060008301846080565b92915050565b6000811515905091905056fea2646970667358221220141677a8bfd315fbbef039baaef97c84054250a03101aac60ff82307aa04929e64736f6c63430008070033",
					"opcodes": "PUSH1 0x80 PUSH1 0x40 MSTORE CALLVALUE DUP1 ISZERO PUSH2 0x10 JUMPI PUSH1 0x0 DUP1 REVERT JUMPDEST POP PUSH1 0xE8 DUP1 PUSH2 0x1F PUSH1 0x0 CODECOPY PUSH1 0x0 RETURN INVALID PUSH1 0x80 PUSH1 0x40 MSTORE CALLVALUE DUP1 ISZERO PUSH1 0xF JUMPI PUSH1 0x0 DUP1 REVERT JUMPDEST POP PUSH1 0x4 CALLDATASIZE LT PUSH1 0x32 JUMPI PUSH1 0x0 CALLDATALOAD PUSH1 0xE0 SHR DUP1 PUSH4 0x4FEE737F EQ PUSH1 0x37 JUMPI DUP1 PUSH4 0xDADF8FEE EQ PUSH1 0x51 JUMPI JUMPDEST PUSH1 0x0 DUP1 REVERT JUMPDEST PUSH1 0x3D PUSH1 0x59 JUMP JUMPDEST PUSH1 0x40 MLOAD PUSH1 0x48 SWAP2 SWAP1 PUSH1 0x8D JUMP JUMPDEST PUSH1 0x40 MLOAD DUP1 SWAP2 SUB SWAP1 RETURN JUMPDEST PUSH1 0x57 PUSH1 0x6D JUMP JUMPDEST STOP JUMPDEST PUSH1 0x0 DUP1 PUSH1 0x0 DUP1 EXTCODESIZE SWAP2 POP PUSH1 0x0 DUP3 GT SWAP3 POP POP POP SWAP1 JUMP JUMPDEST PUSH1 0x0 DUP1 DUP1 DUP3 ADD PUSH1 0x40 MLOAD PUSH1 0x4 DUP2 MSTORE POP POP POP POP JUMP JUMPDEST PUSH1 0x87 DUP2 PUSH1 0xA6 JUMP JUMPDEST DUP3 MSTORE POP POP JUMP JUMPDEST PUSH1 0x0 PUSH1 0x20 DUP3 ADD SWAP1 POP PUSH1 0xA0 PUSH1 0x0 DUP4 ADD DUP5 PUSH1 0x80 JUMP JUMPDEST SWAP3 SWAP2 POP POP JUMP JUMPDEST PUSH1 0x0 DUP2 ISZERO ISZERO SWAP1 POP SWAP2 SWAP1 POP JUMP INVALID LOG2 PUSH5 0x6970667358 0x22 SLT KECCAK256 EQ AND PUSH24 0xA8BFD315FBBEF039BAAEF97C84054250A03101AAC60FF823 SMOD 0xAA DIV SWAP3 SWAP15 PUSH5 0x736F6C6343 STOP ADDMOD SMOD STOP CALLER "
				},
				"gasEstimates": {
					"creation": {
						"codeDepositCost": "46400",
						"executionCost": "99",
						"totalCost": "46499"
					},
					"external": {
						"addToEVM()": "188",
						"addToEVM2()": "2945"
					}
				},
				"methodIdentifiers": {
					"addToEVM()": "dadf8fee",
					"addToEVM2()": "4fee737f"
				}
			},
			"storageLayout": {
				"storage": [],
				"types": null
			},
			"userdoc": {
				"kind": "user",
				"methods": {},
				"version": 1
			}
		}
	}
}