{
	"loops.sol": {
		"loopContract": {
			"abi": [
				{
					"inputs": [
						{
							"internalType": "uint256",
							"name": "_number",
							"type": "uint256"
						}
					],
					"name": "checkMultipes",
					"outputs": [
						{
							"internalType": "uint256",
							"name": "",
							"type": "uint256"
						}
					],
					"stateMutability": "view",
					"type": "function"
				}
			],
			"devdoc": {
				"kind": "dev",
				"methods": {},
				"version": 1
			},
			"evm": {
				"assembly": "    /* \"loops.sol\":37:528  contract loopContract{... */\n  mstore(0x40, 0x80)\n    /* \"loops.sol\":65:112  uint [] private  _list = [1,2,3,4,5,6,7,8,9,10] */\n  mload(0x40)\n  dup1\n  0x0140\n  add\n  0x40\n  mstore\n  dup1\n    /* \"loops.sol\":91:92  1 */\n  0x01\n    /* \"loops.sol\":65:112  uint [] private  _list = [1,2,3,4,5,6,7,8,9,10] */\n  0xff\n  and\n  dup2\n  mstore\n  0x20\n  add\n    /* \"loops.sol\":93:94  2 */\n  0x02\n    /* \"loops.sol\":65:112  uint [] private  _list = [1,2,3,4,5,6,7,8,9,10] */\n  0xff\n  and\n  dup2\n  mstore\n  0x20\n  add\n    /* \"loops.sol\":95:96  3 */\n  0x03\n    /* \"loops.sol\":65:112  uint [] private  _list = [1,2,3,4,5,6,7,8,9,10] */\n  0xff\n  and\n  dup2\n  mstore\n  0x20\n  add\n    /* \"loops.sol\":97:98  4 */\n  0x04\n    /* \"loops.sol\":65:112  uint [] private  _list = [1,2,3,4,5,6,7,8,9,10] */\n  0xff\n  and\n  dup2\n  mstore\n  0x20\n  add\n    /* \"loops.sol\":99:100  5 */\n  0x05\n    /* \"loops.sol\":65:112  uint [] private  _list = [1,2,3,4,5,6,7,8,9,10] */\n  0xff\n  and\n  dup2\n  mstore\n  0x20\n  add\n    /* \"loops.sol\":101:102  6 */\n  0x06\n    /* \"loops.sol\":65:112  uint [] private  _list = [1,2,3,4,5,6,7,8,9,10] */\n  0xff\n  and\n  dup2\n  mstore\n  0x20\n  add\n    /* \"loops.sol\":103:104  7 */\n  0x07\n    /* \"loops.sol\":65:112  uint [] private  _list = [1,2,3,4,5,6,7,8,9,10] */\n  0xff\n  and\n  dup2\n  mstore\n  0x20\n  add\n    /* \"loops.sol\":105:106  8 */\n  0x08\n    /* \"loops.sol\":65:112  uint [] private  _list = [1,2,3,4,5,6,7,8,9,10] */\n  0xff\n  and\n  dup2\n  mstore\n  0x20\n  add\n    /* \"loops.sol\":107:108  9 */\n  0x09\n    /* \"loops.sol\":65:112  uint [] private  _list = [1,2,3,4,5,6,7,8,9,10] */\n  0xff\n  and\n  dup2\n  mstore\n  0x20\n  add\n    /* \"loops.sol\":109:111  10 */\n  0x0a\n    /* \"loops.sol\":65:112  uint [] private  _list = [1,2,3,4,5,6,7,8,9,10] */\n  0xff\n  and\n  dup2\n  mstore\n  pop\n  0x00\n  swap1\n  0x0a\n  tag_1\n  swap3\n  swap2\n  swap1\n  tag_2\n  jump\t// in\ntag_1:\n  pop\n    /* \"loops.sol\":37:528  contract loopContract{... */\n  callvalue\n  dup1\n  iszero\n  tag_3\n  jumpi\n  0x00\n  dup1\n  revert\ntag_3:\n  pop\n  jump(tag_4)\ntag_2:\n  dup3\n  dup1\n  sload\n  dup3\n  dup3\n  sstore\n  swap1\n  0x00\n  mstore\n  keccak256(0x00, 0x20)\n  swap1\n  dup2\n  add\n  swap3\n  dup3\n  iszero\n  tag_5\n  jumpi\n  swap2\n  0x20\n  mul\n  dup3\n  add\ntag_6:\n  dup3\n  dup2\n  gt\n  iszero\n  tag_7\n  jumpi\n  dup3\n  mload\n  dup3\n  swap1\n  0xff\n  and\n  swap1\n  sstore\n  swap2\n  0x20\n  add\n  swap2\n  swap1\n  0x01\n  add\n  swap1\n  jump(tag_6)\ntag_7:\ntag_5:\n  pop\n  swap1\n  pop\n  tag_8\n  swap2\n  swap1\n  tag_9\n  jump\t// in\ntag_8:\n  pop\n  swap1\n  jump\t// out\ntag_9:\ntag_10:\n  dup1\n  dup3\n  gt\n  iszero\n  tag_11\n  jumpi\n  0x00\n  dup2\n  0x00\n  swap1\n  sstore\n  pop\n  0x01\n  add\n  jump(tag_10)\ntag_11:\n  pop\n  swap1\n  jump\t// out\ntag_4:\n  dataSize(sub_0)\n  dup1\n  dataOffset(sub_0)\n  0x00\n  codecopy\n  0x00\n  return\nstop\n\nsub_0: assembly {\n        /* \"loops.sol\":37:528  contract loopContract{... */\n      mstore(0x40, 0x80)\n      callvalue\n      dup1\n      iszero\n      tag_1\n      jumpi\n      0x00\n      dup1\n      revert\n    tag_1:\n      pop\n      jumpi(tag_2, lt(calldatasize, 0x04))\n      shr(0xe0, calldataload(0x00))\n      dup1\n      0x024905e8\n      eq\n      tag_3\n      jumpi\n    tag_2:\n      0x00\n      dup1\n      revert\n        /* \"loops.sol\":120:415  function checkMultipes(uint _number)public view  returns (uint){... */\n    tag_3:\n      tag_4\n      0x04\n      dup1\n      calldatasize\n      sub\n      dup2\n      add\n      swap1\n      tag_5\n      swap2\n      swap1\n      tag_6\n      jump\t// in\n    tag_5:\n      tag_7\n      jump\t// in\n    tag_4:\n      mload(0x40)\n      tag_8\n      swap2\n      swap1\n      tag_9\n      jump\t// in\n    tag_8:\n      mload(0x40)\n      dup1\n      swap2\n      sub\n      swap1\n      return\n    tag_7:\n        /* \"loops.sol\":178:182  uint */\n      0x00\n        /* \"loops.sol\":194:205  uint result */\n      dup1\n        /* \"loops.sol\":208:209  0 */\n      0x00\n        /* \"loops.sol\":194:209  uint result = 0 */\n      swap1\n      pop\n        /* \"loops.sol\":229:235  uint i */\n      0x00\n        /* \"loops.sol\":224:380  for (uint i=0;i<_list.length;i++) {... */\n    tag_11:\n        /* \"loops.sol\":240:245  _list */\n      0x00\n        /* \"loops.sol\":240:252  _list.length */\n      dup1\n      sload\n      swap1\n      pop\n        /* \"loops.sol\":238:239  i */\n      dup2\n        /* \"loops.sol\":238:252  i<_list.length */\n      lt\n        /* \"loops.sol\":224:380  for (uint i=0;i<_list.length;i++) {... */\n      iszero\n      tag_12\n      jumpi\n        /* \"loops.sol\":280:312  checkMultipes(_list[i] ,_number) */\n      tag_14\n        /* \"loops.sol\":294:299  _list */\n      0x00\n        /* \"loops.sol\":300:301  i */\n      dup3\n        /* \"loops.sol\":294:302  _list[i] */\n      dup2\n      sload\n      dup2\n      lt\n      tag_15\n      jumpi\n      tag_16\n      tag_17\n      jump\t// in\n    tag_16:\n    tag_15:\n      swap1\n      0x00\n      mstore\n      keccak256(0x00, 0x20)\n      add\n      sload\n        /* \"loops.sol\":304:311  _number */\n      dup6\n        /* \"loops.sol\":280:293  checkMultipes */\n      tag_19\n        /* \"loops.sol\":280:312  checkMultipes(_list[i] ,_number) */\n      jump\t// in\n    tag_14:\n        /* \"loops.sol\":277:365  if(checkMultipes(_list[i] ,_number)){... */\n      iszero\n      tag_20\n      jumpi\n        /* \"loops.sol\":336:344  result++ */\n      dup2\n      dup1\n      tag_21\n      swap1\n      tag_22\n      jump\t// in\n    tag_21:\n      swap3\n      pop\n      pop\n        /* \"loops.sol\":277:365  if(checkMultipes(_list[i] ,_number)){... */\n    tag_20:\n        /* \"loops.sol\":253:256  i++ */\n      dup1\n      dup1\n      tag_23\n      swap1\n      tag_22\n      jump\t// in\n    tag_23:\n      swap2\n      pop\n      pop\n        /* \"loops.sol\":224:380  for (uint i=0;i<_list.length;i++) {... */\n      jump(tag_11)\n    tag_12:\n      pop\n        /* \"loops.sol\":401:407  result */\n      dup1\n        /* \"loops.sol\":394:407  return result */\n      swap2\n      pop\n      pop\n        /* \"loops.sol\":120:415  function checkMultipes(uint _number)public view  returns (uint){... */\n      swap2\n      swap1\n      pop\n      jump\t// out\n        /* \"loops.sol\":421:525  function checkMultipes(uint _num,uint _nums)private pure  returns (bool) {... */\n    tag_19:\n        /* \"loops.sol\":488:492  bool */\n      0x00\n        /* \"loops.sol\":516:517  0 */\n      dup1\n        /* \"loops.sol\":509:514  _nums */\n      dup3\n        /* \"loops.sol\":504:508  _num */\n      dup5\n        /* \"loops.sol\":504:514  _num%_nums */\n      tag_25\n      swap2\n      swap1\n      tag_26\n      jump\t// in\n    tag_25:\n        /* \"loops.sol\":504:517  _num%_nums==0 */\n      eq\n        /* \"loops.sol\":497:517  return _num%_nums==0 */\n      swap1\n      pop\n        /* \"loops.sol\":421:525  function checkMultipes(uint _num,uint _nums)private pure  returns (bool) {... */\n      swap3\n      swap2\n      pop\n      pop\n      jump\t// out\n        /* \"#utility.yul\":88:205   */\n    tag_28:\n        /* \"#utility.yul\":197:198   */\n      0x00\n        /* \"#utility.yul\":194:195   */\n      dup1\n        /* \"#utility.yul\":187:199   */\n      revert\n        /* \"#utility.yul\":334:411   */\n    tag_30:\n        /* \"#utility.yul\":371:378   */\n      0x00\n        /* \"#utility.yul\":400:405   */\n      dup2\n        /* \"#utility.yul\":389:405   */\n      swap1\n      pop\n        /* \"#utility.yul\":334:411   */\n      swap2\n      swap1\n      pop\n      jump\t// out\n        /* \"#utility.yul\":417:539   */\n    tag_31:\n        /* \"#utility.yul\":490:514   */\n      tag_42\n        /* \"#utility.yul\":508:513   */\n      dup2\n        /* \"#utility.yul\":490:514   */\n      tag_30\n      jump\t// in\n    tag_42:\n        /* \"#utility.yul\":483:488   */\n      dup2\n        /* \"#utility.yul\":480:515   */\n      eq\n        /* \"#utility.yul\":470:533   */\n      tag_43\n      jumpi\n        /* \"#utility.yul\":529:530   */\n      0x00\n        /* \"#utility.yul\":526:527   */\n      dup1\n        /* \"#utility.yul\":519:531   */\n      revert\n        /* \"#utility.yul\":470:533   */\n    tag_43:\n        /* \"#utility.yul\":417:539   */\n      pop\n      jump\t// out\n        /* \"#utility.yul\":545:684   */\n    tag_32:\n        /* \"#utility.yul\":591:596   */\n      0x00\n        /* \"#utility.yul\":629:635   */\n      dup2\n        /* \"#utility.yul\":616:636   */\n      calldataload\n        /* \"#utility.yul\":607:636   */\n      swap1\n      pop\n        /* \"#utility.yul\":645:678   */\n      tag_45\n        /* \"#utility.yul\":672:677   */\n      dup2\n        /* \"#utility.yul\":645:678   */\n      tag_31\n      jump\t// in\n    tag_45:\n        /* \"#utility.yul\":545:684   */\n      swap3\n      swap2\n      pop\n      pop\n      jump\t// out\n        /* \"#utility.yul\":690:1019   */\n    tag_6:\n        /* \"#utility.yul\":749:755   */\n      0x00\n        /* \"#utility.yul\":798:800   */\n      0x20\n        /* \"#utility.yul\":786:795   */\n      dup3\n        /* \"#utility.yul\":777:784   */\n      dup5\n        /* \"#utility.yul\":773:796   */\n      sub\n        /* \"#utility.yul\":769:801   */\n      slt\n        /* \"#utility.yul\":766:885   */\n      iszero\n      tag_47\n      jumpi\n        /* \"#utility.yul\":804:883   */\n      tag_48\n      tag_28\n      jump\t// in\n    tag_48:\n        /* \"#utility.yul\":766:885   */\n    tag_47:\n        /* \"#utility.yul\":924:925   */\n      0x00\n        /* \"#utility.yul\":949:1002   */\n      tag_49\n        /* \"#utility.yul\":994:1001   */\n      dup5\n        /* \"#utility.yul\":985:991   */\n      dup3\n        /* \"#utility.yul\":974:983   */\n      dup6\n        /* \"#utility.yul\":970:992   */\n      add\n        /* \"#utility.yul\":949:1002   */\n      tag_32\n      jump\t// in\n    tag_49:\n        /* \"#utility.yul\":939:1002   */\n      swap2\n      pop\n        /* \"#utility.yul\":895:1012   */\n      pop\n        /* \"#utility.yul\":690:1019   */\n      swap3\n      swap2\n      pop\n      pop\n      jump\t// out\n        /* \"#utility.yul\":1025:1143   */\n    tag_33:\n        /* \"#utility.yul\":1112:1136   */\n      tag_51\n        /* \"#utility.yul\":1130:1135   */\n      dup2\n        /* \"#utility.yul\":1112:1136   */\n      tag_30\n      jump\t// in\n    tag_51:\n        /* \"#utility.yul\":1107:1110   */\n      dup3\n        /* \"#utility.yul\":1100:1137   */\n      mstore\n        /* \"#utility.yul\":1025:1143   */\n      pop\n      pop\n      jump\t// out\n        /* \"#utility.yul\":1149:1371   */\n    tag_9:\n        /* \"#utility.yul\":1242:1246   */\n      0x00\n        /* \"#utility.yul\":1280:1282   */\n      0x20\n        /* \"#utility.yul\":1269:1278   */\n      dup3\n        /* \"#utility.yul\":1265:1283   */\n      add\n        /* \"#utility.yul\":1257:1283   */\n      swap1\n      pop\n        /* \"#utility.yul\":1293:1364   */\n      tag_53\n        /* \"#utility.yul\":1361:1362   */\n      0x00\n        /* \"#utility.yul\":1350:1359   */\n      dup4\n        /* \"#utility.yul\":1346:1363   */\n      add\n        /* \"#utility.yul\":1337:1343   */\n      dup5\n        /* \"#utility.yul\":1293:1364   */\n      tag_33\n      jump\t// in\n    tag_53:\n        /* \"#utility.yul\":1149:1371   */\n      swap3\n      swap2\n      pop\n      pop\n      jump\t// out\n        /* \"#utility.yul\":1377:1557   */\n    tag_17:\n        /* \"#utility.yul\":1425:1502   */\n      0x4e487b7100000000000000000000000000000000000000000000000000000000\n        /* \"#utility.yul\":1422:1423   */\n      0x00\n        /* \"#utility.yul\":1415:1503   */\n      mstore\n        /* \"#utility.yul\":1522:1526   */\n      0x32\n        /* \"#utility.yul\":1519:1520   */\n      0x04\n        /* \"#utility.yul\":1512:1527   */\n      mstore\n        /* \"#utility.yul\":1546:1550   */\n      0x24\n        /* \"#utility.yul\":1543:1544   */\n      0x00\n        /* \"#utility.yul\":1536:1551   */\n      revert\n        /* \"#utility.yul\":1563:1743   */\n    tag_34:\n        /* \"#utility.yul\":1611:1688   */\n      0x4e487b7100000000000000000000000000000000000000000000000000000000\n        /* \"#utility.yul\":1608:1609   */\n      0x00\n        /* \"#utility.yul\":1601:1689   */\n      mstore\n        /* \"#utility.yul\":1708:1712   */\n      0x11\n        /* \"#utility.yul\":1705:1706   */\n      0x04\n        /* \"#utility.yul\":1698:1713   */\n      mstore\n        /* \"#utility.yul\":1732:1736   */\n      0x24\n        /* \"#utility.yul\":1729:1730   */\n      0x00\n        /* \"#utility.yul\":1722:1737   */\n      revert\n        /* \"#utility.yul\":1749:1982   */\n    tag_22:\n        /* \"#utility.yul\":1788:1791   */\n      0x00\n        /* \"#utility.yul\":1811:1835   */\n      tag_57\n        /* \"#utility.yul\":1829:1834   */\n      dup3\n        /* \"#utility.yul\":1811:1835   */\n      tag_30\n      jump\t// in\n    tag_57:\n        /* \"#utility.yul\":1802:1835   */\n      swap2\n      pop\n        /* \"#utility.yul\":1857:1923   */\n      0xffffffffffffffffffffffffffffffffffffffffffffffffffffffffffffffff\n        /* \"#utility.yul\":1850:1855   */\n      dup3\n        /* \"#utility.yul\":1847:1924   */\n      sub\n        /* \"#utility.yul\":1844:1947   */\n      tag_58\n      jumpi\n        /* \"#utility.yul\":1927:1945   */\n      tag_59\n      tag_34\n      jump\t// in\n    tag_59:\n        /* \"#utility.yul\":1844:1947   */\n    tag_58:\n        /* \"#utility.yul\":1974:1975   */\n      0x01\n        /* \"#utility.yul\":1967:1972   */\n      dup3\n        /* \"#utility.yul\":1963:1976   */\n      add\n        /* \"#utility.yul\":1956:1976   */\n      swap1\n      pop\n        /* \"#utility.yul\":1749:1982   */\n      swap2\n      swap1\n      pop\n      jump\t// out\n        /* \"#utility.yul\":1988:2168   */\n    tag_35:\n        /* \"#utility.yul\":2036:2113   */\n      0x4e487b7100000000000000000000000000000000000000000000000000000000\n        /* \"#utility.yul\":2033:2034   */\n      0x00\n        /* \"#utility.yul\":2026:2114   */\n      mstore\n        /* \"#utility.yul\":2133:2137   */\n      0x12\n        /* \"#utility.yul\":2130:2131   */\n      0x04\n        /* \"#utility.yul\":2123:2138   */\n      mstore\n        /* \"#utility.yul\":2157:2161   */\n      0x24\n        /* \"#utility.yul\":2154:2155   */\n      0x00\n        /* \"#utility.yul\":2147:2162   */\n      revert\n        /* \"#utility.yul\":2174:2350   */\n    tag_26:\n        /* \"#utility.yul\":2206:2207   */\n      0x00\n        /* \"#utility.yul\":2223:2243   */\n      tag_62\n        /* \"#utility.yul\":2241:2242   */\n      dup3\n        /* \"#utility.yul\":2223:2243   */\n      tag_30\n      jump\t// in\n    tag_62:\n        /* \"#utility.yul\":2218:2243   */\n      swap2\n      pop\n        /* \"#utility.yul\":2257:2277   */\n      tag_63\n        /* \"#utility.yul\":2275:2276   */\n      dup4\n        /* \"#utility.yul\":2257:2277   */\n      tag_30\n      jump\t// in\n    tag_63:\n        /* \"#utility.yul\":2252:2277   */\n      swap3\n      pop\n        /* \"#utility.yul\":2296:2297   */\n      dup3\n        /* \"#utility.yul\":2286:2321   */\n      tag_64\n      jumpi\n        /* \"#utility.yul\":2301:2319   */\n      tag_65\n      tag_35\n      jump\t// in\n    tag_65:\n        /* \"#utility.yul\":2286:2321   */\n    tag_64:\n        /* \"#utility.yul\":2342:2343   */\n      dup3\n        /* \"#utility.yul\":2339:2340   */\n      dup3\n        /* \"#utility.yul\":2335:2344   */\n      mod\n        /* \"#utility.yul\":2330:2344   */\n      swap1\n      pop\n        /* \"#utility.yul\":2174:2350   */\n      swap3\n      swap2\n      pop\n      pop\n      jump\t// out\n\n    auxdata: 0xa26469706673582212205f8504938c44fc9f3c526ca5a7ded6f285679cbef3d23c89f6d858c1a7f1a4e364736f6c63430008130033\n}\n",
				"bytecode": {
					"linkReferences": {},
					"object": "6080604052604051806101400160405280600160ff168152602001600260ff168152602001600360ff168152602001600460ff168152602001600560ff168152602001600660ff168152602001600760ff168152602001600860ff168152602001600960ff168152602001600a60ff16815250600090600a610082929190610095565b5034801561008f57600080fd5b50610104565b8280548282559060005260206000209081019282156100d6579160200282015b828111156100d5578251829060ff169055916020019190600101906100b5565b5b5090506100e391906100e7565b5090565b5b808211156101005760008160009055506001016100e8565b5090565b6102b6806101136000396000f3fe608060405234801561001057600080fd5b506004361061002b5760003560e01c8063024905e814610030575b600080fd5b61004a60048036038101906100459190610123565b610060565b604051610057919061015f565b60405180910390f35b6000806000905060005b6000805490508110156100c65761009f6000828154811061008e5761008d61017a565b5b9060005260206000200154856100d0565b156100b35781806100af906101d8565b9250505b80806100be906101d8565b91505061006a565b5080915050919050565b60008082846100df919061024f565b14905092915050565b600080fd5b6000819050919050565b610100816100ed565b811461010b57600080fd5b50565b60008135905061011d816100f7565b92915050565b600060208284031215610139576101386100e8565b5b60006101478482850161010e565b91505092915050565b610159816100ed565b82525050565b60006020820190506101746000830184610150565b92915050565b7f4e487b7100000000000000000000000000000000000000000000000000000000600052603260045260246000fd5b7f4e487b7100000000000000000000000000000000000000000000000000000000600052601160045260246000fd5b60006101e3826100ed565b91507fffffffffffffffffffffffffffffffffffffffffffffffffffffffffffffffff8203610215576102146101a9565b5b600182019050919050565b7f4e487b7100000000000000000000000000000000000000000000000000000000600052601260045260246000fd5b600061025a826100ed565b9150610265836100ed565b92508261027557610274610220565b5b82820690509291505056fea26469706673582212205f8504938c44fc9f3c526ca5a7ded6f285679cbef3d23c89f6d858c1a7f1a4e364736f6c63430008130033",
					"opcodes": "PUSH1 0x80 PUSH1 0x40 MSTORE PUSH1 0x40 MLOAD DUP1 PUSH2 0x140 ADD PUSH1 0x40 MSTORE DUP1 PUSH1 0x1 PUSH1 0xFF AND DUP2 MSTORE PUSH1 0x20 ADD PUSH1 0x2 PUSH1 0xFF AND DUP2 MSTORE PUSH1 0x20 ADD PUSH1 0x3 PUSH1 0xFF AND DUP2 MSTORE PUSH1 0x20 ADD PUSH1 0x4 PUSH1 0xFF AND DUP2 MSTORE PUSH1 0x20 ADD PUSH1 0x5 PUSH1 0xFF AND DUP2 MSTORE PUSH1 0x20 ADD PUSH1 0x6 PUSH1 0xFF AND DUP2 MSTORE PUSH1 0x20 ADD PUSH1 0x7 PUSH1 0xFF AND DUP2 MSTORE PUSH1 0x20 ADD PUSH1 0x8 PUSH1 0xFF AND DUP2 MSTORE PUSH1 0x20 ADD PUSH1 0x9 PUSH1 0xFF AND DUP2 MSTORE PUSH1 0x20 ADD PUSH1 0xA PUSH1 0xFF AND DUP2 MSTORE POP PUSH1 0x0 SWAP1 PUSH1 0xA PUSH2 0x82 SWAP3 SWAP2 SWAP1 PUSH2 0x95 JUMP JUMPDEST POP CALLVALUE DUP1 ISZERO PUSH2 0x8F JUMPI PUSH1 0x0 DUP1 REVERT JUMPDEST POP PUSH2 0x104 JUMP JUMPDEST DUP3 DUP1 SLOAD DUP3 DUP3 SSTORE SWAP1 PUSH1 0x0 MSTORE PUSH1 0x20 PUSH1 0x0 KECCAK256 SWAP1 DUP2 ADD SWAP3 DUP3 ISZERO PUSH2 0xD6 JUMPI SWAP2 PUSH1 0x20 MUL DUP3 ADD JUMPDEST DUP3 DUP2 GT ISZERO PUSH2 0xD5 JUMPI DUP3 MLOAD DUP3 SWAP1 PUSH1 0xFF AND SWAP1 SSTORE SWAP2 PUSH1 0x20 ADD SWAP2 SWAP1 PUSH1 0x1 ADD SWAP1 PUSH2 0xB5 JUMP JUMPDEST JUMPDEST POP SWAP1 POP PUSH2 0xE3 SWAP2 SWAP1 PUSH2 0xE7 JUMP JUMPDEST POP SWAP1 JUMP JUMPDEST JUMPDEST DUP1 DUP3 GT ISZERO PUSH2 0x100 JUMPI PUSH1 0x0 DUP2 PUSH1 0x0 SWAP1 SSTORE POP PUSH1 0x1 ADD PUSH2 0xE8 JUMP JUMPDEST POP SWAP1 JUMP JUMPDEST PUSH2 0x2B6 DUP1 PUSH2 0x113 PUSH1 0x0 CODECOPY PUSH1 0x0 RETURN INVALID PUSH1 0x80 PUSH1 0x40 MSTORE CALLVALUE DUP1 ISZERO PUSH2 0x10 JUMPI PUSH1 0x0 DUP1 REVERT JUMPDEST POP PUSH1 0x4 CALLDATASIZE LT PUSH2 0x2B JUMPI PUSH1 0x0 CALLDATALOAD PUSH1 0xE0 SHR DUP1 PUSH4 0x24905E8 EQ PUSH2 0x30 JUMPI JUMPDEST PUSH1 0x0 DUP1 REVERT JUMPDEST PUSH2 0x4A PUSH1 0x4 DUP1 CALLDATASIZE SUB DUP2 ADD SWAP1 PUSH2 0x45 SWAP2 SWAP1 PUSH2 0x123 JUMP JUMPDEST PUSH2 0x60 JUMP JUMPDEST PUSH1 0x40 MLOAD PUSH2 0x57 SWAP2 SWAP1 PUSH2 0x15F JUMP JUMPDEST PUSH1 0x40 MLOAD DUP1 SWAP2 SUB SWAP1 RETURN JUMPDEST PUSH1 0x0 DUP1 PUSH1 0x0 SWAP1 POP PUSH1 0x0 JUMPDEST PUSH1 0x0 DUP1 SLOAD SWAP1 POP DUP2 LT ISZERO PUSH2 0xC6 JUMPI PUSH2 0x9F PUSH1 0x0 DUP3 DUP2 SLOAD DUP2 LT PUSH2 0x8E JUMPI PUSH2 0x8D PUSH2 0x17A JUMP JUMPDEST JUMPDEST SWAP1 PUSH1 0x0 MSTORE PUSH1 0x20 PUSH1 0x0 KECCAK256 ADD SLOAD DUP6 PUSH2 0xD0 JUMP JUMPDEST ISZERO PUSH2 0xB3 JUMPI DUP2 DUP1 PUSH2 0xAF SWAP1 PUSH2 0x1D8 JUMP JUMPDEST SWAP3 POP POP JUMPDEST DUP1 DUP1 PUSH2 0xBE SWAP1 PUSH2 0x1D8 JUMP JUMPDEST SWAP2 POP POP PUSH2 0x6A JUMP JUMPDEST POP DUP1 SWAP2 POP POP SWAP2 SWAP1 POP JUMP JUMPDEST PUSH1 0x0 DUP1 DUP3 DUP5 PUSH2 0xDF SWAP2 SWAP1 PUSH2 0x24F JUMP JUMPDEST EQ SWAP1 POP SWAP3 SWAP2 POP POP JUMP JUMPDEST PUSH1 0x0 DUP1 REVERT JUMPDEST PUSH1 0x0 DUP2 SWAP1 POP SWAP2 SWAP1 POP JUMP JUMPDEST PUSH2 0x100 DUP2 PUSH2 0xED JUMP JUMPDEST DUP2 EQ PUSH2 0x10B JUMPI PUSH1 0x0 DUP1 REVERT JUMPDEST POP JUMP JUMPDEST PUSH1 0x0 DUP2 CALLDATALOAD SWAP1 POP PUSH2 0x11D DUP2 PUSH2 0xF7 JUMP JUMPDEST SWAP3 SWAP2 POP POP JUMP JUMPDEST PUSH1 0x0 PUSH1 0x20 DUP3 DUP5 SUB SLT ISZERO PUSH2 0x139 JUMPI PUSH2 0x138 PUSH2 0xE8 JUMP JUMPDEST JUMPDEST PUSH1 0x0 PUSH2 0x147 DUP5 DUP3 DUP6 ADD PUSH2 0x10E JUMP JUMPDEST SWAP2 POP POP SWAP3 SWAP2 POP POP JUMP JUMPDEST PUSH2 0x159 DUP2 PUSH2 0xED JUMP JUMPDEST DUP3 MSTORE POP POP JUMP JUMPDEST PUSH1 0x0 PUSH1 0x20 DUP3 ADD SWAP1 POP PUSH2 0x174 PUSH1 0x0 DUP4 ADD DUP5 PUSH2 0x150 JUMP JUMPDEST SWAP3 SWAP2 POP POP JUMP JUMPDEST PUSH32 0x4E487B7100000000000000000000000000000000000000000000000000000000 PUSH1 0x0 MSTORE PUSH1 0x32 PUSH1 0x4 MSTORE PUSH1 0x24 PUSH1 0x0 REVERT JUMPDEST PUSH32 0x4E487B7100000000000000000000000000000000000000000000000000000000 PUSH1 0x0 MSTORE PUSH1 0x11 PUSH1 0x4 MSTORE PUSH1 0x24 PUSH1 0x0 REVERT JUMPDEST PUSH1 0x0 PUSH2 0x1E3 DUP3 PUSH2 0xED JUMP JUMPDEST SWAP2 POP PUSH32 0xFFFFFFFFFFFFFFFFFFFFFFFFFFFFFFFFFFFFFFFFFFFFFFFFFFFFFFFFFFFFFFFF DUP3 SUB PUSH2 0x215 JUMPI PUSH2 0x214 PUSH2 0x1A9 JUMP JUMPDEST JUMPDEST PUSH1 0x1 DUP3 ADD SWAP1 POP SWAP2 SWAP1 POP JUMP JUMPDEST PUSH32 0x4E487B7100000000000000000000000000000000000000000000000000000000 PUSH1 0x0 MSTORE PUSH1 0x12 PUSH1 0x4 MSTORE PUSH1 0x24 PUSH1 0x0 REVERT JUMPDEST PUSH1 0x0 PUSH2 0x25A DUP3 PUSH2 0xED JUMP JUMPDEST SWAP2 POP PUSH2 0x265 DUP4 PUSH2 0xED JUMP JUMPDEST SWAP3 POP DUP3 PUSH2 0x275 JUMPI PUSH2 0x274 PUSH2 0x220 JUMP JUMPDEST JUMPDEST DUP3 DUP3 MOD SWAP1 POP SWAP3 SWAP2 POP POP JUMP INVALID LOG2 PUSH5 0x6970667358 0x22 SLT KECCAK256 0x5F DUP6 DIV SWAP4 DUP13 PREVRANDAO 0xFC SWAP16 EXTCODECOPY MSTORE PUSH13 0xA5A7DED6F285679CBEF3D23C89 0xF6 0xD8 PC 0xC1 0xA7 CALL LOG4 0xE3 PUSH5 0x736F6C6343 STOP ADDMOD SGT STOP CALLER "
				},
				"gasEstimates": {
					"creation": {
						"codeDepositCost": "138800",
						"executionCost": "infinite",
						"totalCost": "infinite"
					},
					"external": {
						"checkMultipes(uint256)": "infinite"
					},
					"internal": {
						"checkMultipes(uint256,uint256)": "infinite"
					}
				},
				"methodIdentifiers": {
					"checkMultipes(uint256)": "024905e8"
				}
			},
			"storageLayout": {
				"storage": [
					{
						"astId": 15,
						"contract": "loops.sol:loopContract",
						"label": "_list",
						"offset": 0,
						"slot": "0",
						"type": "t_array(t_uint256)dyn_storage"
					}
				],
				"types": {
					"t_array(t_uint256)dyn_storage": {
						"base": "t_uint256",
						"encoding": "dynamic_array",
						"label": "uint256[]",
						"numberOfBytes": "32"
					},
					"t_uint256": {
						"encoding": "inplace",
						"label": "uint256",
						"numberOfBytes": "32"
					}
				}
			},
			"userdoc": {
				"kind": "user",
				"methods": {},
				"version": 1
			}
		}
	}
}