{
	"Assemply-EVM-OpCodes.sol": {
		"ReadBytes32FromBytes": {
			"abi": [
				{
					"inputs": [
						{
							"internalType": "bytes",
							"name": "data",
							"type": "bytes"
						},
						{
							"internalType": "uint256",
							"name": "offset",
							"type": "uint256"
						}
					],
					"name": "read",
					"outputs": [
						{
							"internalType": "bytes32",
							"name": "result",
							"type": "bytes32"
						}
					],
					"stateMutability": "pure",
					"type": "function"
				}
			],
			"devdoc": {
				"kind": "dev",
				"methods": {},
				"version": 1
			},
			"evm": {
				"assembly": "    /* \"Assemply-EVM-OpCodes.sol\":2243:2896  contract ReadBytes32FromBytes {\r... */\n  mstore(0x40, 0x80)\n  callvalue\n  dup1\n  iszero\n  tag_1\n  jumpi\n  0x00\n  dup1\n  revert\ntag_1:\n  pop\n  dataSize(sub_0)\n  dup1\n  dataOffset(sub_0)\n  0x00\n  codecopy\n  0x00\n  return\nstop\n\nsub_0: assembly {\n        /* \"Assemply-EVM-OpCodes.sol\":2243:2896  contract ReadBytes32FromBytes {\r... */\n      mstore(0x40, 0x80)\n      callvalue\n      dup1\n      iszero\n      tag_1\n      jumpi\n      0x00\n      dup1\n      revert\n    tag_1:\n      pop\n      jumpi(tag_2, lt(calldatasize, 0x04))\n      shr(0xe0, calldataload(0x00))\n      dup1\n      0x44751760\n      eq\n      tag_3\n      jumpi\n    tag_2:\n      0x00\n      dup1\n      revert\n        /* \"Assemply-EVM-OpCodes.sol\":2280:2893  function read(bytes memory data, uint256 offset) public pure returns (bytes32 result) {\r... */\n    tag_3:\n      tag_4\n      0x04\n      dup1\n      calldatasize\n      sub\n      dup2\n      add\n      swap1\n      tag_5\n      swap2\n      swap1\n      tag_6\n      jump\t// in\n    tag_5:\n      tag_7\n      jump\t// in\n    tag_4:\n      mload(0x40)\n      tag_8\n      swap2\n      swap1\n      tag_9\n      jump\t// in\n    tag_8:\n      mload(0x40)\n      dup1\n      swap2\n      sub\n      swap1\n      return\n    tag_7:\n        /* \"Assemply-EVM-OpCodes.sol\":2350:2364  bytes32 result */\n      0x00\n        /* \"Assemply-EVM-OpCodes.sol\":2445:2449  data */\n      dup3\n        /* \"Assemply-EVM-OpCodes.sol\":2445:2456  data.length */\n      mload\n        /* \"Assemply-EVM-OpCodes.sol\":2439:2441  32 */\n      0x20\n        /* \"Assemply-EVM-OpCodes.sol\":2430:2436  offset */\n      dup4\n        /* \"Assemply-EVM-OpCodes.sol\":2430:2441  offset + 32 */\n      tag_11\n      swap2\n      swap1\n      tag_12\n      jump\t// in\n    tag_11:\n        /* \"Assemply-EVM-OpCodes.sol\":2430:2456  offset + 32 <= data.length */\n      gt\n      iszero\n        /* \"Assemply-EVM-OpCodes.sol\":2422:2481  require(offset + 32 <= data.length, \"Offset out of bounds\") */\n      tag_13\n      jumpi\n      mload(0x40)\n      0x08c379a000000000000000000000000000000000000000000000000000000000\n      dup2\n      mstore\n      0x04\n      add\n      tag_14\n      swap1\n      tag_15\n      jump\t// in\n    tag_14:\n      mload(0x40)\n      dup1\n      swap2\n      sub\n      swap1\n      revert\n    tag_13:\n        /* \"Assemply-EVM-OpCodes.sol\":2606:2610  0x20 */\n      0x20\n        /* \"Assemply-EVM-OpCodes.sol\":2600:2604  data */\n      dup4\n        /* \"Assemply-EVM-OpCodes.sol\":2596:2611  add(data, 0x20) */\n      add\n        /* \"Assemply-EVM-OpCodes.sol\":2768:2774  offset */\n      dup3\n        /* \"Assemply-EVM-OpCodes.sol\":2759:2766  dataPtr */\n      dup2\n        /* \"Assemply-EVM-OpCodes.sol\":2755:2775  add(dataPtr, offset) */\n      add\n        /* \"Assemply-EVM-OpCodes.sol\":2866:2874  valuePtr */\n      dup1\n        /* \"Assemply-EVM-OpCodes.sol\":2860:2875  mload(valuePtr) */\n      mload\n        /* \"Assemply-EVM-OpCodes.sol\":2850:2875  result := mload(valuePtr) */\n      swap3\n      pop\n        /* \"Assemply-EVM-OpCodes.sol\":2503:2886  {\r... */\n      pop\n      pop\n        /* \"Assemply-EVM-OpCodes.sol\":2280:2893  function read(bytes memory data, uint256 offset) public pure returns (bytes32 result) {\r... */\n      swap3\n      swap2\n      pop\n      pop\n      jump\t// out\n        /* \"#utility.yul\":7:417   */\n    tag_17:\n        /* \"#utility.yul\":84:89   */\n      0x00\n        /* \"#utility.yul\":109:174   */\n      tag_19\n        /* \"#utility.yul\":125:173   */\n      tag_20\n        /* \"#utility.yul\":166:172   */\n      dup5\n        /* \"#utility.yul\":125:173   */\n      tag_21\n      jump\t// in\n    tag_20:\n        /* \"#utility.yul\":109:174   */\n      tag_22\n      jump\t// in\n    tag_19:\n        /* \"#utility.yul\":100:174   */\n      swap1\n      pop\n        /* \"#utility.yul\":197:203   */\n      dup3\n        /* \"#utility.yul\":190:195   */\n      dup2\n        /* \"#utility.yul\":183:204   */\n      mstore\n        /* \"#utility.yul\":235:239   */\n      0x20\n        /* \"#utility.yul\":228:233   */\n      dup2\n        /* \"#utility.yul\":224:240   */\n      add\n        /* \"#utility.yul\":273:276   */\n      dup5\n        /* \"#utility.yul\":264:270   */\n      dup5\n        /* \"#utility.yul\":259:262   */\n      dup5\n        /* \"#utility.yul\":255:271   */\n      add\n        /* \"#utility.yul\":252:277   */\n      gt\n        /* \"#utility.yul\":249:361   */\n      iszero\n      tag_23\n      jumpi\n        /* \"#utility.yul\":280:359   */\n      tag_24\n      tag_25\n      jump\t// in\n    tag_24:\n        /* \"#utility.yul\":249:361   */\n    tag_23:\n        /* \"#utility.yul\":370:411   */\n      tag_26\n        /* \"#utility.yul\":404:410   */\n      dup5\n        /* \"#utility.yul\":399:402   */\n      dup3\n        /* \"#utility.yul\":394:397   */\n      dup6\n        /* \"#utility.yul\":370:411   */\n      tag_27\n      jump\t// in\n    tag_26:\n        /* \"#utility.yul\":90:417   */\n      pop\n        /* \"#utility.yul\":7:417   */\n      swap4\n      swap3\n      pop\n      pop\n      pop\n      jump\t// out\n        /* \"#utility.yul\":436:774   */\n    tag_28:\n        /* \"#utility.yul\":491:496   */\n      0x00\n        /* \"#utility.yul\":540:543   */\n      dup3\n        /* \"#utility.yul\":533:537   */\n      0x1f\n        /* \"#utility.yul\":525:531   */\n      dup4\n        /* \"#utility.yul\":521:538   */\n      add\n        /* \"#utility.yul\":517:544   */\n      slt\n        /* \"#utility.yul\":507:629   */\n      tag_30\n      jumpi\n        /* \"#utility.yul\":548:627   */\n      tag_31\n      tag_32\n      jump\t// in\n    tag_31:\n        /* \"#utility.yul\":507:629   */\n    tag_30:\n        /* \"#utility.yul\":665:671   */\n      dup2\n        /* \"#utility.yul\":652:672   */\n      calldataload\n        /* \"#utility.yul\":690:768   */\n      tag_33\n        /* \"#utility.yul\":764:767   */\n      dup5\n        /* \"#utility.yul\":756:762   */\n      dup3\n        /* \"#utility.yul\":749:753   */\n      0x20\n        /* \"#utility.yul\":741:747   */\n      dup7\n        /* \"#utility.yul\":737:754   */\n      add\n        /* \"#utility.yul\":690:768   */\n      tag_17\n      jump\t// in\n    tag_33:\n        /* \"#utility.yul\":681:768   */\n      swap2\n      pop\n        /* \"#utility.yul\":497:774   */\n      pop\n        /* \"#utility.yul\":436:774   */\n      swap3\n      swap2\n      pop\n      pop\n      jump\t// out\n        /* \"#utility.yul\":780:919   */\n    tag_34:\n        /* \"#utility.yul\":826:831   */\n      0x00\n        /* \"#utility.yul\":864:870   */\n      dup2\n        /* \"#utility.yul\":851:871   */\n      calldataload\n        /* \"#utility.yul\":842:871   */\n      swap1\n      pop\n        /* \"#utility.yul\":880:913   */\n      tag_36\n        /* \"#utility.yul\":907:912   */\n      dup2\n        /* \"#utility.yul\":880:913   */\n      tag_37\n      jump\t// in\n    tag_36:\n        /* \"#utility.yul\":780:919   */\n      swap3\n      swap2\n      pop\n      pop\n      jump\t// out\n        /* \"#utility.yul\":925:1577   */\n    tag_6:\n        /* \"#utility.yul\":1002:1008   */\n      0x00\n        /* \"#utility.yul\":1010:1016   */\n      dup1\n        /* \"#utility.yul\":1059:1061   */\n      0x40\n        /* \"#utility.yul\":1047:1056   */\n      dup4\n        /* \"#utility.yul\":1038:1045   */\n      dup6\n        /* \"#utility.yul\":1034:1057   */\n      sub\n        /* \"#utility.yul\":1030:1062   */\n      slt\n        /* \"#utility.yul\":1027:1146   */\n      iszero\n      tag_39\n      jumpi\n        /* \"#utility.yul\":1065:1144   */\n      tag_40\n      tag_41\n      jump\t// in\n    tag_40:\n        /* \"#utility.yul\":1027:1146   */\n    tag_39:\n        /* \"#utility.yul\":1213:1214   */\n      0x00\n        /* \"#utility.yul\":1202:1211   */\n      dup4\n        /* \"#utility.yul\":1198:1215   */\n      add\n        /* \"#utility.yul\":1185:1216   */\n      calldataload\n        /* \"#utility.yul\":1243:1261   */\n      0xffffffffffffffff\n        /* \"#utility.yul\":1235:1241   */\n      dup2\n        /* \"#utility.yul\":1232:1262   */\n      gt\n        /* \"#utility.yul\":1229:1346   */\n      iszero\n      tag_42\n      jumpi\n        /* \"#utility.yul\":1265:1344   */\n      tag_43\n      tag_44\n      jump\t// in\n    tag_43:\n        /* \"#utility.yul\":1229:1346   */\n    tag_42:\n        /* \"#utility.yul\":1370:1432   */\n      tag_45\n        /* \"#utility.yul\":1424:1431   */\n      dup6\n        /* \"#utility.yul\":1415:1421   */\n      dup3\n        /* \"#utility.yul\":1404:1413   */\n      dup7\n        /* \"#utility.yul\":1400:1422   */\n      add\n        /* \"#utility.yul\":1370:1432   */\n      tag_28\n      jump\t// in\n    tag_45:\n        /* \"#utility.yul\":1360:1432   */\n      swap3\n      pop\n        /* \"#utility.yul\":1156:1442   */\n      pop\n        /* \"#utility.yul\":1481:1483   */\n      0x20\n        /* \"#utility.yul\":1507:1560   */\n      tag_46\n        /* \"#utility.yul\":1552:1559   */\n      dup6\n        /* \"#utility.yul\":1543:1549   */\n      dup3\n        /* \"#utility.yul\":1532:1541   */\n      dup7\n        /* \"#utility.yul\":1528:1550   */\n      add\n        /* \"#utility.yul\":1507:1560   */\n      tag_34\n      jump\t// in\n    tag_46:\n        /* \"#utility.yul\":1497:1560   */\n      swap2\n      pop\n        /* \"#utility.yul\":1452:1570   */\n      pop\n        /* \"#utility.yul\":925:1577   */\n      swap3\n      pop\n      swap3\n      swap1\n      pop\n      jump\t// out\n        /* \"#utility.yul\":1583:1701   */\n    tag_47:\n        /* \"#utility.yul\":1670:1694   */\n      tag_49\n        /* \"#utility.yul\":1688:1693   */\n      dup2\n        /* \"#utility.yul\":1670:1694   */\n      tag_50\n      jump\t// in\n    tag_49:\n        /* \"#utility.yul\":1665:1668   */\n      dup3\n        /* \"#utility.yul\":1658:1695   */\n      mstore\n        /* \"#utility.yul\":1583:1701   */\n      pop\n      pop\n      jump\t// out\n        /* \"#utility.yul\":1707:2073   */\n    tag_51:\n        /* \"#utility.yul\":1849:1852   */\n      0x00\n        /* \"#utility.yul\":1870:1937   */\n      tag_53\n        /* \"#utility.yul\":1934:1936   */\n      0x14\n        /* \"#utility.yul\":1929:1932   */\n      dup4\n        /* \"#utility.yul\":1870:1937   */\n      tag_54\n      jump\t// in\n    tag_53:\n        /* \"#utility.yul\":1863:1937   */\n      swap2\n      pop\n        /* \"#utility.yul\":1946:2039   */\n      tag_55\n        /* \"#utility.yul\":2035:2038   */\n      dup3\n        /* \"#utility.yul\":1946:2039   */\n      tag_56\n      jump\t// in\n    tag_55:\n        /* \"#utility.yul\":2064:2066   */\n      0x20\n        /* \"#utility.yul\":2059:2062   */\n      dup3\n        /* \"#utility.yul\":2055:2067   */\n      add\n        /* \"#utility.yul\":2048:2067   */\n      swap1\n      pop\n        /* \"#utility.yul\":1707:2073   */\n      swap2\n      swap1\n      pop\n      jump\t// out\n        /* \"#utility.yul\":2079:2301   */\n    tag_9:\n        /* \"#utility.yul\":2172:2176   */\n      0x00\n        /* \"#utility.yul\":2210:2212   */\n      0x20\n        /* \"#utility.yul\":2199:2208   */\n      dup3\n        /* \"#utility.yul\":2195:2213   */\n      add\n        /* \"#utility.yul\":2187:2213   */\n      swap1\n      pop\n        /* \"#utility.yul\":2223:2294   */\n      tag_58\n        /* \"#utility.yul\":2291:2292   */\n      0x00\n        /* \"#utility.yul\":2280:2289   */\n      dup4\n        /* \"#utility.yul\":2276:2293   */\n      add\n        /* \"#utility.yul\":2267:2273   */\n      dup5\n        /* \"#utility.yul\":2223:2294   */\n      tag_47\n      jump\t// in\n    tag_58:\n        /* \"#utility.yul\":2079:2301   */\n      swap3\n      swap2\n      pop\n      pop\n      jump\t// out\n        /* \"#utility.yul\":2307:2726   */\n    tag_15:\n        /* \"#utility.yul\":2473:2477   */\n      0x00\n        /* \"#utility.yul\":2511:2513   */\n      0x20\n        /* \"#utility.yul\":2500:2509   */\n      dup3\n        /* \"#utility.yul\":2496:2514   */\n      add\n        /* \"#utility.yul\":2488:2514   */\n      swap1\n      pop\n        /* \"#utility.yul\":2560:2569   */\n      dup2\n        /* \"#utility.yul\":2554:2558   */\n      dup2\n        /* \"#utility.yul\":2550:2570   */\n      sub\n        /* \"#utility.yul\":2546:2547   */\n      0x00\n        /* \"#utility.yul\":2535:2544   */\n      dup4\n        /* \"#utility.yul\":2531:2548   */\n      add\n        /* \"#utility.yul\":2524:2571   */\n      mstore\n        /* \"#utility.yul\":2588:2719   */\n      tag_60\n        /* \"#utility.yul\":2714:2718   */\n      dup2\n        /* \"#utility.yul\":2588:2719   */\n      tag_51\n      jump\t// in\n    tag_60:\n        /* \"#utility.yul\":2580:2719   */\n      swap1\n      pop\n        /* \"#utility.yul\":2307:2726   */\n      swap2\n      swap1\n      pop\n      jump\t// out\n        /* \"#utility.yul\":2732:2861   */\n    tag_22:\n        /* \"#utility.yul\":2766:2772   */\n      0x00\n        /* \"#utility.yul\":2793:2813   */\n      tag_62\n      tag_63\n      jump\t// in\n    tag_62:\n        /* \"#utility.yul\":2783:2813   */\n      swap1\n      pop\n        /* \"#utility.yul\":2822:2855   */\n      tag_64\n        /* \"#utility.yul\":2850:2854   */\n      dup3\n        /* \"#utility.yul\":2842:2848   */\n      dup3\n        /* \"#utility.yul\":2822:2855   */\n      tag_65\n      jump\t// in\n    tag_64:\n        /* \"#utility.yul\":2732:2861   */\n      swap2\n      swap1\n      pop\n      jump\t// out\n        /* \"#utility.yul\":2867:2942   */\n    tag_63:\n        /* \"#utility.yul\":2900:2906   */\n      0x00\n        /* \"#utility.yul\":2933:2935   */\n      0x40\n        /* \"#utility.yul\":2927:2936   */\n      mload\n        /* \"#utility.yul\":2917:2936   */\n      swap1\n      pop\n        /* \"#utility.yul\":2867:2942   */\n      swap1\n      jump\t// out\n        /* \"#utility.yul\":2948:3255   */\n    tag_21:\n        /* \"#utility.yul\":3009:3013   */\n      0x00\n        /* \"#utility.yul\":3099:3117   */\n      0xffffffffffffffff\n        /* \"#utility.yul\":3091:3097   */\n      dup3\n        /* \"#utility.yul\":3088:3118   */\n      gt\n        /* \"#utility.yul\":3085:3141   */\n      iszero\n      tag_68\n      jumpi\n        /* \"#utility.yul\":3121:3139   */\n      tag_69\n      tag_70\n      jump\t// in\n    tag_69:\n        /* \"#utility.yul\":3085:3141   */\n    tag_68:\n        /* \"#utility.yul\":3159:3188   */\n      tag_71\n        /* \"#utility.yul\":3181:3187   */\n      dup3\n        /* \"#utility.yul\":3159:3188   */\n      tag_72\n      jump\t// in\n    tag_71:\n        /* \"#utility.yul\":3151:3188   */\n      swap1\n      pop\n        /* \"#utility.yul\":3243:3247   */\n      0x20\n        /* \"#utility.yul\":3237:3241   */\n      dup2\n        /* \"#utility.yul\":3233:3248   */\n      add\n        /* \"#utility.yul\":3225:3248   */\n      swap1\n      pop\n        /* \"#utility.yul\":2948:3255   */\n      swap2\n      swap1\n      pop\n      jump\t// out\n        /* \"#utility.yul\":3261:3430   */\n    tag_54:\n        /* \"#utility.yul\":3345:3356   */\n      0x00\n        /* \"#utility.yul\":3379:3385   */\n      dup3\n        /* \"#utility.yul\":3374:3377   */\n      dup3\n        /* \"#utility.yul\":3367:3386   */\n      mstore\n        /* \"#utility.yul\":3419:3423   */\n      0x20\n        /* \"#utility.yul\":3414:3417   */\n      dup3\n        /* \"#utility.yul\":3410:3424   */\n      add\n        /* \"#utility.yul\":3395:3424   */\n      swap1\n      pop\n        /* \"#utility.yul\":3261:3430   */\n      swap3\n      swap2\n      pop\n      pop\n      jump\t// out\n        /* \"#utility.yul\":3436:3741   */\n    tag_12:\n        /* \"#utility.yul\":3476:3479   */\n      0x00\n        /* \"#utility.yul\":3495:3515   */\n      tag_75\n        /* \"#utility.yul\":3513:3514   */\n      dup3\n        /* \"#utility.yul\":3495:3515   */\n      tag_76\n      jump\t// in\n    tag_75:\n        /* \"#utility.yul\":3490:3515   */\n      swap2\n      pop\n        /* \"#utility.yul\":3529:3549   */\n      tag_77\n        /* \"#utility.yul\":3547:3548   */\n      dup4\n        /* \"#utility.yul\":3529:3549   */\n      tag_76\n      jump\t// in\n    tag_77:\n        /* \"#utility.yul\":3524:3549   */\n      swap3\n      pop\n        /* \"#utility.yul\":3683:3684   */\n      dup3\n        /* \"#utility.yul\":3615:3681   */\n      0xffffffffffffffffffffffffffffffffffffffffffffffffffffffffffffffff\n        /* \"#utility.yul\":3611:3685   */\n      sub\n        /* \"#utility.yul\":3608:3609   */\n      dup3\n        /* \"#utility.yul\":3605:3686   */\n      gt\n        /* \"#utility.yul\":3602:3709   */\n      iszero\n      tag_78\n      jumpi\n        /* \"#utility.yul\":3689:3707   */\n      tag_79\n      tag_80\n      jump\t// in\n    tag_79:\n        /* \"#utility.yul\":3602:3709   */\n    tag_78:\n        /* \"#utility.yul\":3733:3734   */\n      dup3\n        /* \"#utility.yul\":3730:3731   */\n      dup3\n        /* \"#utility.yul\":3726:3735   */\n      add\n        /* \"#utility.yul\":3719:3735   */\n      swap1\n      pop\n        /* \"#utility.yul\":3436:3741   */\n      swap3\n      swap2\n      pop\n      pop\n      jump\t// out\n        /* \"#utility.yul\":3747:3824   */\n    tag_50:\n        /* \"#utility.yul\":3784:3791   */\n      0x00\n        /* \"#utility.yul\":3813:3818   */\n      dup2\n        /* \"#utility.yul\":3802:3818   */\n      swap1\n      pop\n        /* \"#utility.yul\":3747:3824   */\n      swap2\n      swap1\n      pop\n      jump\t// out\n        /* \"#utility.yul\":3830:3907   */\n    tag_76:\n        /* \"#utility.yul\":3867:3874   */\n      0x00\n        /* \"#utility.yul\":3896:3901   */\n      dup2\n        /* \"#utility.yul\":3885:3901   */\n      swap1\n      pop\n        /* \"#utility.yul\":3830:3907   */\n      swap2\n      swap1\n      pop\n      jump\t// out\n        /* \"#utility.yul\":3913:4067   */\n    tag_27:\n        /* \"#utility.yul\":3997:4003   */\n      dup3\n        /* \"#utility.yul\":3992:3995   */\n      dup2\n        /* \"#utility.yul\":3987:3990   */\n      dup4\n        /* \"#utility.yul\":3974:4004   */\n      calldatacopy\n        /* \"#utility.yul\":4059:4060   */\n      0x00\n        /* \"#utility.yul\":4050:4056   */\n      dup4\n        /* \"#utility.yul\":4045:4048   */\n      dup4\n        /* \"#utility.yul\":4041:4057   */\n      add\n        /* \"#utility.yul\":4034:4061   */\n      mstore\n        /* \"#utility.yul\":3913:4067   */\n      pop\n      pop\n      pop\n      jump\t// out\n        /* \"#utility.yul\":4073:4354   */\n    tag_65:\n        /* \"#utility.yul\":4156:4183   */\n      tag_85\n        /* \"#utility.yul\":4178:4182   */\n      dup3\n        /* \"#utility.yul\":4156:4183   */\n      tag_72\n      jump\t// in\n    tag_85:\n        /* \"#utility.yul\":4148:4154   */\n      dup2\n        /* \"#utility.yul\":4144:4184   */\n      add\n        /* \"#utility.yul\":4286:4292   */\n      dup2\n        /* \"#utility.yul\":4274:4284   */\n      dup2\n        /* \"#utility.yul\":4271:4293   */\n      lt\n        /* \"#utility.yul\":4250:4268   */\n      0xffffffffffffffff\n        /* \"#utility.yul\":4238:4248   */\n      dup3\n        /* \"#utility.yul\":4235:4269   */\n      gt\n        /* \"#utility.yul\":4232:4294   */\n      or\n        /* \"#utility.yul\":4229:4317   */\n      iszero\n      tag_86\n      jumpi\n        /* \"#utility.yul\":4297:4315   */\n      tag_87\n      tag_70\n      jump\t// in\n    tag_87:\n        /* \"#utility.yul\":4229:4317   */\n    tag_86:\n        /* \"#utility.yul\":4337:4347   */\n      dup1\n        /* \"#utility.yul\":4333:4335   */\n      0x40\n        /* \"#utility.yul\":4326:4348   */\n      mstore\n        /* \"#utility.yul\":4116:4354   */\n      pop\n        /* \"#utility.yul\":4073:4354   */\n      pop\n      pop\n      jump\t// out\n        /* \"#utility.yul\":4360:4540   */\n    tag_80:\n        /* \"#utility.yul\":4408:4485   */\n      0x4e487b7100000000000000000000000000000000000000000000000000000000\n        /* \"#utility.yul\":4405:4406   */\n      0x00\n        /* \"#utility.yul\":4398:4486   */\n      mstore\n        /* \"#utility.yul\":4505:4509   */\n      0x11\n        /* \"#utility.yul\":4502:4503   */\n      0x04\n        /* \"#utility.yul\":4495:4510   */\n      mstore\n        /* \"#utility.yul\":4529:4533   */\n      0x24\n        /* \"#utility.yul\":4526:4527   */\n      0x00\n        /* \"#utility.yul\":4519:4534   */\n      revert\n        /* \"#utility.yul\":4546:4726   */\n    tag_70:\n        /* \"#utility.yul\":4594:4671   */\n      0x4e487b7100000000000000000000000000000000000000000000000000000000\n        /* \"#utility.yul\":4591:4592   */\n      0x00\n        /* \"#utility.yul\":4584:4672   */\n      mstore\n        /* \"#utility.yul\":4691:4695   */\n      0x41\n        /* \"#utility.yul\":4688:4689   */\n      0x04\n        /* \"#utility.yul\":4681:4696   */\n      mstore\n        /* \"#utility.yul\":4715:4719   */\n      0x24\n        /* \"#utility.yul\":4712:4713   */\n      0x00\n        /* \"#utility.yul\":4705:4720   */\n      revert\n        /* \"#utility.yul\":4732:4849   */\n    tag_32:\n        /* \"#utility.yul\":4841:4842   */\n      0x00\n        /* \"#utility.yul\":4838:4839   */\n      dup1\n        /* \"#utility.yul\":4831:4843   */\n      revert\n        /* \"#utility.yul\":4855:4972   */\n    tag_25:\n        /* \"#utility.yul\":4964:4965   */\n      0x00\n        /* \"#utility.yul\":4961:4962   */\n      dup1\n        /* \"#utility.yul\":4954:4966   */\n      revert\n        /* \"#utility.yul\":4978:5095   */\n    tag_44:\n        /* \"#utility.yul\":5087:5088   */\n      0x00\n        /* \"#utility.yul\":5084:5085   */\n      dup1\n        /* \"#utility.yul\":5077:5089   */\n      revert\n        /* \"#utility.yul\":5101:5218   */\n    tag_41:\n        /* \"#utility.yul\":5210:5211   */\n      0x00\n        /* \"#utility.yul\":5207:5208   */\n      dup1\n        /* \"#utility.yul\":5200:5212   */\n      revert\n        /* \"#utility.yul\":5224:5326   */\n    tag_72:\n        /* \"#utility.yul\":5265:5271   */\n      0x00\n        /* \"#utility.yul\":5316:5318   */\n      0x1f\n        /* \"#utility.yul\":5312:5319   */\n      not\n        /* \"#utility.yul\":5307:5309   */\n      0x1f\n        /* \"#utility.yul\":5300:5305   */\n      dup4\n        /* \"#utility.yul\":5296:5310   */\n      add\n        /* \"#utility.yul\":5292:5320   */\n      and\n        /* \"#utility.yul\":5282:5320   */\n      swap1\n      pop\n        /* \"#utility.yul\":5224:5326   */\n      swap2\n      swap1\n      pop\n      jump\t// out\n        /* \"#utility.yul\":5332:5502   */\n    tag_56:\n        /* \"#utility.yul\":5472:5494   */\n      0x4f6666736574206f7574206f6620626f756e6473000000000000000000000000\n        /* \"#utility.yul\":5468:5469   */\n      0x00\n        /* \"#utility.yul\":5460:5466   */\n      dup3\n        /* \"#utility.yul\":5456:5470   */\n      add\n        /* \"#utility.yul\":5449:5495   */\n      mstore\n        /* \"#utility.yul\":5332:5502   */\n      pop\n      jump\t// out\n        /* \"#utility.yul\":5508:5630   */\n    tag_37:\n        /* \"#utility.yul\":5581:5605   */\n      tag_97\n        /* \"#utility.yul\":5599:5604   */\n      dup2\n        /* \"#utility.yul\":5581:5605   */\n      tag_76\n      jump\t// in\n    tag_97:\n        /* \"#utility.yul\":5574:5579   */\n      dup2\n        /* \"#utility.yul\":5571:5606   */\n      eq\n        /* \"#utility.yul\":5561:5624   */\n      tag_98\n      jumpi\n        /* \"#utility.yul\":5620:5621   */\n      0x00\n        /* \"#utility.yul\":5617:5618   */\n      dup1\n        /* \"#utility.yul\":5610:5622   */\n      revert\n        /* \"#utility.yul\":5561:5624   */\n    tag_98:\n        /* \"#utility.yul\":5508:5630   */\n      pop\n      jump\t// out\n\n    auxdata: 0xa26469706673582212201c5e08852156cab29a69df6fd7f973c2321485f9dfc93d3fe906fb3dedabec5664736f6c63430008070033\n}\n",
				"bytecode": {
					"linkReferences": {},
					"object": "608060405234801561001057600080fd5b5061041d806100206000396000f3fe608060405234801561001057600080fd5b506004361061002b5760003560e01c80634475176014610030575b600080fd5b61004a6004803603810190610045919061014a565b610060565b60405161005791906101d8565b60405180910390f35b60008251602083610071919061027a565b11156100b2576040517f08c379a00000000000000000000000000000000000000000000000000000000081526004016100a9906101f3565b60405180910390fd5b6020830182810180519250505092915050565b60006100d86100d384610238565b610213565b9050828152602081018484840111156100f4576100f3610387565b5b6100ff8482856102e4565b509392505050565b600082601f83011261011c5761011b610382565b5b813561012c8482602086016100c5565b91505092915050565b600081359050610144816103d0565b92915050565b6000806040838503121561016157610160610391565b5b600083013567ffffffffffffffff81111561017f5761017e61038c565b5b61018b85828601610107565b925050602061019c85828601610135565b9150509250929050565b6101af816102d0565b82525050565b60006101c2601483610269565b91506101cd826103a7565b602082019050919050565b60006020820190506101ed60008301846101a6565b92915050565b6000602082019050818103600083015261020c816101b5565b9050919050565b600061021d61022e565b905061022982826102f3565b919050565b6000604051905090565b600067ffffffffffffffff82111561025357610252610353565b5b61025c82610396565b9050602081019050919050565b600082825260208201905092915050565b6000610285826102da565b9150610290836102da565b9250827fffffffffffffffffffffffffffffffffffffffffffffffffffffffffffffffff038211156102c5576102c4610324565b5b828201905092915050565b6000819050919050565b6000819050919050565b82818337600083830152505050565b6102fc82610396565b810181811067ffffffffffffffff8211171561031b5761031a610353565b5b80604052505050565b7f4e487b7100000000000000000000000000000000000000000000000000000000600052601160045260246000fd5b7f4e487b7100000000000000000000000000000000000000000000000000000000600052604160045260246000fd5b600080fd5b600080fd5b600080fd5b600080fd5b6000601f19601f8301169050919050565b7f4f6666736574206f7574206f6620626f756e6473000000000000000000000000600082015250565b6103d9816102da565b81146103e457600080fd5b5056fea26469706673582212201c5e08852156cab29a69df6fd7f973c2321485f9dfc93d3fe906fb3dedabec5664736f6c63430008070033",
					"opcodes": "PUSH1 0x80 PUSH1 0x40 MSTORE CALLVALUE DUP1 ISZERO PUSH2 0x10 JUMPI PUSH1 0x0 DUP1 REVERT JUMPDEST POP PUSH2 0x41D DUP1 PUSH2 0x20 PUSH1 0x0 CODECOPY PUSH1 0x0 RETURN INVALID PUSH1 0x80 PUSH1 0x40 MSTORE CALLVALUE DUP1 ISZERO PUSH2 0x10 JUMPI PUSH1 0x0 DUP1 REVERT JUMPDEST POP PUSH1 0x4 CALLDATASIZE LT PUSH2 0x2B JUMPI PUSH1 0x0 CALLDATALOAD PUSH1 0xE0 SHR DUP1 PUSH4 0x44751760 EQ PUSH2 0x30 JUMPI JUMPDEST PUSH1 0x0 DUP1 REVERT JUMPDEST PUSH2 0x4A PUSH1 0x4 DUP1 CALLDATASIZE SUB DUP2 ADD SWAP1 PUSH2 0x45 SWAP2 SWAP1 PUSH2 0x14A JUMP JUMPDEST PUSH2 0x60 JUMP JUMPDEST PUSH1 0x40 MLOAD PUSH2 0x57 SWAP2 SWAP1 PUSH2 0x1D8 JUMP JUMPDEST PUSH1 0x40 MLOAD DUP1 SWAP2 SUB SWAP1 RETURN JUMPDEST PUSH1 0x0 DUP3 MLOAD PUSH1 0x20 DUP4 PUSH2 0x71 SWAP2 SWAP1 PUSH2 0x27A JUMP JUMPDEST GT ISZERO PUSH2 0xB2 JUMPI PUSH1 0x40 MLOAD PUSH32 0x8C379A000000000000000000000000000000000000000000000000000000000 DUP2 MSTORE PUSH1 0x4 ADD PUSH2 0xA9 SWAP1 PUSH2 0x1F3 JUMP JUMPDEST PUSH1 0x40 MLOAD DUP1 SWAP2 SUB SWAP1 REVERT JUMPDEST PUSH1 0x20 DUP4 ADD DUP3 DUP2 ADD DUP1 MLOAD SWAP3 POP POP POP SWAP3 SWAP2 POP POP JUMP JUMPDEST PUSH1 0x0 PUSH2 0xD8 PUSH2 0xD3 DUP5 PUSH2 0x238 JUMP JUMPDEST PUSH2 0x213 JUMP JUMPDEST SWAP1 POP DUP3 DUP2 MSTORE PUSH1 0x20 DUP2 ADD DUP5 DUP5 DUP5 ADD GT ISZERO PUSH2 0xF4 JUMPI PUSH2 0xF3 PUSH2 0x387 JUMP JUMPDEST JUMPDEST PUSH2 0xFF DUP5 DUP3 DUP6 PUSH2 0x2E4 JUMP JUMPDEST POP SWAP4 SWAP3 POP POP POP JUMP JUMPDEST PUSH1 0x0 DUP3 PUSH1 0x1F DUP4 ADD SLT PUSH2 0x11C JUMPI PUSH2 0x11B PUSH2 0x382 JUMP JUMPDEST JUMPDEST DUP2 CALLDATALOAD PUSH2 0x12C DUP5 DUP3 PUSH1 0x20 DUP7 ADD PUSH2 0xC5 JUMP JUMPDEST SWAP2 POP POP SWAP3 SWAP2 POP POP JUMP JUMPDEST PUSH1 0x0 DUP2 CALLDATALOAD SWAP1 POP PUSH2 0x144 DUP2 PUSH2 0x3D0 JUMP JUMPDEST SWAP3 SWAP2 POP POP JUMP JUMPDEST PUSH1 0x0 DUP1 PUSH1 0x40 DUP4 DUP6 SUB SLT ISZERO PUSH2 0x161 JUMPI PUSH2 0x160 PUSH2 0x391 JUMP JUMPDEST JUMPDEST PUSH1 0x0 DUP4 ADD CALLDATALOAD PUSH8 0xFFFFFFFFFFFFFFFF DUP2 GT ISZERO PUSH2 0x17F JUMPI PUSH2 0x17E PUSH2 0x38C JUMP JUMPDEST JUMPDEST PUSH2 0x18B DUP6 DUP3 DUP7 ADD PUSH2 0x107 JUMP JUMPDEST SWAP3 POP POP PUSH1 0x20 PUSH2 0x19C DUP6 DUP3 DUP7 ADD PUSH2 0x135 JUMP JUMPDEST SWAP2 POP POP SWAP3 POP SWAP3 SWAP1 POP JUMP JUMPDEST PUSH2 0x1AF DUP2 PUSH2 0x2D0 JUMP JUMPDEST DUP3 MSTORE POP POP JUMP JUMPDEST PUSH1 0x0 PUSH2 0x1C2 PUSH1 0x14 DUP4 PUSH2 0x269 JUMP JUMPDEST SWAP2 POP PUSH2 0x1CD DUP3 PUSH2 0x3A7 JUMP JUMPDEST PUSH1 0x20 DUP3 ADD SWAP1 POP SWAP2 SWAP1 POP JUMP JUMPDEST PUSH1 0x0 PUSH1 0x20 DUP3 ADD SWAP1 POP PUSH2 0x1ED PUSH1 0x0 DUP4 ADD DUP5 PUSH2 0x1A6 JUMP JUMPDEST SWAP3 SWAP2 POP POP JUMP JUMPDEST PUSH1 0x0 PUSH1 0x20 DUP3 ADD SWAP1 POP DUP2 DUP2 SUB PUSH1 0x0 DUP4 ADD MSTORE PUSH2 0x20C DUP2 PUSH2 0x1B5 JUMP JUMPDEST SWAP1 POP SWAP2 SWAP1 POP JUMP JUMPDEST PUSH1 0x0 PUSH2 0x21D PUSH2 0x22E JUMP JUMPDEST SWAP1 POP PUSH2 0x229 DUP3 DUP3 PUSH2 0x2F3 JUMP JUMPDEST SWAP2 SWAP1 POP JUMP JUMPDEST PUSH1 0x0 PUSH1 0x40 MLOAD SWAP1 POP SWAP1 JUMP JUMPDEST PUSH1 0x0 PUSH8 0xFFFFFFFFFFFFFFFF DUP3 GT ISZERO PUSH2 0x253 JUMPI PUSH2 0x252 PUSH2 0x353 JUMP JUMPDEST JUMPDEST PUSH2 0x25C DUP3 PUSH2 0x396 JUMP JUMPDEST SWAP1 POP PUSH1 0x20 DUP2 ADD SWAP1 POP SWAP2 SWAP1 POP JUMP JUMPDEST PUSH1 0x0 DUP3 DUP3 MSTORE PUSH1 0x20 DUP3 ADD SWAP1 POP SWAP3 SWAP2 POP POP JUMP JUMPDEST PUSH1 0x0 PUSH2 0x285 DUP3 PUSH2 0x2DA JUMP JUMPDEST SWAP2 POP PUSH2 0x290 DUP4 PUSH2 0x2DA JUMP JUMPDEST SWAP3 POP DUP3 PUSH32 0xFFFFFFFFFFFFFFFFFFFFFFFFFFFFFFFFFFFFFFFFFFFFFFFFFFFFFFFFFFFFFFFF SUB DUP3 GT ISZERO PUSH2 0x2C5 JUMPI PUSH2 0x2C4 PUSH2 0x324 JUMP JUMPDEST JUMPDEST DUP3 DUP3 ADD SWAP1 POP SWAP3 SWAP2 POP POP JUMP JUMPDEST PUSH1 0x0 DUP2 SWAP1 POP SWAP2 SWAP1 POP JUMP JUMPDEST PUSH1 0x0 DUP2 SWAP1 POP SWAP2 SWAP1 POP JUMP JUMPDEST DUP3 DUP2 DUP4 CALLDATACOPY PUSH1 0x0 DUP4 DUP4 ADD MSTORE POP POP POP JUMP JUMPDEST PUSH2 0x2FC DUP3 PUSH2 0x396 JUMP JUMPDEST DUP2 ADD DUP2 DUP2 LT PUSH8 0xFFFFFFFFFFFFFFFF DUP3 GT OR ISZERO PUSH2 0x31B JUMPI PUSH2 0x31A PUSH2 0x353 JUMP JUMPDEST JUMPDEST DUP1 PUSH1 0x40 MSTORE POP POP POP JUMP JUMPDEST PUSH32 0x4E487B7100000000000000000000000000000000000000000000000000000000 PUSH1 0x0 MSTORE PUSH1 0x11 PUSH1 0x4 MSTORE PUSH1 0x24 PUSH1 0x0 REVERT JUMPDEST PUSH32 0x4E487B7100000000000000000000000000000000000000000000000000000000 PUSH1 0x0 MSTORE PUSH1 0x41 PUSH1 0x4 MSTORE PUSH1 0x24 PUSH1 0x0 REVERT JUMPDEST PUSH1 0x0 DUP1 REVERT JUMPDEST PUSH1 0x0 DUP1 REVERT JUMPDEST PUSH1 0x0 DUP1 REVERT JUMPDEST PUSH1 0x0 DUP1 REVERT JUMPDEST PUSH1 0x0 PUSH1 0x1F NOT PUSH1 0x1F DUP4 ADD AND SWAP1 POP SWAP2 SWAP1 POP JUMP JUMPDEST PUSH32 0x4F6666736574206F7574206F6620626F756E6473000000000000000000000000 PUSH1 0x0 DUP3 ADD MSTORE POP JUMP JUMPDEST PUSH2 0x3D9 DUP2 PUSH2 0x2DA JUMP JUMPDEST DUP2 EQ PUSH2 0x3E4 JUMPI PUSH1 0x0 DUP1 REVERT JUMPDEST POP JUMP INVALID LOG2 PUSH5 0x6970667358 0x22 SLT KECCAK256 SHR 0x5E ADDMOD DUP6 0x21 JUMP 0xCA 0xB2 SWAP11 PUSH10 0xDF6FD7F973C2321485F9 0xDF 0xC9 RETURNDATASIZE EXTCODEHASH 0xE9 MOD 0xFB RETURNDATASIZE 0xED 0xAB 0xEC JUMP PUSH5 0x736F6C6343 STOP ADDMOD SMOD STOP CALLER "
				},
				"gasEstimates": {
					"creation": {
						"codeDepositCost": "210600",
						"executionCost": "251",
						"totalCost": "210851"
					},
					"external": {
						"read(bytes,uint256)": "infinite"
					}
				},
				"methodIdentifiers": {
					"read(bytes,uint256)": "44751760"
				}
			},
			"storageLayout": {
				"storage": [],
				"types": null
			},
			"userdoc": {
				"kind": "user",
				"methods": {},
				"version": 1
			}
		}
	}
}