{
	"global-variables.sol": {
		"Updated": {
			"abi": [
				{
					"inputs": [],
					"name": "updatesBalance",
					"outputs": [],
					"stateMutability": "nonpayable",
					"type": "function"
				}
			],
			"devdoc": {
				"kind": "dev",
				"methods": {},
				"version": 1
			},
			"evm": {
				"assembly": "    /* \"global-variables.sol\":1015:1185  contract Updated{\r... */\n  mstore(0x40, 0x80)\n  callvalue\n  dup1\n  iszero\n  tag_1\n  jumpi\n  0x00\n  dup1\n  revert\ntag_1:\n  pop\n  dataSize(sub_0)\n  dup1\n  dataOffset(sub_0)\n  0x00\n  codecopy\n  0x00\n  return\nstop\n\nsub_0: assembly {\n        /* \"global-variables.sol\":1015:1185  contract Updated{\r... */\n      mstore(0x40, 0x80)\n      callvalue\n      dup1\n      iszero\n      tag_1\n      jumpi\n      0x00\n      dup1\n      revert\n    tag_1:\n      pop\n      jumpi(tag_2, lt(calldatasize, 0x04))\n      shr(0xe0, calldataload(0x00))\n      dup1\n      0x22a39bfc\n      eq\n      tag_3\n      jumpi\n    tag_2:\n      0x00\n      dup1\n      revert\n        /* \"global-variables.sol\":1038:1182  function updatesBalance() public {\r... */\n    tag_3:\n      tag_4\n      tag_5\n      jump\t// in\n    tag_4:\n      stop\n    tag_5:\n        /* \"global-variables.sol\":1082:1109  LedgerBalance ledgerBalance */\n      0x00\n        /* \"global-variables.sol\":1112:1131  new LedgerBalance() */\n      mload(0x40)\n      tag_7\n      swap1\n      tag_8\n      jump\t// in\n    tag_7:\n      mload(0x40)\n      dup1\n      swap2\n      sub\n      swap1\n      0x00\n      create\n      dup1\n      iszero\n      dup1\n      iszero\n      tag_9\n      jumpi\n      returndatasize\n      0x00\n      dup1\n      returndatacopy\n      revert(0x00, returndatasize)\n    tag_9:\n      pop\n        /* \"global-variables.sol\":1082:1131  LedgerBalance ledgerBalance = new LedgerBalance() */\n      swap1\n      pop\n        /* \"global-variables.sol\":1142:1155  ledgerBalance */\n      dup1\n        /* \"global-variables.sol\":1142:1170  ledgerBalance.updatesBalance */\n      0xffffffffffffffffffffffffffffffffffffffff\n      and\n      0x17c2b39f\n        /* \"global-variables.sol\":1171:1173  30 */\n      0x1e\n        /* \"global-variables.sol\":1142:1174  ledgerBalance.updatesBalance(30) */\n      mload(0x40)\n      dup3\n      0xffffffff\n      and\n      0xe0\n      shl\n      dup2\n      mstore\n      0x04\n      add\n      tag_10\n      swap2\n      swap1\n      tag_11\n      jump\t// in\n    tag_10:\n      0x00\n      mload(0x40)\n      dup1\n      dup4\n      sub\n      dup2\n      0x00\n      dup8\n      dup1\n      extcodesize\n      iszero\n      dup1\n      iszero\n      tag_12\n      jumpi\n      0x00\n      dup1\n      revert\n    tag_12:\n      pop\n      gas\n      call\n      iszero\n      dup1\n      iszero\n      tag_14\n      jumpi\n      returndatasize\n      0x00\n      dup1\n      returndatacopy\n      revert(0x00, returndatasize)\n    tag_14:\n      pop\n      pop\n      pop\n      pop\n        /* \"global-variables.sol\":1071:1182  {\r... */\n      pop\n        /* \"global-variables.sol\":1038:1182  function updatesBalance() public {\r... */\n      jump\t// out\n    tag_8:\n      dataSize(sub_0)\n      dup1\n      dataOffset(sub_0)\n      dup4\n      codecopy\n      add\n      swap1\n      jump\t// out\n        /* \"#utility.yul\":7:156   */\n    tag_16:\n        /* \"#utility.yul\":103:149   */\n      tag_18\n        /* \"#utility.yul\":143:148   */\n      dup2\n        /* \"#utility.yul\":103:149   */\n      tag_19\n      jump\t// in\n    tag_18:\n        /* \"#utility.yul\":98:101   */\n      dup3\n        /* \"#utility.yul\":91:150   */\n      mstore\n        /* \"#utility.yul\":7:156   */\n      pop\n      pop\n      jump\t// out\n        /* \"#utility.yul\":162:402   */\n    tag_11:\n        /* \"#utility.yul\":264:268   */\n      0x00\n        /* \"#utility.yul\":302:304   */\n      0x20\n        /* \"#utility.yul\":291:300   */\n      dup3\n        /* \"#utility.yul\":287:305   */\n      add\n        /* \"#utility.yul\":279:305   */\n      swap1\n      pop\n        /* \"#utility.yul\":315:395   */\n      tag_21\n        /* \"#utility.yul\":392:393   */\n      0x00\n        /* \"#utility.yul\":381:390   */\n      dup4\n        /* \"#utility.yul\":377:394   */\n      add\n        /* \"#utility.yul\":368:374   */\n      dup5\n        /* \"#utility.yul\":315:395   */\n      tag_16\n      jump\t// in\n    tag_21:\n        /* \"#utility.yul\":162:402   */\n      swap3\n      swap2\n      pop\n      pop\n      jump\t// out\n        /* \"#utility.yul\":408:485   */\n    tag_22:\n        /* \"#utility.yul\":445:452   */\n      0x00\n        /* \"#utility.yul\":474:479   */\n      dup2\n        /* \"#utility.yul\":463:479   */\n      swap1\n      pop\n        /* \"#utility.yul\":408:485   */\n      swap2\n      swap1\n      pop\n      jump\t// out\n        /* \"#utility.yul\":491:613   */\n    tag_19:\n        /* \"#utility.yul\":550:559   */\n      0x00\n        /* \"#utility.yul\":583:607   */\n      tag_25\n        /* \"#utility.yul\":601:606   */\n      dup3\n        /* \"#utility.yul\":583:607   */\n      tag_22\n      jump\t// in\n    tag_25:\n        /* \"#utility.yul\":570:607   */\n      swap1\n      pop\n        /* \"#utility.yul\":491:613   */\n      swap2\n      swap1\n      pop\n      jump\t// out\n    stop\n\n    sub_0: assembly {\n            /* \"global-variables.sol\":305:953  contract LedgerBalance{ //καθολική ισορροπία\r... */\n          mstore(0x40, 0x80)\n          callvalue\n          dup1\n          iszero\n          tag_1\n          jumpi\n          0x00\n          dup1\n          revert\n        tag_1:\n          pop\n          dataSize(sub_0)\n          dup1\n          dataOffset(sub_0)\n          0x00\n          codecopy\n          0x00\n          return\n        stop\n\n        sub_0: assembly {\n                /* \"global-variables.sol\":305:953  contract LedgerBalance{ //καθολική ισορροπία\r... */\n              mstore(0x40, 0x80)\n              jumpi(tag_1, lt(calldatasize, 0x04))\n              shr(0xe0, calldataload(0x00))\n              dup1\n              0x17c2b39f\n              eq\n              tag_2\n              jumpi\n              dup1\n              0x27e235e3\n              eq\n              tag_3\n              jumpi\n              dup1\n              0xd0e30db0\n              eq\n              tag_4\n              jumpi\n            tag_1:\n              0x00\n              dup1\n              revert\n                /* \"global-variables.sol\":853:948  function updatesBalance(uint newBalance) public{\r... */\n            tag_2:\n              callvalue\n              dup1\n              iszero\n              tag_5\n              jumpi\n              0x00\n              dup1\n              revert\n            tag_5:\n              pop\n              tag_6\n              0x04\n              dup1\n              calldatasize\n              sub\n              dup2\n              add\n              swap1\n              tag_7\n              swap2\n              swap1\n              tag_8\n              jump\t// in\n            tag_7:\n              tag_9\n              jump\t// in\n            tag_6:\n              stop\n                /* \"global-variables.sol\":524:569  mapping (address=>uint256   ) public balances */\n            tag_3:\n              callvalue\n              dup1\n              iszero\n              tag_10\n              jumpi\n              0x00\n              dup1\n              revert\n            tag_10:\n              pop\n              tag_11\n              0x04\n              dup1\n              calldatasize\n              sub\n              dup2\n              add\n              swap1\n              tag_12\n              swap2\n              swap1\n              tag_13\n              jump\t// in\n            tag_12:\n              tag_14\n              jump\t// in\n            tag_11:\n              mload(0x40)\n              tag_15\n              swap2\n              swap1\n              tag_16\n              jump\t// in\n            tag_15:\n              mload(0x40)\n              dup1\n              swap2\n              sub\n              swap1\n              return\n                /* \"global-variables.sol\":597:816  function deposit() external payable{ //deposit function \r... */\n            tag_4:\n              tag_17\n              tag_18\n              jump\t// in\n            tag_17:\n              stop\n                /* \"global-variables.sol\":853:948  function updatesBalance(uint newBalance) public{\r... */\n            tag_9:\n                /* \"global-variables.sol\":930:940  newBalance */\n              dup1\n                /* \"global-variables.sol\":907:915  balances */\n              0x00\n                /* \"global-variables.sol\":907:927  balances[msg.sender] */\n              dup1\n                /* \"global-variables.sol\":916:926  msg.sender */\n              caller\n                /* \"global-variables.sol\":907:927  balances[msg.sender] */\n              0xffffffffffffffffffffffffffffffffffffffff\n              and\n              0xffffffffffffffffffffffffffffffffffffffff\n              and\n              dup2\n              mstore\n              0x20\n              add\n              swap1\n              dup2\n              mstore\n              0x20\n              add\n              0x00\n              keccak256\n                /* \"global-variables.sol\":907:940  balances[msg.sender] = newBalance */\n              dup2\n              swap1\n              sstore\n              pop\n                /* \"global-variables.sol\":853:948  function updatesBalance(uint newBalance) public{\r... */\n              pop\n              jump\t// out\n                /* \"global-variables.sol\":524:569  mapping (address=>uint256   ) public balances */\n            tag_14:\n              mstore(0x20, 0x00)\n              dup1\n              0x00\n              mstore\n              keccak256(0x00, 0x40)\n              0x00\n              swap2\n              pop\n              swap1\n              pop\n              sload\n              dup2\n              jump\t// out\n                /* \"global-variables.sol\":597:816  function deposit() external payable{ //deposit function \r... */\n            tag_18:\n                /* \"global-variables.sol\":681:682  0 */\n              0x00\n                /* \"global-variables.sol\":671:680  msg.value */\n              callvalue\n                /* \"global-variables.sol\":671:682  msg.value>0 */\n              gt\n                /* \"global-variables.sol\":663:705  require(msg.value>0, \"insufficient funds\") */\n              tag_21\n              jumpi\n              mload(0x40)\n              0x08c379a000000000000000000000000000000000000000000000000000000000\n              dup2\n              mstore\n              0x04\n              add\n              tag_22\n              swap1\n              tag_23\n              jump\t// in\n            tag_22:\n              mload(0x40)\n              dup1\n              swap2\n              sub\n              swap1\n              revert\n            tag_21:\n                /* \"global-variables.sol\":801:810  msg.value */\n              callvalue\n                /* \"global-variables.sol\":778:786  balances */\n              0x00\n                /* \"global-variables.sol\":778:798  balances[msg.sender] */\n              dup1\n                /* \"global-variables.sol\":787:797  msg.sender */\n              caller\n                /* \"global-variables.sol\":778:798  balances[msg.sender] */\n              0xffffffffffffffffffffffffffffffffffffffff\n              and\n              0xffffffffffffffffffffffffffffffffffffffff\n              and\n              dup2\n              mstore\n              0x20\n              add\n              swap1\n              dup2\n              mstore\n              0x20\n              add\n              0x00\n              keccak256\n              0x00\n                /* \"global-variables.sol\":778:810  balances[msg.sender]+= msg.value */\n              dup3\n              dup3\n              sload\n              tag_24\n              swap2\n              swap1\n              tag_25\n              jump\t// in\n            tag_24:\n              swap3\n              pop\n              pop\n              dup2\n              swap1\n              sstore\n              pop\n                /* \"global-variables.sol\":597:816  function deposit() external payable{ //deposit function \r... */\n              jump\t// out\n                /* \"#utility.yul\":7:146   */\n            tag_27:\n                /* \"#utility.yul\":53:58   */\n              0x00\n                /* \"#utility.yul\":91:97   */\n              dup2\n                /* \"#utility.yul\":78:98   */\n              calldataload\n                /* \"#utility.yul\":69:98   */\n              swap1\n              pop\n                /* \"#utility.yul\":107:140   */\n              tag_29\n                /* \"#utility.yul\":134:139   */\n              dup2\n                /* \"#utility.yul\":107:140   */\n              tag_30\n              jump\t// in\n            tag_29:\n                /* \"#utility.yul\":7:146   */\n              swap3\n              swap2\n              pop\n              pop\n              jump\t// out\n                /* \"#utility.yul\":152:291   */\n            tag_31:\n                /* \"#utility.yul\":198:203   */\n              0x00\n                /* \"#utility.yul\":236:242   */\n              dup2\n                /* \"#utility.yul\":223:243   */\n              calldataload\n                /* \"#utility.yul\":214:243   */\n              swap1\n              pop\n                /* \"#utility.yul\":252:285   */\n              tag_33\n                /* \"#utility.yul\":279:284   */\n              dup2\n                /* \"#utility.yul\":252:285   */\n              tag_34\n              jump\t// in\n            tag_33:\n                /* \"#utility.yul\":152:291   */\n              swap3\n              swap2\n              pop\n              pop\n              jump\t// out\n                /* \"#utility.yul\":297:626   */\n            tag_13:\n                /* \"#utility.yul\":356:362   */\n              0x00\n                /* \"#utility.yul\":405:407   */\n              0x20\n                /* \"#utility.yul\":393:402   */\n              dup3\n                /* \"#utility.yul\":384:391   */\n              dup5\n                /* \"#utility.yul\":380:403   */\n              sub\n                /* \"#utility.yul\":376:408   */\n              slt\n                /* \"#utility.yul\":373:492   */\n              iszero\n              tag_36\n              jumpi\n                /* \"#utility.yul\":411:490   */\n              tag_37\n              tag_38\n              jump\t// in\n            tag_37:\n                /* \"#utility.yul\":373:492   */\n            tag_36:\n                /* \"#utility.yul\":531:532   */\n              0x00\n                /* \"#utility.yul\":556:609   */\n              tag_39\n                /* \"#utility.yul\":601:608   */\n              dup5\n                /* \"#utility.yul\":592:598   */\n              dup3\n                /* \"#utility.yul\":581:590   */\n              dup6\n                /* \"#utility.yul\":577:599   */\n              add\n                /* \"#utility.yul\":556:609   */\n              tag_27\n              jump\t// in\n            tag_39:\n                /* \"#utility.yul\":546:609   */\n              swap2\n              pop\n                /* \"#utility.yul\":502:619   */\n              pop\n                /* \"#utility.yul\":297:626   */\n              swap3\n              swap2\n              pop\n              pop\n              jump\t// out\n                /* \"#utility.yul\":632:961   */\n            tag_8:\n                /* \"#utility.yul\":691:697   */\n              0x00\n                /* \"#utility.yul\":740:742   */\n              0x20\n                /* \"#utility.yul\":728:737   */\n              dup3\n                /* \"#utility.yul\":719:726   */\n              dup5\n                /* \"#utility.yul\":715:738   */\n              sub\n                /* \"#utility.yul\":711:743   */\n              slt\n                /* \"#utility.yul\":708:827   */\n              iszero\n              tag_41\n              jumpi\n                /* \"#utility.yul\":746:825   */\n              tag_42\n              tag_38\n              jump\t// in\n            tag_42:\n                /* \"#utility.yul\":708:827   */\n            tag_41:\n                /* \"#utility.yul\":866:867   */\n              0x00\n                /* \"#utility.yul\":891:944   */\n              tag_43\n                /* \"#utility.yul\":936:943   */\n              dup5\n                /* \"#utility.yul\":927:933   */\n              dup3\n                /* \"#utility.yul\":916:925   */\n              dup6\n                /* \"#utility.yul\":912:934   */\n              add\n                /* \"#utility.yul\":891:944   */\n              tag_31\n              jump\t// in\n            tag_43:\n                /* \"#utility.yul\":881:944   */\n              swap2\n              pop\n                /* \"#utility.yul\":837:954   */\n              pop\n                /* \"#utility.yul\":632:961   */\n              swap3\n              swap2\n              pop\n              pop\n              jump\t// out\n                /* \"#utility.yul\":967:1333   */\n            tag_44:\n                /* \"#utility.yul\":1109:1112   */\n              0x00\n                /* \"#utility.yul\":1130:1197   */\n              tag_46\n                /* \"#utility.yul\":1194:1196   */\n              0x12\n                /* \"#utility.yul\":1189:1192   */\n              dup4\n                /* \"#utility.yul\":1130:1197   */\n              tag_47\n              jump\t// in\n            tag_46:\n                /* \"#utility.yul\":1123:1197   */\n              swap2\n              pop\n                /* \"#utility.yul\":1206:1299   */\n              tag_48\n                /* \"#utility.yul\":1295:1298   */\n              dup3\n                /* \"#utility.yul\":1206:1299   */\n              tag_49\n              jump\t// in\n            tag_48:\n                /* \"#utility.yul\":1324:1326   */\n              0x20\n                /* \"#utility.yul\":1319:1322   */\n              dup3\n                /* \"#utility.yul\":1315:1327   */\n              add\n                /* \"#utility.yul\":1308:1327   */\n              swap1\n              pop\n                /* \"#utility.yul\":967:1333   */\n              swap2\n              swap1\n              pop\n              jump\t// out\n                /* \"#utility.yul\":1339:1457   */\n            tag_50:\n                /* \"#utility.yul\":1426:1450   */\n              tag_52\n                /* \"#utility.yul\":1444:1449   */\n              dup2\n                /* \"#utility.yul\":1426:1450   */\n              tag_53\n              jump\t// in\n            tag_52:\n                /* \"#utility.yul\":1421:1424   */\n              dup3\n                /* \"#utility.yul\":1414:1451   */\n              mstore\n                /* \"#utility.yul\":1339:1457   */\n              pop\n              pop\n              jump\t// out\n                /* \"#utility.yul\":1463:1882   */\n            tag_23:\n                /* \"#utility.yul\":1629:1633   */\n              0x00\n                /* \"#utility.yul\":1667:1669   */\n              0x20\n                /* \"#utility.yul\":1656:1665   */\n              dup3\n                /* \"#utility.yul\":1652:1670   */\n              add\n                /* \"#utility.yul\":1644:1670   */\n              swap1\n              pop\n                /* \"#utility.yul\":1716:1725   */\n              dup2\n                /* \"#utility.yul\":1710:1714   */\n              dup2\n                /* \"#utility.yul\":1706:1726   */\n              sub\n                /* \"#utility.yul\":1702:1703   */\n              0x00\n                /* \"#utility.yul\":1691:1700   */\n              dup4\n                /* \"#utility.yul\":1687:1704   */\n              add\n                /* \"#utility.yul\":1680:1727   */\n              mstore\n                /* \"#utility.yul\":1744:1875   */\n              tag_55\n                /* \"#utility.yul\":1870:1874   */\n              dup2\n                /* \"#utility.yul\":1744:1875   */\n              tag_44\n              jump\t// in\n            tag_55:\n                /* \"#utility.yul\":1736:1875   */\n              swap1\n              pop\n                /* \"#utility.yul\":1463:1882   */\n              swap2\n              swap1\n              pop\n              jump\t// out\n                /* \"#utility.yul\":1888:2110   */\n            tag_16:\n                /* \"#utility.yul\":1981:1985   */\n              0x00\n                /* \"#utility.yul\":2019:2021   */\n              0x20\n                /* \"#utility.yul\":2008:2017   */\n              dup3\n                /* \"#utility.yul\":2004:2022   */\n              add\n                /* \"#utility.yul\":1996:2022   */\n              swap1\n              pop\n                /* \"#utility.yul\":2032:2103   */\n              tag_57\n                /* \"#utility.yul\":2100:2101   */\n              0x00\n                /* \"#utility.yul\":2089:2098   */\n              dup4\n                /* \"#utility.yul\":2085:2102   */\n              add\n                /* \"#utility.yul\":2076:2082   */\n              dup5\n                /* \"#utility.yul\":2032:2103   */\n              tag_50\n              jump\t// in\n            tag_57:\n                /* \"#utility.yul\":1888:2110   */\n              swap3\n              swap2\n              pop\n              pop\n              jump\t// out\n                /* \"#utility.yul\":2197:2366   */\n            tag_47:\n                /* \"#utility.yul\":2281:2292   */\n              0x00\n                /* \"#utility.yul\":2315:2321   */\n              dup3\n                /* \"#utility.yul\":2310:2313   */\n              dup3\n                /* \"#utility.yul\":2303:2322   */\n              mstore\n                /* \"#utility.yul\":2355:2359   */\n              0x20\n                /* \"#utility.yul\":2350:2353   */\n              dup3\n                /* \"#utility.yul\":2346:2360   */\n              add\n                /* \"#utility.yul\":2331:2360   */\n              swap1\n              pop\n                /* \"#utility.yul\":2197:2366   */\n              swap3\n              swap2\n              pop\n              pop\n              jump\t// out\n                /* \"#utility.yul\":2372:2677   */\n            tag_25:\n                /* \"#utility.yul\":2412:2415   */\n              0x00\n                /* \"#utility.yul\":2431:2451   */\n              tag_62\n                /* \"#utility.yul\":2449:2450   */\n              dup3\n                /* \"#utility.yul\":2431:2451   */\n              tag_53\n              jump\t// in\n            tag_62:\n                /* \"#utility.yul\":2426:2451   */\n              swap2\n              pop\n                /* \"#utility.yul\":2465:2485   */\n              tag_63\n                /* \"#utility.yul\":2483:2484   */\n              dup4\n                /* \"#utility.yul\":2465:2485   */\n              tag_53\n              jump\t// in\n            tag_63:\n                /* \"#utility.yul\":2460:2485   */\n              swap3\n              pop\n                /* \"#utility.yul\":2619:2620   */\n              dup3\n                /* \"#utility.yul\":2551:2617   */\n              0xffffffffffffffffffffffffffffffffffffffffffffffffffffffffffffffff\n                /* \"#utility.yul\":2547:2621   */\n              sub\n                /* \"#utility.yul\":2544:2545   */\n              dup3\n                /* \"#utility.yul\":2541:2622   */\n              gt\n                /* \"#utility.yul\":2538:2645   */\n              iszero\n              tag_64\n              jumpi\n                /* \"#utility.yul\":2625:2643   */\n              tag_65\n              tag_66\n              jump\t// in\n            tag_65:\n                /* \"#utility.yul\":2538:2645   */\n            tag_64:\n                /* \"#utility.yul\":2669:2670   */\n              dup3\n                /* \"#utility.yul\":2666:2667   */\n              dup3\n                /* \"#utility.yul\":2662:2671   */\n              add\n                /* \"#utility.yul\":2655:2671   */\n              swap1\n              pop\n                /* \"#utility.yul\":2372:2677   */\n              swap3\n              swap2\n              pop\n              pop\n              jump\t// out\n                /* \"#utility.yul\":2683:2779   */\n            tag_67:\n                /* \"#utility.yul\":2720:2727   */\n              0x00\n                /* \"#utility.yul\":2749:2773   */\n              tag_69\n                /* \"#utility.yul\":2767:2772   */\n              dup3\n                /* \"#utility.yul\":2749:2773   */\n              tag_70\n              jump\t// in\n            tag_69:\n                /* \"#utility.yul\":2738:2773   */\n              swap1\n              pop\n                /* \"#utility.yul\":2683:2779   */\n              swap2\n              swap1\n              pop\n              jump\t// out\n                /* \"#utility.yul\":2785:2911   */\n            tag_70:\n                /* \"#utility.yul\":2822:2829   */\n              0x00\n                /* \"#utility.yul\":2862:2904   */\n              0xffffffffffffffffffffffffffffffffffffffff\n                /* \"#utility.yul\":2855:2860   */\n              dup3\n                /* \"#utility.yul\":2851:2905   */\n              and\n                /* \"#utility.yul\":2840:2905   */\n              swap1\n              pop\n                /* \"#utility.yul\":2785:2911   */\n              swap2\n              swap1\n              pop\n              jump\t// out\n                /* \"#utility.yul\":2917:2994   */\n            tag_53:\n                /* \"#utility.yul\":2954:2961   */\n              0x00\n                /* \"#utility.yul\":2983:2988   */\n              dup2\n                /* \"#utility.yul\":2972:2988   */\n              swap1\n              pop\n                /* \"#utility.yul\":2917:2994   */\n              swap2\n              swap1\n              pop\n              jump\t// out\n                /* \"#utility.yul\":3000:3180   */\n            tag_66:\n                /* \"#utility.yul\":3048:3125   */\n              0x4e487b7100000000000000000000000000000000000000000000000000000000\n                /* \"#utility.yul\":3045:3046   */\n              0x00\n                /* \"#utility.yul\":3038:3126   */\n              mstore\n                /* \"#utility.yul\":3145:3149   */\n              0x11\n                /* \"#utility.yul\":3142:3143   */\n              0x04\n                /* \"#utility.yul\":3135:3150   */\n              mstore\n                /* \"#utility.yul\":3169:3173   */\n              0x24\n                /* \"#utility.yul\":3166:3167   */\n              0x00\n                /* \"#utility.yul\":3159:3174   */\n              revert\n                /* \"#utility.yul\":3309:3426   */\n            tag_38:\n                /* \"#utility.yul\":3418:3419   */\n              0x00\n                /* \"#utility.yul\":3415:3416   */\n              dup1\n                /* \"#utility.yul\":3408:3420   */\n              revert\n                /* \"#utility.yul\":3432:3600   */\n            tag_49:\n                /* \"#utility.yul\":3572:3592   */\n              0x696e73756666696369656e742066756e64730000000000000000000000000000\n                /* \"#utility.yul\":3568:3569   */\n              0x00\n                /* \"#utility.yul\":3560:3566   */\n              dup3\n                /* \"#utility.yul\":3556:3570   */\n              add\n                /* \"#utility.yul\":3549:3593   */\n              mstore\n                /* \"#utility.yul\":3432:3600   */\n              pop\n              jump\t// out\n                /* \"#utility.yul\":3606:3728   */\n            tag_30:\n                /* \"#utility.yul\":3679:3703   */\n              tag_79\n                /* \"#utility.yul\":3697:3702   */\n              dup2\n                /* \"#utility.yul\":3679:3703   */\n              tag_67\n              jump\t// in\n            tag_79:\n                /* \"#utility.yul\":3672:3677   */\n              dup2\n                /* \"#utility.yul\":3669:3704   */\n              eq\n                /* \"#utility.yul\":3659:3722   */\n              tag_80\n              jumpi\n                /* \"#utility.yul\":3718:3719   */\n              0x00\n                /* \"#utility.yul\":3715:3716   */\n              dup1\n                /* \"#utility.yul\":3708:3720   */\n              revert\n                /* \"#utility.yul\":3659:3722   */\n            tag_80:\n                /* \"#utility.yul\":3606:3728   */\n              pop\n              jump\t// out\n                /* \"#utility.yul\":3734:3856   */\n            tag_34:\n                /* \"#utility.yul\":3807:3831   */\n              tag_82\n                /* \"#utility.yul\":3825:3830   */\n              dup2\n                /* \"#utility.yul\":3807:3831   */\n              tag_53\n              jump\t// in\n            tag_82:\n                /* \"#utility.yul\":3800:3805   */\n              dup2\n                /* \"#utility.yul\":3797:3832   */\n              eq\n                /* \"#utility.yul\":3787:3850   */\n              tag_83\n              jumpi\n                /* \"#utility.yul\":3846:3847   */\n              0x00\n                /* \"#utility.yul\":3843:3844   */\n              dup1\n                /* \"#utility.yul\":3836:3848   */\n              revert\n                /* \"#utility.yul\":3787:3850   */\n            tag_83:\n                /* \"#utility.yul\":3734:3856   */\n              pop\n              jump\t// out\n\n            auxdata: 0xa2646970667358221220b9c937c9dcffd6af2c1428f1ddc7ba8812ad85540dc7b01fe546a020d817b09264736f6c63430008070033\n        }\n    }\n\n    auxdata: 0xa2646970667358221220a90fdd6967e4c3a2978683233509d7a56d37db3b3b5207faf545fe85f76720c964736f6c63430008070033\n}\n",
				"bytecode": {
					"linkReferences": {},
					"object": "608060405234801561001057600080fd5b50610575806100206000396000f3fe608060405234801561001057600080fd5b506004361061002b5760003560e01c806322a39bfc14610030575b600080fd5b61003861003a565b005b6000604051610048906100d6565b604051809103906000f080158015610064573d6000803e3d6000fd5b5090508073ffffffffffffffffffffffffffffffffffffffff166317c2b39f601e6040518263ffffffff1660e01b81526004016100a191906100f2565b600060405180830381600087803b1580156100bb57600080fd5b505af11580156100cf573d6000803e3d6000fd5b5050505050565b6104168061012a83390190565b6100ec81610117565b82525050565b600060208201905061010760008301846100e3565b92915050565b6000819050919050565b60006101228261010d565b905091905056fe608060405234801561001057600080fd5b506103f6806100206000396000f3fe6080604052600436106100345760003560e01c806317c2b39f1461003957806327e235e314610062578063d0e30db01461009f575b600080fd5b34801561004557600080fd5b50610060600480360381019061005b91906101f8565b6100a9565b005b34801561006e57600080fd5b50610089600480360381019061008491906101cb565b6100ef565b6040516100969190610277565b60405180910390f35b6100a7610107565b005b806000803373ffffffffffffffffffffffffffffffffffffffff1673ffffffffffffffffffffffffffffffffffffffff1681526020019081526020016000208190555050565b60006020528060005260406000206000915090505481565b6000341161014a576040517f08c379a000000000000000000000000000000000000000000000000000000000815260040161014190610257565b60405180910390fd5b346000803373ffffffffffffffffffffffffffffffffffffffff1673ffffffffffffffffffffffffffffffffffffffff168152602001908152602001600020600082825461019891906102a3565b92505081905550565b6000813590506101b081610392565b92915050565b6000813590506101c5816103a9565b92915050565b6000602082840312156101e1576101e0610364565b5b60006101ef848285016101a1565b91505092915050565b60006020828403121561020e5761020d610364565b5b600061021c848285016101b6565b91505092915050565b6000610232601283610292565b915061023d82610369565b602082019050919050565b6102518161032b565b82525050565b6000602082019050818103600083015261027081610225565b9050919050565b600060208201905061028c6000830184610248565b92915050565b600082825260208201905092915050565b60006102ae8261032b565b91506102b98361032b565b9250827fffffffffffffffffffffffffffffffffffffffffffffffffffffffffffffffff038211156102ee576102ed610335565b5b828201905092915050565b60006103048261030b565b9050919050565b600073ffffffffffffffffffffffffffffffffffffffff82169050919050565b6000819050919050565b7f4e487b7100000000000000000000000000000000000000000000000000000000600052601160045260246000fd5b600080fd5b7f696e73756666696369656e742066756e64730000000000000000000000000000600082015250565b61039b816102f9565b81146103a657600080fd5b50565b6103b28161032b565b81146103bd57600080fd5b5056fea2646970667358221220b9c937c9dcffd6af2c1428f1ddc7ba8812ad85540dc7b01fe546a020d817b09264736f6c63430008070033a2646970667358221220a90fdd6967e4c3a2978683233509d7a56d37db3b3b5207faf545fe85f76720c964736f6c63430008070033",
					"opcodes": "PUSH1 0x80 PUSH1 0x40 MSTORE CALLVALUE DUP1 ISZERO PUSH2 0x10 JUMPI PUSH1 0x0 DUP1 REVERT JUMPDEST POP PUSH2 0x575 DUP1 PUSH2 0x20 PUSH1 0x0 CODECOPY PUSH1 0x0 RETURN INVALID PUSH1 0x80 PUSH1 0x40 MSTORE CALLVALUE DUP1 ISZERO PUSH2 0x10 JUMPI PUSH1 0x0 DUP1 REVERT JUMPDEST POP PUSH1 0x4 CALLDATASIZE LT PUSH2 0x2B JUMPI PUSH1 0x0 CALLDATALOAD PUSH1 0xE0 SHR DUP1 PUSH4 0x22A39BFC EQ PUSH2 0x30 JUMPI JUMPDEST PUSH1 0x0 DUP1 REVERT JUMPDEST PUSH2 0x38 PUSH2 0x3A JUMP JUMPDEST STOP JUMPDEST PUSH1 0x0 PUSH1 0x40 MLOAD PUSH2 0x48 SWAP1 PUSH2 0xD6 JUMP JUMPDEST PUSH1 0x40 MLOAD DUP1 SWAP2 SUB SWAP1 PUSH1 0x0 CREATE DUP1 ISZERO DUP1 ISZERO PUSH2 0x64 JUMPI RETURNDATASIZE PUSH1 0x0 DUP1 RETURNDATACOPY RETURNDATASIZE PUSH1 0x0 REVERT JUMPDEST POP SWAP1 POP DUP1 PUSH20 0xFFFFFFFFFFFFFFFFFFFFFFFFFFFFFFFFFFFFFFFF AND PUSH4 0x17C2B39F PUSH1 0x1E PUSH1 0x40 MLOAD DUP3 PUSH4 0xFFFFFFFF AND PUSH1 0xE0 SHL DUP2 MSTORE PUSH1 0x4 ADD PUSH2 0xA1 SWAP2 SWAP1 PUSH2 0xF2 JUMP JUMPDEST PUSH1 0x0 PUSH1 0x40 MLOAD DUP1 DUP4 SUB DUP2 PUSH1 0x0 DUP8 DUP1 EXTCODESIZE ISZERO DUP1 ISZERO PUSH2 0xBB JUMPI PUSH1 0x0 DUP1 REVERT JUMPDEST POP GAS CALL ISZERO DUP1 ISZERO PUSH2 0xCF JUMPI RETURNDATASIZE PUSH1 0x0 DUP1 RETURNDATACOPY RETURNDATASIZE PUSH1 0x0 REVERT JUMPDEST POP POP POP POP POP JUMP JUMPDEST PUSH2 0x416 DUP1 PUSH2 0x12A DUP4 CODECOPY ADD SWAP1 JUMP JUMPDEST PUSH2 0xEC DUP2 PUSH2 0x117 JUMP JUMPDEST DUP3 MSTORE POP POP JUMP JUMPDEST PUSH1 0x0 PUSH1 0x20 DUP3 ADD SWAP1 POP PUSH2 0x107 PUSH1 0x0 DUP4 ADD DUP5 PUSH2 0xE3 JUMP JUMPDEST SWAP3 SWAP2 POP POP JUMP JUMPDEST PUSH1 0x0 DUP2 SWAP1 POP SWAP2 SWAP1 POP JUMP JUMPDEST PUSH1 0x0 PUSH2 0x122 DUP3 PUSH2 0x10D JUMP JUMPDEST SWAP1 POP SWAP2 SWAP1 POP JUMP INVALID PUSH1 0x80 PUSH1 0x40 MSTORE CALLVALUE DUP1 ISZERO PUSH2 0x10 JUMPI PUSH1 0x0 DUP1 REVERT JUMPDEST POP PUSH2 0x3F6 DUP1 PUSH2 0x20 PUSH1 0x0 CODECOPY PUSH1 0x0 RETURN INVALID PUSH1 0x80 PUSH1 0x40 MSTORE PUSH1 0x4 CALLDATASIZE LT PUSH2 0x34 JUMPI PUSH1 0x0 CALLDATALOAD PUSH1 0xE0 SHR DUP1 PUSH4 0x17C2B39F EQ PUSH2 0x39 JUMPI DUP1 PUSH4 0x27E235E3 EQ PUSH2 0x62 JUMPI DUP1 PUSH4 0xD0E30DB0 EQ PUSH2 0x9F JUMPI JUMPDEST PUSH1 0x0 DUP1 REVERT JUMPDEST CALLVALUE DUP1 ISZERO PUSH2 0x45 JUMPI PUSH1 0x0 DUP1 REVERT JUMPDEST POP PUSH2 0x60 PUSH1 0x4 DUP1 CALLDATASIZE SUB DUP2 ADD SWAP1 PUSH2 0x5B SWAP2 SWAP1 PUSH2 0x1F8 JUMP JUMPDEST PUSH2 0xA9 JUMP JUMPDEST STOP JUMPDEST CALLVALUE DUP1 ISZERO PUSH2 0x6E JUMPI PUSH1 0x0 DUP1 REVERT JUMPDEST POP PUSH2 0x89 PUSH1 0x4 DUP1 CALLDATASIZE SUB DUP2 ADD SWAP1 PUSH2 0x84 SWAP2 SWAP1 PUSH2 0x1CB JUMP JUMPDEST PUSH2 0xEF JUMP JUMPDEST PUSH1 0x40 MLOAD PUSH2 0x96 SWAP2 SWAP1 PUSH2 0x277 JUMP JUMPDEST PUSH1 0x40 MLOAD DUP1 SWAP2 SUB SWAP1 RETURN JUMPDEST PUSH2 0xA7 PUSH2 0x107 JUMP JUMPDEST STOP JUMPDEST DUP1 PUSH1 0x0 DUP1 CALLER PUSH20 0xFFFFFFFFFFFFFFFFFFFFFFFFFFFFFFFFFFFFFFFF AND PUSH20 0xFFFFFFFFFFFFFFFFFFFFFFFFFFFFFFFFFFFFFFFF AND DUP2 MSTORE PUSH1 0x20 ADD SWAP1 DUP2 MSTORE PUSH1 0x20 ADD PUSH1 0x0 KECCAK256 DUP2 SWAP1 SSTORE POP POP JUMP JUMPDEST PUSH1 0x0 PUSH1 0x20 MSTORE DUP1 PUSH1 0x0 MSTORE PUSH1 0x40 PUSH1 0x0 KECCAK256 PUSH1 0x0 SWAP2 POP SWAP1 POP SLOAD DUP2 JUMP JUMPDEST PUSH1 0x0 CALLVALUE GT PUSH2 0x14A JUMPI PUSH1 0x40 MLOAD PUSH32 0x8C379A000000000000000000000000000000000000000000000000000000000 DUP2 MSTORE PUSH1 0x4 ADD PUSH2 0x141 SWAP1 PUSH2 0x257 JUMP JUMPDEST PUSH1 0x40 MLOAD DUP1 SWAP2 SUB SWAP1 REVERT JUMPDEST CALLVALUE PUSH1 0x0 DUP1 CALLER PUSH20 0xFFFFFFFFFFFFFFFFFFFFFFFFFFFFFFFFFFFFFFFF AND PUSH20 0xFFFFFFFFFFFFFFFFFFFFFFFFFFFFFFFFFFFFFFFF AND DUP2 MSTORE PUSH1 0x20 ADD SWAP1 DUP2 MSTORE PUSH1 0x20 ADD PUSH1 0x0 KECCAK256 PUSH1 0x0 DUP3 DUP3 SLOAD PUSH2 0x198 SWAP2 SWAP1 PUSH2 0x2A3 JUMP JUMPDEST SWAP3 POP POP DUP2 SWAP1 SSTORE POP JUMP JUMPDEST PUSH1 0x0 DUP2 CALLDATALOAD SWAP1 POP PUSH2 0x1B0 DUP2 PUSH2 0x392 JUMP JUMPDEST SWAP3 SWAP2 POP POP JUMP JUMPDEST PUSH1 0x0 DUP2 CALLDATALOAD SWAP1 POP PUSH2 0x1C5 DUP2 PUSH2 0x3A9 JUMP JUMPDEST SWAP3 SWAP2 POP POP JUMP JUMPDEST PUSH1 0x0 PUSH1 0x20 DUP3 DUP5 SUB SLT ISZERO PUSH2 0x1E1 JUMPI PUSH2 0x1E0 PUSH2 0x364 JUMP JUMPDEST JUMPDEST PUSH1 0x0 PUSH2 0x1EF DUP5 DUP3 DUP6 ADD PUSH2 0x1A1 JUMP JUMPDEST SWAP2 POP POP SWAP3 SWAP2 POP POP JUMP JUMPDEST PUSH1 0x0 PUSH1 0x20 DUP3 DUP5 SUB SLT ISZERO PUSH2 0x20E JUMPI PUSH2 0x20D PUSH2 0x364 JUMP JUMPDEST JUMPDEST PUSH1 0x0 PUSH2 0x21C DUP5 DUP3 DUP6 ADD PUSH2 0x1B6 JUMP JUMPDEST SWAP2 POP POP SWAP3 SWAP2 POP POP JUMP JUMPDEST PUSH1 0x0 PUSH2 0x232 PUSH1 0x12 DUP4 PUSH2 0x292 JUMP JUMPDEST SWAP2 POP PUSH2 0x23D DUP3 PUSH2 0x369 JUMP JUMPDEST PUSH1 0x20 DUP3 ADD SWAP1 POP SWAP2 SWAP1 POP JUMP JUMPDEST PUSH2 0x251 DUP2 PUSH2 0x32B JUMP JUMPDEST DUP3 MSTORE POP POP JUMP JUMPDEST PUSH1 0x0 PUSH1 0x20 DUP3 ADD SWAP1 POP DUP2 DUP2 SUB PUSH1 0x0 DUP4 ADD MSTORE PUSH2 0x270 DUP2 PUSH2 0x225 JUMP JUMPDEST SWAP1 POP SWAP2 SWAP1 POP JUMP JUMPDEST PUSH1 0x0 PUSH1 0x20 DUP3 ADD SWAP1 POP PUSH2 0x28C PUSH1 0x0 DUP4 ADD DUP5 PUSH2 0x248 JUMP JUMPDEST SWAP3 SWAP2 POP POP JUMP JUMPDEST PUSH1 0x0 DUP3 DUP3 MSTORE PUSH1 0x20 DUP3 ADD SWAP1 POP SWAP3 SWAP2 POP POP JUMP JUMPDEST PUSH1 0x0 PUSH2 0x2AE DUP3 PUSH2 0x32B JUMP JUMPDEST SWAP2 POP PUSH2 0x2B9 DUP4 PUSH2 0x32B JUMP JUMPDEST SWAP3 POP DUP3 PUSH32 0xFFFFFFFFFFFFFFFFFFFFFFFFFFFFFFFFFFFFFFFFFFFFFFFFFFFFFFFFFFFFFFFF SUB DUP3 GT ISZERO PUSH2 0x2EE JUMPI PUSH2 0x2ED PUSH2 0x335 JUMP JUMPDEST JUMPDEST DUP3 DUP3 ADD SWAP1 POP SWAP3 SWAP2 POP POP JUMP JUMPDEST PUSH1 0x0 PUSH2 0x304 DUP3 PUSH2 0x30B JUMP JUMPDEST SWAP1 POP SWAP2 SWAP1 POP JUMP JUMPDEST PUSH1 0x0 PUSH20 0xFFFFFFFFFFFFFFFFFFFFFFFFFFFFFFFFFFFFFFFF DUP3 AND SWAP1 POP SWAP2 SWAP1 POP JUMP JUMPDEST PUSH1 0x0 DUP2 SWAP1 POP SWAP2 SWAP1 POP JUMP JUMPDEST PUSH32 0x4E487B7100000000000000000000000000000000000000000000000000000000 PUSH1 0x0 MSTORE PUSH1 0x11 PUSH1 0x4 MSTORE PUSH1 0x24 PUSH1 0x0 REVERT JUMPDEST PUSH1 0x0 DUP1 REVERT JUMPDEST PUSH32 0x696E73756666696369656E742066756E64730000000000000000000000000000 PUSH1 0x0 DUP3 ADD MSTORE POP JUMP JUMPDEST PUSH2 0x39B DUP2 PUSH2 0x2F9 JUMP JUMPDEST DUP2 EQ PUSH2 0x3A6 JUMPI PUSH1 0x0 DUP1 REVERT JUMPDEST POP JUMP JUMPDEST PUSH2 0x3B2 DUP2 PUSH2 0x32B JUMP JUMPDEST DUP2 EQ PUSH2 0x3BD JUMPI PUSH1 0x0 DUP1 REVERT JUMPDEST POP JUMP INVALID LOG2 PUSH5 0x6970667358 0x22 SLT KECCAK256 0xB9 0xC9 CALLDATACOPY 0xC9 0xDC SELFDESTRUCT 0xD6 0xAF 0x2C EQ 0x28 CALL 0xDD 0xC7 0xBA DUP9 SLT 0xAD DUP6 SLOAD 0xD 0xC7 0xB0 0x1F 0xE5 CHAINID LOG0 KECCAK256 0xD8 OR 0xB0 SWAP3 PUSH5 0x736F6C6343 STOP ADDMOD SMOD STOP CALLER LOG2 PUSH5 0x6970667358 0x22 SLT KECCAK256 0xA9 0xF 0xDD PUSH10 0x67E4C3A2978683233509 0xD7 0xA5 PUSH14 0x37DB3B3B5207FAF545FE85F76720 0xC9 PUSH5 0x736F6C6343 STOP ADDMOD SMOD STOP CALLER "
				},
				"gasEstimates": {
					"creation": {
						"codeDepositCost": "279400",
						"executionCost": "318",
						"totalCost": "279718"
					},
					"external": {
						"updatesBalance()": "infinite"
					}
				},
				"methodIdentifiers": {
					"updatesBalance()": "22a39bfc"
				}
			},
			"storageLayout": {
				"storage": [],
				"types": null
			},
			"userdoc": {
				"kind": "user",
				"methods": {},
				"version": 1
			}
		}
	}
}