{
	"debug-assignment.sol": {
		"learnFunctions": {
			"abi": [
				{
					"inputs": [
						{
							"internalType": "uint256",
							"name": "b",
							"type": "uint256"
						}
					],
					"name": "addNewValues",
					"outputs": [
						{
							"internalType": "uint256",
							"name": "",
							"type": "uint256"
						}
					],
					"stateMutability": "view",
					"type": "function"
				},
				{
					"inputs": [
						{
							"internalType": "uint256",
							"name": "b",
							"type": "uint256"
						}
					],
					"name": "addfValues",
					"outputs": [
						{
							"internalType": "uint256",
							"name": "",
							"type": "uint256"
						}
					],
					"stateMutability": "view",
					"type": "function"
				},
				{
					"inputs": [
						{
							"internalType": "uint256",
							"name": "a",
							"type": "uint256"
						}
					],
					"name": "divideCalculatorByFour",
					"outputs": [
						{
							"internalType": "uint256",
							"name": "",
							"type": "uint256"
						}
					],
					"stateMutability": "view",
					"type": "function"
				},
				{
					"inputs": [
						{
							"internalType": "uint256",
							"name": "a",
							"type": "uint256"
						}
					],
					"name": "multiplyCalculatorByFour",
					"outputs": [
						{
							"internalType": "uint256",
							"name": "",
							"type": "uint256"
						}
					],
					"stateMutability": "view",
					"type": "function"
				},
				{
					"inputs": [
						{
							"internalType": "bool",
							"name": "closedDoor",
							"type": "bool"
						},
						{
							"internalType": "bool",
							"name": "openDoor",
							"type": "bool"
						}
					],
					"name": "remoteControlOpen",
					"outputs": [
						{
							"internalType": "bool",
							"name": "",
							"type": "bool"
						}
					],
					"stateMutability": "nonpayable",
					"type": "function"
				}
			],
			"devdoc": {
				"kind": "dev",
				"methods": {},
				"version": 1
			},
			"evm": {
				"assembly": "    /* \"debug-assignment.sol\":587:1400  contract learnFunctions {... */\n  mstore(0x40, 0x80)\n    /* \"debug-assignment.sol\":816:818  45 */\n  0x2d\n    /* \"debug-assignment.sol\":807:818  uint a = 45 */\n  0x00\n  sstore\n    /* \"debug-assignment.sol\":1118:1119  4 */\n  0x04\n    /* \"debug-assignment.sol\":1110:1119  uint b =4 */\n  0x01\n  sstore\n    /* \"debug-assignment.sol\":587:1400  contract learnFunctions {... */\n  callvalue\n  dup1\n  iszero\n  tag_1\n  jumpi\n  0x00\n  dup1\n  revert\ntag_1:\n  pop\n  dataSize(sub_0)\n  dup1\n  dataOffset(sub_0)\n  0x00\n  codecopy\n  0x00\n  return\nstop\n\nsub_0: assembly {\n        /* \"debug-assignment.sol\":587:1400  contract learnFunctions {... */\n      mstore(0x40, 0x80)\n      callvalue\n      dup1\n      iszero\n      tag_1\n      jumpi\n      0x00\n      dup1\n      revert\n    tag_1:\n      pop\n      jumpi(tag_2, lt(calldatasize, 0x04))\n      shr(0xe0, calldataload(0x00))\n      dup1\n      0x67dcaf8d\n      eq\n      tag_3\n      jumpi\n      dup1\n      0x8292888e\n      eq\n      tag_4\n      jumpi\n      dup1\n      0xb93c0937\n      eq\n      tag_5\n      jumpi\n      dup1\n      0xc5a79f70\n      eq\n      tag_6\n      jumpi\n      dup1\n      0xf3b7e983\n      eq\n      tag_7\n      jumpi\n    tag_2:\n      0x00\n      dup1\n      revert\n        /* \"debug-assignment.sol\":965:1096  function addNewValues(uint b) public view returns (uint) {... */\n    tag_3:\n      tag_8\n      0x04\n      dup1\n      calldatasize\n      sub\n      dup2\n      add\n      swap1\n      tag_9\n      swap2\n      swap1\n      tag_10\n      jump\t// in\n    tag_9:\n      tag_11\n      jump\t// in\n    tag_8:\n      mload(0x40)\n      tag_12\n      swap2\n      swap1\n      tag_13\n      jump\t// in\n    tag_12:\n      mload(0x40)\n      dup1\n      swap2\n      sub\n      swap1\n      return\n        /* \"debug-assignment.sol\":1268:1394  function divideCalculatorByFour(uint a) public view returns (uint) {... */\n    tag_4:\n      tag_14\n      0x04\n      dup1\n      calldatasize\n      sub\n      dup2\n      add\n      swap1\n      tag_15\n      swap2\n      swap1\n      tag_10\n      jump\t// in\n    tag_15:\n      tag_16\n      jump\t// in\n    tag_14:\n      mload(0x40)\n      tag_17\n      swap2\n      swap1\n      tag_13\n      jump\t// in\n    tag_17:\n      mload(0x40)\n      dup1\n      swap2\n      sub\n      swap1\n      return\n        /* \"debug-assignment.sol\":625:800  function remoteControlOpen ( bool closedDoor, bool openDoor ) public returns(bool) ... */\n    tag_5:\n      tag_18\n      0x04\n      dup1\n      calldatasize\n      sub\n      dup2\n      add\n      swap1\n      tag_19\n      swap2\n      swap1\n      tag_20\n      jump\t// in\n    tag_19:\n      tag_21\n      jump\t// in\n    tag_18:\n      mload(0x40)\n      tag_22\n      swap2\n      swap1\n      tag_23\n      jump\t// in\n    tag_22:\n      mload(0x40)\n      dup1\n      swap2\n      sub\n      swap1\n      return\n        /* \"debug-assignment.sol\":1132:1258  function multiplyCalculatorByFour(uint a) public view returns(uint){... */\n    tag_6:\n      tag_24\n      0x04\n      dup1\n      calldatasize\n      sub\n      dup2\n      add\n      swap1\n      tag_25\n      swap2\n      swap1\n      tag_10\n      jump\t// in\n    tag_25:\n      tag_26\n      jump\t// in\n    tag_24:\n      mload(0x40)\n      tag_27\n      swap2\n      swap1\n      tag_13\n      jump\t// in\n    tag_27:\n      mload(0x40)\n      dup1\n      swap2\n      sub\n      swap1\n      return\n        /* \"debug-assignment.sol\":824:953  function addfValues(uint b) public view returns(uint){... */\n    tag_7:\n      tag_28\n      0x04\n      dup1\n      calldatasize\n      sub\n      dup2\n      add\n      swap1\n      tag_29\n      swap2\n      swap1\n      tag_10\n      jump\t// in\n    tag_29:\n      tag_30\n      jump\t// in\n    tag_28:\n      mload(0x40)\n      tag_31\n      swap2\n      swap1\n      tag_13\n      jump\t// in\n    tag_31:\n      mload(0x40)\n      dup1\n      swap2\n      sub\n      swap1\n      return\n        /* \"debug-assignment.sol\":965:1096  function addNewValues(uint b) public view returns (uint) {... */\n    tag_11:\n        /* \"debug-assignment.sol\":1016:1020  uint */\n      0x00\n        /* \"debug-assignment.sol\":1033:1039  uint b */\n      dup1\n        /* \"debug-assignment.sol\":1042:1043  5 */\n      0x05\n        /* \"debug-assignment.sol\":1033:1043  uint b = 5 */\n      swap1\n      pop\n        /* \"debug-assignment.sol\":1052:1063  uint result */\n      0x00\n        /* \"debug-assignment.sol\":1070:1071  b */\n      dup2\n        /* \"debug-assignment.sol\":1066:1067  a */\n      sload(0x00)\n        /* \"debug-assignment.sol\":1066:1071  a + b */\n      tag_33\n      swap2\n      swap1\n      tag_34\n      jump\t// in\n    tag_33:\n        /* \"debug-assignment.sol\":1052:1071  uint result = a + b */\n      swap1\n      pop\n        /* \"debug-assignment.sol\":1087:1093  result */\n      dup1\n        /* \"debug-assignment.sol\":1080:1093  return result */\n      swap3\n      pop\n      pop\n      pop\n        /* \"debug-assignment.sol\":965:1096  function addNewValues(uint b) public view returns (uint) {... */\n      swap2\n      swap1\n      pop\n      jump\t// out\n        /* \"debug-assignment.sol\":1268:1394  function divideCalculatorByFour(uint a) public view returns (uint) {... */\n    tag_16:\n        /* \"debug-assignment.sol\":1329:1333  uint */\n      0x00\n        /* \"debug-assignment.sol\":1345:1356  uint result */\n      dup1\n        /* \"debug-assignment.sol\":1362:1363  b */\n      sload(0x01)\n        /* \"debug-assignment.sol\":1358:1359  a */\n      dup4\n        /* \"debug-assignment.sol\":1358:1363  a / b */\n      tag_36\n      swap2\n      swap1\n      tag_37\n      jump\t// in\n    tag_36:\n        /* \"debug-assignment.sol\":1345:1363  uint result =a / b */\n      swap1\n      pop\n        /* \"debug-assignment.sol\":1381:1387  result */\n      dup1\n        /* \"debug-assignment.sol\":1374:1387  return result */\n      swap2\n      pop\n      pop\n        /* \"debug-assignment.sol\":1268:1394  function divideCalculatorByFour(uint a) public view returns (uint) {... */\n      swap2\n      swap1\n      pop\n      jump\t// out\n        /* \"debug-assignment.sol\":625:800  function remoteControlOpen ( bool closedDoor, bool openDoor ) public returns(bool) ... */\n    tag_21:\n        /* \"debug-assignment.sol\":702:706  bool */\n      0x00\n        /* \"debug-assignment.sol\":734:738  true */\n      0x01\n        /* \"debug-assignment.sol\":722:738  openDoor == true */\n      iszero\n      iszero\n        /* \"debug-assignment.sol\":722:730  openDoor */\n      dup3\n        /* \"debug-assignment.sol\":722:738  openDoor == true */\n      iszero\n      iszero\n      sub\n        /* \"debug-assignment.sol\":717:794  if ( openDoor == true)... */\n      tag_39\n      jumpi\n        /* \"debug-assignment.sol\":761:766  false */\n      0x00\n        /* \"debug-assignment.sol\":754:766  return false */\n      swap1\n      pop\n      jump(tag_38)\n        /* \"debug-assignment.sol\":717:794  if ( openDoor == true)... */\n    tag_39:\n        /* \"debug-assignment.sol\":790:794  true */\n      0x01\n        /* \"debug-assignment.sol\":783:794  return true */\n      swap1\n      pop\n        /* \"debug-assignment.sol\":625:800  function remoteControlOpen ( bool closedDoor, bool openDoor ) public returns(bool) ... */\n    tag_38:\n      swap3\n      swap2\n      pop\n      pop\n      jump\t// out\n        /* \"debug-assignment.sol\":1132:1258  function multiplyCalculatorByFour(uint a) public view returns(uint){... */\n    tag_26:\n        /* \"debug-assignment.sol\":1194:1198  uint */\n      0x00\n        /* \"debug-assignment.sol\":1209:1220  uint result */\n      dup1\n        /* \"debug-assignment.sol\":1227:1228  b */\n      sload(0x01)\n        /* \"debug-assignment.sol\":1223:1224  a */\n      dup4\n        /* \"debug-assignment.sol\":1223:1228  a * b */\n      tag_42\n      swap2\n      swap1\n      tag_43\n      jump\t// in\n    tag_42:\n        /* \"debug-assignment.sol\":1209:1228  uint result = a * b */\n      swap1\n      pop\n        /* \"debug-assignment.sol\":1245:1251  result */\n      dup1\n        /* \"debug-assignment.sol\":1238:1251  return result */\n      swap2\n      pop\n      pop\n        /* \"debug-assignment.sol\":1132:1258  function multiplyCalculatorByFour(uint a) public view returns(uint){... */\n      swap2\n      swap1\n      pop\n      jump\t// out\n        /* \"debug-assignment.sol\":824:953  function addfValues(uint b) public view returns(uint){... */\n    tag_30:\n        /* \"debug-assignment.sol\":872:876  uint */\n      0x00\n        /* \"debug-assignment.sol\":886:892  uint b */\n      dup1\n        /* \"debug-assignment.sol\":896:897  3 */\n      0x03\n        /* \"debug-assignment.sol\":886:897  uint b  = 3 */\n      swap1\n      pop\n        /* \"debug-assignment.sol\":906:917  uint result */\n      0x00\n        /* \"debug-assignment.sol\":924:925  b */\n      dup2\n        /* \"debug-assignment.sol\":920:921  a */\n      sload(0x00)\n        /* \"debug-assignment.sol\":920:925  a + b */\n      tag_45\n      swap2\n      swap1\n      tag_34\n      jump\t// in\n    tag_45:\n        /* \"debug-assignment.sol\":906:925  uint result = a + b */\n      swap1\n      pop\n        /* \"debug-assignment.sol\":941:947  result */\n      dup1\n        /* \"debug-assignment.sol\":934:947  return result */\n      swap3\n      pop\n      pop\n      pop\n        /* \"debug-assignment.sol\":824:953  function addfValues(uint b) public view returns(uint){... */\n      swap2\n      swap1\n      pop\n      jump\t// out\n        /* \"#utility.yul\":88:205   */\n    tag_47:\n        /* \"#utility.yul\":197:198   */\n      0x00\n        /* \"#utility.yul\":194:195   */\n      dup1\n        /* \"#utility.yul\":187:199   */\n      revert\n        /* \"#utility.yul\":334:411   */\n    tag_49:\n        /* \"#utility.yul\":371:378   */\n      0x00\n        /* \"#utility.yul\":400:405   */\n      dup2\n        /* \"#utility.yul\":389:405   */\n      swap1\n      pop\n        /* \"#utility.yul\":334:411   */\n      swap2\n      swap1\n      pop\n      jump\t// out\n        /* \"#utility.yul\":417:539   */\n    tag_50:\n        /* \"#utility.yul\":490:514   */\n      tag_65\n        /* \"#utility.yul\":508:513   */\n      dup2\n        /* \"#utility.yul\":490:514   */\n      tag_49\n      jump\t// in\n    tag_65:\n        /* \"#utility.yul\":483:488   */\n      dup2\n        /* \"#utility.yul\":480:515   */\n      eq\n        /* \"#utility.yul\":470:533   */\n      tag_66\n      jumpi\n        /* \"#utility.yul\":529:530   */\n      0x00\n        /* \"#utility.yul\":526:527   */\n      dup1\n        /* \"#utility.yul\":519:531   */\n      revert\n        /* \"#utility.yul\":470:533   */\n    tag_66:\n        /* \"#utility.yul\":417:539   */\n      pop\n      jump\t// out\n        /* \"#utility.yul\":545:684   */\n    tag_51:\n        /* \"#utility.yul\":591:596   */\n      0x00\n        /* \"#utility.yul\":629:635   */\n      dup2\n        /* \"#utility.yul\":616:636   */\n      calldataload\n        /* \"#utility.yul\":607:636   */\n      swap1\n      pop\n        /* \"#utility.yul\":645:678   */\n      tag_68\n        /* \"#utility.yul\":672:677   */\n      dup2\n        /* \"#utility.yul\":645:678   */\n      tag_50\n      jump\t// in\n    tag_68:\n        /* \"#utility.yul\":545:684   */\n      swap3\n      swap2\n      pop\n      pop\n      jump\t// out\n        /* \"#utility.yul\":690:1019   */\n    tag_10:\n        /* \"#utility.yul\":749:755   */\n      0x00\n        /* \"#utility.yul\":798:800   */\n      0x20\n        /* \"#utility.yul\":786:795   */\n      dup3\n        /* \"#utility.yul\":777:784   */\n      dup5\n        /* \"#utility.yul\":773:796   */\n      sub\n        /* \"#utility.yul\":769:801   */\n      slt\n        /* \"#utility.yul\":766:885   */\n      iszero\n      tag_70\n      jumpi\n        /* \"#utility.yul\":804:883   */\n      tag_71\n      tag_47\n      jump\t// in\n    tag_71:\n        /* \"#utility.yul\":766:885   */\n    tag_70:\n        /* \"#utility.yul\":924:925   */\n      0x00\n        /* \"#utility.yul\":949:1002   */\n      tag_72\n        /* \"#utility.yul\":994:1001   */\n      dup5\n        /* \"#utility.yul\":985:991   */\n      dup3\n        /* \"#utility.yul\":974:983   */\n      dup6\n        /* \"#utility.yul\":970:992   */\n      add\n        /* \"#utility.yul\":949:1002   */\n      tag_51\n      jump\t// in\n    tag_72:\n        /* \"#utility.yul\":939:1002   */\n      swap2\n      pop\n        /* \"#utility.yul\":895:1012   */\n      pop\n        /* \"#utility.yul\":690:1019   */\n      swap3\n      swap2\n      pop\n      pop\n      jump\t// out\n        /* \"#utility.yul\":1025:1143   */\n    tag_52:\n        /* \"#utility.yul\":1112:1136   */\n      tag_74\n        /* \"#utility.yul\":1130:1135   */\n      dup2\n        /* \"#utility.yul\":1112:1136   */\n      tag_49\n      jump\t// in\n    tag_74:\n        /* \"#utility.yul\":1107:1110   */\n      dup3\n        /* \"#utility.yul\":1100:1137   */\n      mstore\n        /* \"#utility.yul\":1025:1143   */\n      pop\n      pop\n      jump\t// out\n        /* \"#utility.yul\":1149:1371   */\n    tag_13:\n        /* \"#utility.yul\":1242:1246   */\n      0x00\n        /* \"#utility.yul\":1280:1282   */\n      0x20\n        /* \"#utility.yul\":1269:1278   */\n      dup3\n        /* \"#utility.yul\":1265:1283   */\n      add\n        /* \"#utility.yul\":1257:1283   */\n      swap1\n      pop\n        /* \"#utility.yul\":1293:1364   */\n      tag_76\n        /* \"#utility.yul\":1361:1362   */\n      0x00\n        /* \"#utility.yul\":1350:1359   */\n      dup4\n        /* \"#utility.yul\":1346:1363   */\n      add\n        /* \"#utility.yul\":1337:1343   */\n      dup5\n        /* \"#utility.yul\":1293:1364   */\n      tag_52\n      jump\t// in\n    tag_76:\n        /* \"#utility.yul\":1149:1371   */\n      swap3\n      swap2\n      pop\n      pop\n      jump\t// out\n        /* \"#utility.yul\":1377:1467   */\n    tag_53:\n        /* \"#utility.yul\":1411:1418   */\n      0x00\n        /* \"#utility.yul\":1454:1459   */\n      dup2\n        /* \"#utility.yul\":1447:1460   */\n      iszero\n        /* \"#utility.yul\":1440:1461   */\n      iszero\n        /* \"#utility.yul\":1429:1461   */\n      swap1\n      pop\n        /* \"#utility.yul\":1377:1467   */\n      swap2\n      swap1\n      pop\n      jump\t// out\n        /* \"#utility.yul\":1473:1589   */\n    tag_54:\n        /* \"#utility.yul\":1543:1564   */\n      tag_79\n        /* \"#utility.yul\":1558:1563   */\n      dup2\n        /* \"#utility.yul\":1543:1564   */\n      tag_53\n      jump\t// in\n    tag_79:\n        /* \"#utility.yul\":1536:1541   */\n      dup2\n        /* \"#utility.yul\":1533:1565   */\n      eq\n        /* \"#utility.yul\":1523:1583   */\n      tag_80\n      jumpi\n        /* \"#utility.yul\":1579:1580   */\n      0x00\n        /* \"#utility.yul\":1576:1577   */\n      dup1\n        /* \"#utility.yul\":1569:1581   */\n      revert\n        /* \"#utility.yul\":1523:1583   */\n    tag_80:\n        /* \"#utility.yul\":1473:1589   */\n      pop\n      jump\t// out\n        /* \"#utility.yul\":1595:1728   */\n    tag_55:\n        /* \"#utility.yul\":1638:1643   */\n      0x00\n        /* \"#utility.yul\":1676:1682   */\n      dup2\n        /* \"#utility.yul\":1663:1683   */\n      calldataload\n        /* \"#utility.yul\":1654:1683   */\n      swap1\n      pop\n        /* \"#utility.yul\":1692:1722   */\n      tag_82\n        /* \"#utility.yul\":1716:1721   */\n      dup2\n        /* \"#utility.yul\":1692:1722   */\n      tag_54\n      jump\t// in\n    tag_82:\n        /* \"#utility.yul\":1595:1728   */\n      swap3\n      swap2\n      pop\n      pop\n      jump\t// out\n        /* \"#utility.yul\":1734:2196   */\n    tag_20:\n        /* \"#utility.yul\":1796:1802   */\n      0x00\n        /* \"#utility.yul\":1804:1810   */\n      dup1\n        /* \"#utility.yul\":1853:1855   */\n      0x40\n        /* \"#utility.yul\":1841:1850   */\n      dup4\n        /* \"#utility.yul\":1832:1839   */\n      dup6\n        /* \"#utility.yul\":1828:1851   */\n      sub\n        /* \"#utility.yul\":1824:1856   */\n      slt\n        /* \"#utility.yul\":1821:1940   */\n      iszero\n      tag_84\n      jumpi\n        /* \"#utility.yul\":1859:1938   */\n      tag_85\n      tag_47\n      jump\t// in\n    tag_85:\n        /* \"#utility.yul\":1821:1940   */\n    tag_84:\n        /* \"#utility.yul\":1979:1980   */\n      0x00\n        /* \"#utility.yul\":2004:2054   */\n      tag_86\n        /* \"#utility.yul\":2046:2053   */\n      dup6\n        /* \"#utility.yul\":2037:2043   */\n      dup3\n        /* \"#utility.yul\":2026:2035   */\n      dup7\n        /* \"#utility.yul\":2022:2044   */\n      add\n        /* \"#utility.yul\":2004:2054   */\n      tag_55\n      jump\t// in\n    tag_86:\n        /* \"#utility.yul\":1994:2054   */\n      swap3\n      pop\n        /* \"#utility.yul\":1950:2064   */\n      pop\n        /* \"#utility.yul\":2103:2105   */\n      0x20\n        /* \"#utility.yul\":2129:2179   */\n      tag_87\n        /* \"#utility.yul\":2171:2178   */\n      dup6\n        /* \"#utility.yul\":2162:2168   */\n      dup3\n        /* \"#utility.yul\":2151:2160   */\n      dup7\n        /* \"#utility.yul\":2147:2169   */\n      add\n        /* \"#utility.yul\":2129:2179   */\n      tag_55\n      jump\t// in\n    tag_87:\n        /* \"#utility.yul\":2119:2179   */\n      swap2\n      pop\n        /* \"#utility.yul\":2074:2189   */\n      pop\n        /* \"#utility.yul\":1734:2196   */\n      swap3\n      pop\n      swap3\n      swap1\n      pop\n      jump\t// out\n        /* \"#utility.yul\":2202:2311   */\n    tag_56:\n        /* \"#utility.yul\":2283:2304   */\n      tag_89\n        /* \"#utility.yul\":2298:2303   */\n      dup2\n        /* \"#utility.yul\":2283:2304   */\n      tag_53\n      jump\t// in\n    tag_89:\n        /* \"#utility.yul\":2278:2281   */\n      dup3\n        /* \"#utility.yul\":2271:2305   */\n      mstore\n        /* \"#utility.yul\":2202:2311   */\n      pop\n      pop\n      jump\t// out\n        /* \"#utility.yul\":2317:2527   */\n    tag_23:\n        /* \"#utility.yul\":2404:2408   */\n      0x00\n        /* \"#utility.yul\":2442:2444   */\n      0x20\n        /* \"#utility.yul\":2431:2440   */\n      dup3\n        /* \"#utility.yul\":2427:2445   */\n      add\n        /* \"#utility.yul\":2419:2445   */\n      swap1\n      pop\n        /* \"#utility.yul\":2455:2520   */\n      tag_91\n        /* \"#utility.yul\":2517:2518   */\n      0x00\n        /* \"#utility.yul\":2506:2515   */\n      dup4\n        /* \"#utility.yul\":2502:2519   */\n      add\n        /* \"#utility.yul\":2493:2499   */\n      dup5\n        /* \"#utility.yul\":2455:2520   */\n      tag_56\n      jump\t// in\n    tag_91:\n        /* \"#utility.yul\":2317:2527   */\n      swap3\n      swap2\n      pop\n      pop\n      jump\t// out\n        /* \"#utility.yul\":2533:2713   */\n    tag_57:\n        /* \"#utility.yul\":2581:2658   */\n      0x4e487b7100000000000000000000000000000000000000000000000000000000\n        /* \"#utility.yul\":2578:2579   */\n      0x00\n        /* \"#utility.yul\":2571:2659   */\n      mstore\n        /* \"#utility.yul\":2678:2682   */\n      0x11\n        /* \"#utility.yul\":2675:2676   */\n      0x04\n        /* \"#utility.yul\":2668:2683   */\n      mstore\n        /* \"#utility.yul\":2702:2706   */\n      0x24\n        /* \"#utility.yul\":2699:2700   */\n      0x00\n        /* \"#utility.yul\":2692:2707   */\n      revert\n        /* \"#utility.yul\":2719:2910   */\n    tag_34:\n        /* \"#utility.yul\":2759:2762   */\n      0x00\n        /* \"#utility.yul\":2778:2798   */\n      tag_94\n        /* \"#utility.yul\":2796:2797   */\n      dup3\n        /* \"#utility.yul\":2778:2798   */\n      tag_49\n      jump\t// in\n    tag_94:\n        /* \"#utility.yul\":2773:2798   */\n      swap2\n      pop\n        /* \"#utility.yul\":2812:2832   */\n      tag_95\n        /* \"#utility.yul\":2830:2831   */\n      dup4\n        /* \"#utility.yul\":2812:2832   */\n      tag_49\n      jump\t// in\n    tag_95:\n        /* \"#utility.yul\":2807:2832   */\n      swap3\n      pop\n        /* \"#utility.yul\":2855:2856   */\n      dup3\n        /* \"#utility.yul\":2852:2853   */\n      dup3\n        /* \"#utility.yul\":2848:2857   */\n      add\n        /* \"#utility.yul\":2841:2857   */\n      swap1\n      pop\n        /* \"#utility.yul\":2876:2879   */\n      dup1\n        /* \"#utility.yul\":2873:2874   */\n      dup3\n        /* \"#utility.yul\":2870:2880   */\n      gt\n        /* \"#utility.yul\":2867:2903   */\n      iszero\n      tag_96\n      jumpi\n        /* \"#utility.yul\":2883:2901   */\n      tag_97\n      tag_57\n      jump\t// in\n    tag_97:\n        /* \"#utility.yul\":2867:2903   */\n    tag_96:\n        /* \"#utility.yul\":2719:2910   */\n      swap3\n      swap2\n      pop\n      pop\n      jump\t// out\n        /* \"#utility.yul\":2916:3096   */\n    tag_58:\n        /* \"#utility.yul\":2964:3041   */\n      0x4e487b7100000000000000000000000000000000000000000000000000000000\n        /* \"#utility.yul\":2961:2962   */\n      0x00\n        /* \"#utility.yul\":2954:3042   */\n      mstore\n        /* \"#utility.yul\":3061:3065   */\n      0x12\n        /* \"#utility.yul\":3058:3059   */\n      0x04\n        /* \"#utility.yul\":3051:3066   */\n      mstore\n        /* \"#utility.yul\":3085:3089   */\n      0x24\n        /* \"#utility.yul\":3082:3083   */\n      0x00\n        /* \"#utility.yul\":3075:3090   */\n      revert\n        /* \"#utility.yul\":3102:3287   */\n    tag_37:\n        /* \"#utility.yul\":3142:3143   */\n      0x00\n        /* \"#utility.yul\":3159:3179   */\n      tag_100\n        /* \"#utility.yul\":3177:3178   */\n      dup3\n        /* \"#utility.yul\":3159:3179   */\n      tag_49\n      jump\t// in\n    tag_100:\n        /* \"#utility.yul\":3154:3179   */\n      swap2\n      pop\n        /* \"#utility.yul\":3193:3213   */\n      tag_101\n        /* \"#utility.yul\":3211:3212   */\n      dup4\n        /* \"#utility.yul\":3193:3213   */\n      tag_49\n      jump\t// in\n    tag_101:\n        /* \"#utility.yul\":3188:3213   */\n      swap3\n      pop\n        /* \"#utility.yul\":3232:3233   */\n      dup3\n        /* \"#utility.yul\":3222:3257   */\n      tag_102\n      jumpi\n        /* \"#utility.yul\":3237:3255   */\n      tag_103\n      tag_58\n      jump\t// in\n    tag_103:\n        /* \"#utility.yul\":3222:3257   */\n    tag_102:\n        /* \"#utility.yul\":3279:3280   */\n      dup3\n        /* \"#utility.yul\":3276:3277   */\n      dup3\n        /* \"#utility.yul\":3272:3281   */\n      div\n        /* \"#utility.yul\":3267:3281   */\n      swap1\n      pop\n        /* \"#utility.yul\":3102:3287   */\n      swap3\n      swap2\n      pop\n      pop\n      jump\t// out\n        /* \"#utility.yul\":3293:3703   */\n    tag_43:\n        /* \"#utility.yul\":3333:3340   */\n      0x00\n        /* \"#utility.yul\":3356:3376   */\n      tag_105\n        /* \"#utility.yul\":3374:3375   */\n      dup3\n        /* \"#utility.yul\":3356:3376   */\n      tag_49\n      jump\t// in\n    tag_105:\n        /* \"#utility.yul\":3351:3376   */\n      swap2\n      pop\n        /* \"#utility.yul\":3390:3410   */\n      tag_106\n        /* \"#utility.yul\":3408:3409   */\n      dup4\n        /* \"#utility.yul\":3390:3410   */\n      tag_49\n      jump\t// in\n    tag_106:\n        /* \"#utility.yul\":3385:3410   */\n      swap3\n      pop\n        /* \"#utility.yul\":3445:3446   */\n      dup3\n        /* \"#utility.yul\":3442:3443   */\n      dup3\n        /* \"#utility.yul\":3438:3447   */\n      mul\n        /* \"#utility.yul\":3467:3497   */\n      tag_107\n        /* \"#utility.yul\":3485:3496   */\n      dup2\n        /* \"#utility.yul\":3467:3497   */\n      tag_49\n      jump\t// in\n    tag_107:\n        /* \"#utility.yul\":3456:3497   */\n      swap2\n      pop\n        /* \"#utility.yul\":3646:3647   */\n      dup3\n        /* \"#utility.yul\":3637:3644   */\n      dup3\n        /* \"#utility.yul\":3633:3648   */\n      div\n        /* \"#utility.yul\":3630:3631   */\n      dup5\n        /* \"#utility.yul\":3627:3649   */\n      eq\n        /* \"#utility.yul\":3607:3608   */\n      dup4\n        /* \"#utility.yul\":3600:3609   */\n      iszero\n        /* \"#utility.yul\":3580:3663   */\n      or\n        /* \"#utility.yul\":3557:3696   */\n      tag_108\n      jumpi\n        /* \"#utility.yul\":3676:3694   */\n      tag_109\n      tag_57\n      jump\t// in\n    tag_109:\n        /* \"#utility.yul\":3557:3696   */\n    tag_108:\n        /* \"#utility.yul\":3341:3703   */\n      pop\n        /* \"#utility.yul\":3293:3703   */\n      swap3\n      swap2\n      pop\n      pop\n      jump\t// out\n\n    auxdata: 0xa26469706673582212209aae3ea24ecf203b458b0de15cdead4659f6f907e1f2622b4d3c07a7fa5785e864736f6c63430008130033\n}\n",
				"bytecode": {
					"linkReferences": {},
					"object": "6080604052602d600055600460015534801561001a57600080fd5b5061045b8061002a6000396000f3fe608060405234801561001057600080fd5b50600436106100575760003560e01c806367dcaf8d1461005c5780638292888e1461008c578063b93c0937146100bc578063c5a79f70146100ec578063f3b7e9831461011c575b600080fd5b61007660048036038101906100719190610227565b61014c565b6040516100839190610263565b60405180910390f35b6100a660048036038101906100a19190610227565b61016f565b6040516100b39190610263565b60405180910390f35b6100d660048036038101906100d191906102b6565b61018b565b6040516100e39190610305565b60405180910390f35b61010660048036038101906101019190610227565b6101ad565b6040516101139190610263565b60405180910390f35b61013660048036038101906101319190610227565b6101c9565b6040516101439190610263565b60405180910390f35b60008060059050600081600054610163919061034f565b90508092505050919050565b6000806001548361018091906103b2565b905080915050919050565b600060011515821515036101a257600090506101a7565b600190505b92915050565b600080600154836101be91906103e3565b905080915050919050565b600080600390506000816000546101e0919061034f565b90508092505050919050565b600080fd5b6000819050919050565b610204816101f1565b811461020f57600080fd5b50565b600081359050610221816101fb565b92915050565b60006020828403121561023d5761023c6101ec565b5b600061024b84828501610212565b91505092915050565b61025d816101f1565b82525050565b60006020820190506102786000830184610254565b92915050565b60008115159050919050565b6102938161027e565b811461029e57600080fd5b50565b6000813590506102b08161028a565b92915050565b600080604083850312156102cd576102cc6101ec565b5b60006102db858286016102a1565b92505060206102ec858286016102a1565b9150509250929050565b6102ff8161027e565b82525050565b600060208201905061031a60008301846102f6565b92915050565b7f4e487b7100000000000000000000000000000000000000000000000000000000600052601160045260246000fd5b600061035a826101f1565b9150610365836101f1565b925082820190508082111561037d5761037c610320565b5b92915050565b7f4e487b7100000000000000000000000000000000000000000000000000000000600052601260045260246000fd5b60006103bd826101f1565b91506103c8836101f1565b9250826103d8576103d7610383565b5b828204905092915050565b60006103ee826101f1565b91506103f9836101f1565b9250828202610407816101f1565b9150828204841483151761041e5761041d610320565b5b509291505056fea26469706673582212209aae3ea24ecf203b458b0de15cdead4659f6f907e1f2622b4d3c07a7fa5785e864736f6c63430008130033",
					"opcodes": "PUSH1 0x80 PUSH1 0x40 MSTORE PUSH1 0x2D PUSH1 0x0 SSTORE PUSH1 0x4 PUSH1 0x1 SSTORE CALLVALUE DUP1 ISZERO PUSH2 0x1A JUMPI PUSH1 0x0 DUP1 REVERT JUMPDEST POP PUSH2 0x45B DUP1 PUSH2 0x2A PUSH1 0x0 CODECOPY PUSH1 0x0 RETURN INVALID PUSH1 0x80 PUSH1 0x40 MSTORE CALLVALUE DUP1 ISZERO PUSH2 0x10 JUMPI PUSH1 0x0 DUP1 REVERT JUMPDEST POP PUSH1 0x4 CALLDATASIZE LT PUSH2 0x57 JUMPI PUSH1 0x0 CALLDATALOAD PUSH1 0xE0 SHR DUP1 PUSH4 0x67DCAF8D EQ PUSH2 0x5C JUMPI DUP1 PUSH4 0x8292888E EQ PUSH2 0x8C JUMPI DUP1 PUSH4 0xB93C0937 EQ PUSH2 0xBC JUMPI DUP1 PUSH4 0xC5A79F70 EQ PUSH2 0xEC JUMPI DUP1 PUSH4 0xF3B7E983 EQ PUSH2 0x11C JUMPI JUMPDEST PUSH1 0x0 DUP1 REVERT JUMPDEST PUSH2 0x76 PUSH1 0x4 DUP1 CALLDATASIZE SUB DUP2 ADD SWAP1 PUSH2 0x71 SWAP2 SWAP1 PUSH2 0x227 JUMP JUMPDEST PUSH2 0x14C JUMP JUMPDEST PUSH1 0x40 MLOAD PUSH2 0x83 SWAP2 SWAP1 PUSH2 0x263 JUMP JUMPDEST PUSH1 0x40 MLOAD DUP1 SWAP2 SUB SWAP1 RETURN JUMPDEST PUSH2 0xA6 PUSH1 0x4 DUP1 CALLDATASIZE SUB DUP2 ADD SWAP1 PUSH2 0xA1 SWAP2 SWAP1 PUSH2 0x227 JUMP JUMPDEST PUSH2 0x16F JUMP JUMPDEST PUSH1 0x40 MLOAD PUSH2 0xB3 SWAP2 SWAP1 PUSH2 0x263 JUMP JUMPDEST PUSH1 0x40 MLOAD DUP1 SWAP2 SUB SWAP1 RETURN JUMPDEST PUSH2 0xD6 PUSH1 0x4 DUP1 CALLDATASIZE SUB DUP2 ADD SWAP1 PUSH2 0xD1 SWAP2 SWAP1 PUSH2 0x2B6 JUMP JUMPDEST PUSH2 0x18B JUMP JUMPDEST PUSH1 0x40 MLOAD PUSH2 0xE3 SWAP2 SWAP1 PUSH2 0x305 JUMP JUMPDEST PUSH1 0x40 MLOAD DUP1 SWAP2 SUB SWAP1 RETURN JUMPDEST PUSH2 0x106 PUSH1 0x4 DUP1 CALLDATASIZE SUB DUP2 ADD SWAP1 PUSH2 0x101 SWAP2 SWAP1 PUSH2 0x227 JUMP JUMPDEST PUSH2 0x1AD JUMP JUMPDEST PUSH1 0x40 MLOAD PUSH2 0x113 SWAP2 SWAP1 PUSH2 0x263 JUMP JUMPDEST PUSH1 0x40 MLOAD DUP1 SWAP2 SUB SWAP1 RETURN JUMPDEST PUSH2 0x136 PUSH1 0x4 DUP1 CALLDATASIZE SUB DUP2 ADD SWAP1 PUSH2 0x131 SWAP2 SWAP1 PUSH2 0x227 JUMP JUMPDEST PUSH2 0x1C9 JUMP JUMPDEST PUSH1 0x40 MLOAD PUSH2 0x143 SWAP2 SWAP1 PUSH2 0x263 JUMP JUMPDEST PUSH1 0x40 MLOAD DUP1 SWAP2 SUB SWAP1 RETURN JUMPDEST PUSH1 0x0 DUP1 PUSH1 0x5 SWAP1 POP PUSH1 0x0 DUP2 PUSH1 0x0 SLOAD PUSH2 0x163 SWAP2 SWAP1 PUSH2 0x34F JUMP JUMPDEST SWAP1 POP DUP1 SWAP3 POP POP POP SWAP2 SWAP1 POP JUMP JUMPDEST PUSH1 0x0 DUP1 PUSH1 0x1 SLOAD DUP4 PUSH2 0x180 SWAP2 SWAP1 PUSH2 0x3B2 JUMP JUMPDEST SWAP1 POP DUP1 SWAP2 POP POP SWAP2 SWAP1 POP JUMP JUMPDEST PUSH1 0x0 PUSH1 0x1 ISZERO ISZERO DUP3 ISZERO ISZERO SUB PUSH2 0x1A2 JUMPI PUSH1 0x0 SWAP1 POP PUSH2 0x1A7 JUMP JUMPDEST PUSH1 0x1 SWAP1 POP JUMPDEST SWAP3 SWAP2 POP POP JUMP JUMPDEST PUSH1 0x0 DUP1 PUSH1 0x1 SLOAD DUP4 PUSH2 0x1BE SWAP2 SWAP1 PUSH2 0x3E3 JUMP JUMPDEST SWAP1 POP DUP1 SWAP2 POP POP SWAP2 SWAP1 POP JUMP JUMPDEST PUSH1 0x0 DUP1 PUSH1 0x3 SWAP1 POP PUSH1 0x0 DUP2 PUSH1 0x0 SLOAD PUSH2 0x1E0 SWAP2 SWAP1 PUSH2 0x34F JUMP JUMPDEST SWAP1 POP DUP1 SWAP3 POP POP POP SWAP2 SWAP1 POP JUMP JUMPDEST PUSH1 0x0 DUP1 REVERT JUMPDEST PUSH1 0x0 DUP2 SWAP1 POP SWAP2 SWAP1 POP JUMP JUMPDEST PUSH2 0x204 DUP2 PUSH2 0x1F1 JUMP JUMPDEST DUP2 EQ PUSH2 0x20F JUMPI PUSH1 0x0 DUP1 REVERT JUMPDEST POP JUMP JUMPDEST PUSH1 0x0 DUP2 CALLDATALOAD SWAP1 POP PUSH2 0x221 DUP2 PUSH2 0x1FB JUMP JUMPDEST SWAP3 SWAP2 POP POP JUMP JUMPDEST PUSH1 0x0 PUSH1 0x20 DUP3 DUP5 SUB SLT ISZERO PUSH2 0x23D JUMPI PUSH2 0x23C PUSH2 0x1EC JUMP JUMPDEST JUMPDEST PUSH1 0x0 PUSH2 0x24B DUP5 DUP3 DUP6 ADD PUSH2 0x212 JUMP JUMPDEST SWAP2 POP POP SWAP3 SWAP2 POP POP JUMP JUMPDEST PUSH2 0x25D DUP2 PUSH2 0x1F1 JUMP JUMPDEST DUP3 MSTORE POP POP JUMP JUMPDEST PUSH1 0x0 PUSH1 0x20 DUP3 ADD SWAP1 POP PUSH2 0x278 PUSH1 0x0 DUP4 ADD DUP5 PUSH2 0x254 JUMP JUMPDEST SWAP3 SWAP2 POP POP JUMP JUMPDEST PUSH1 0x0 DUP2 ISZERO ISZERO SWAP1 POP SWAP2 SWAP1 POP JUMP JUMPDEST PUSH2 0x293 DUP2 PUSH2 0x27E JUMP JUMPDEST DUP2 EQ PUSH2 0x29E JUMPI PUSH1 0x0 DUP1 REVERT JUMPDEST POP JUMP JUMPDEST PUSH1 0x0 DUP2 CALLDATALOAD SWAP1 POP PUSH2 0x2B0 DUP2 PUSH2 0x28A JUMP JUMPDEST SWAP3 SWAP2 POP POP JUMP JUMPDEST PUSH1 0x0 DUP1 PUSH1 0x40 DUP4 DUP6 SUB SLT ISZERO PUSH2 0x2CD JUMPI PUSH2 0x2CC PUSH2 0x1EC JUMP JUMPDEST JUMPDEST PUSH1 0x0 PUSH2 0x2DB DUP6 DUP3 DUP7 ADD PUSH2 0x2A1 JUMP JUMPDEST SWAP3 POP POP PUSH1 0x20 PUSH2 0x2EC DUP6 DUP3 DUP7 ADD PUSH2 0x2A1 JUMP JUMPDEST SWAP2 POP POP SWAP3 POP SWAP3 SWAP1 POP JUMP JUMPDEST PUSH2 0x2FF DUP2 PUSH2 0x27E JUMP JUMPDEST DUP3 MSTORE POP POP JUMP JUMPDEST PUSH1 0x0 PUSH1 0x20 DUP3 ADD SWAP1 POP PUSH2 0x31A PUSH1 0x0 DUP4 ADD DUP5 PUSH2 0x2F6 JUMP JUMPDEST SWAP3 SWAP2 POP POP JUMP JUMPDEST PUSH32 0x4E487B7100000000000000000000000000000000000000000000000000000000 PUSH1 0x0 MSTORE PUSH1 0x11 PUSH1 0x4 MSTORE PUSH1 0x24 PUSH1 0x0 REVERT JUMPDEST PUSH1 0x0 PUSH2 0x35A DUP3 PUSH2 0x1F1 JUMP JUMPDEST SWAP2 POP PUSH2 0x365 DUP4 PUSH2 0x1F1 JUMP JUMPDEST SWAP3 POP DUP3 DUP3 ADD SWAP1 POP DUP1 DUP3 GT ISZERO PUSH2 0x37D JUMPI PUSH2 0x37C PUSH2 0x320 JUMP JUMPDEST JUMPDEST SWAP3 SWAP2 POP POP JUMP JUMPDEST PUSH32 0x4E487B7100000000000000000000000000000000000000000000000000000000 PUSH1 0x0 MSTORE PUSH1 0x12 PUSH1 0x4 MSTORE PUSH1 0x24 PUSH1 0x0 REVERT JUMPDEST PUSH1 0x0 PUSH2 0x3BD DUP3 PUSH2 0x1F1 JUMP JUMPDEST SWAP2 POP PUSH2 0x3C8 DUP4 PUSH2 0x1F1 JUMP JUMPDEST SWAP3 POP DUP3 PUSH2 0x3D8 JUMPI PUSH2 0x3D7 PUSH2 0x383 JUMP JUMPDEST JUMPDEST DUP3 DUP3 DIV SWAP1 POP SWAP3 SWAP2 POP POP JUMP JUMPDEST PUSH1 0x0 PUSH2 0x3EE DUP3 PUSH2 0x1F1 JUMP JUMPDEST SWAP2 POP PUSH2 0x3F9 DUP4 PUSH2 0x1F1 JUMP JUMPDEST SWAP3 POP DUP3 DUP3 MUL PUSH2 0x407 DUP2 PUSH2 0x1F1 JUMP JUMPDEST SWAP2 POP DUP3 DUP3 DIV DUP5 EQ DUP4 ISZERO OR PUSH2 0x41E JUMPI PUSH2 0x41D PUSH2 0x320 JUMP JUMPDEST JUMPDEST POP SWAP3 SWAP2 POP POP JUMP INVALID LOG2 PUSH5 0x6970667358 0x22 SLT KECCAK256 SWAP11 0xAE RETURNDATACOPY LOG2 0x4E 0xCF KECCAK256 EXTCODESIZE GASLIMIT DUP12 0xD 0xE1 0x5C 0xDE 0xAD CHAINID MSIZE 0xF6 0xF9 SMOD 0xE1 CALLCODE PUSH3 0x2B4D3C SMOD 0xA7 STATICCALL JUMPI DUP6 0xE8 PUSH5 0x736F6C6343 STOP ADDMOD SGT STOP CALLER "
				},
				"gasEstimates": {
					"creation": {
						"codeDepositCost": "223000",
						"executionCost": "44475",
						"totalCost": "267475"
					},
					"external": {
						"addNewValues(uint256)": "infinite",
						"addfValues(uint256)": "infinite",
						"divideCalculatorByFour(uint256)": "infinite",
						"multiplyCalculatorByFour(uint256)": "infinite",
						"remoteControlOpen(bool,bool)": "infinite"
					}
				},
				"methodIdentifiers": {
					"addNewValues(uint256)": "67dcaf8d",
					"addfValues(uint256)": "f3b7e983",
					"divideCalculatorByFour(uint256)": "8292888e",
					"multiplyCalculatorByFour(uint256)": "c5a79f70",
					"remoteControlOpen(bool,bool)": "b93c0937"
				}
			},
			"storageLayout": {
				"storage": [
					{
						"astId": 23,
						"contract": "debug-assignment.sol:learnFunctions",
						"label": "a",
						"offset": 0,
						"slot": "0",
						"type": "t_uint256"
					},
					{
						"astId": 66,
						"contract": "debug-assignment.sol:learnFunctions",
						"label": "b",
						"offset": 0,
						"slot": "1",
						"type": "t_uint256"
					}
				],
				"types": {
					"t_uint256": {
						"encoding": "inplace",
						"label": "uint256",
						"numberOfBytes": "32"
					}
				}
			},
			"userdoc": {
				"kind": "user",
				"methods": {},
				"version": 1
			}
		}
	}
}