{
	"structs.sol": {
		"learnStructs": {
			"abi": [
				{
					"inputs": [],
					"name": "getMovie",
					"outputs": [
						{
							"internalType": "uint256",
							"name": "",
							"type": "uint256"
						},
						{
							"internalType": "string",
							"name": "",
							"type": "string"
						},
						{
							"internalType": "string",
							"name": "",
							"type": "string"
						}
					],
					"stateMutability": "view",
					"type": "function"
				},
				{
					"inputs": [],
					"name": "getMovie2",
					"outputs": [
						{
							"components": [
								{
									"internalType": "uint256",
									"name": "id",
									"type": "uint256"
								},
								{
									"internalType": "string",
									"name": "title",
									"type": "string"
								},
								{
									"internalType": "string",
									"name": "director",
									"type": "string"
								}
							],
							"internalType": "struct learnStructs.Movie",
							"name": "",
							"type": "tuple"
						}
					],
					"stateMutability": "view",
					"type": "function"
				},
				{
					"inputs": [],
					"name": "setMovie",
					"outputs": [],
					"stateMutability": "nonpayable",
					"type": "function"
				}
			],
			"devdoc": {
				"kind": "dev",
				"methods": {},
				"version": 1
			},
			"evm": {
				"assembly": "    /* \"structs.sol\":70:736  contract learnStructs{\r... */\n  mstore(0x40, 0x80)\n    /* \"structs.sol\":211:241  Movie(1, \"Cool Movie\", \"Ibra\") */\n  mload(0x40)\n  dup1\n  0x60\n  add\n  0x40\n  mstore\n  dup1\n    /* \"structs.sol\":217:218  1 */\n  0x01\n    /* \"structs.sol\":211:241  Movie(1, \"Cool Movie\", \"Ibra\") */\n  dup2\n  mstore\n  0x20\n  add\n  mload(0x40)\n  dup1\n  0x40\n  add\n  0x40\n  mstore\n  dup1\n  0x0a\n  dup2\n  mstore\n  0x20\n  add\n  0x436f6f6c204d6f76696500000000000000000000000000000000000000000000\n  dup2\n  mstore\n  pop\n  dup2\n  mstore\n  0x20\n  add\n  mload(0x40)\n  dup1\n  0x40\n  add\n  0x40\n  mstore\n  dup1\n  0x04\n  dup2\n  mstore\n  0x20\n  add\n  0x4962726100000000000000000000000000000000000000000000000000000000\n  dup2\n  mstore\n  pop\n  dup2\n  mstore\n  pop\n    /* \"structs.sol\":197:241  Movie movie = Movie(1, \"Cool Movie\", \"Ibra\") */\n  0x00\n  dup1\n  dup3\n  add\n  mload\n  dup2\n  0x00\n  add\n  sstore\n  0x20\n  dup3\n  add\n  mload\n  dup2\n  0x01\n  add\n  swap1\n  dup1\n  mload\n  swap1\n  0x20\n  add\n  swap1\n  tag_1\n  swap3\n  swap2\n  swap1\n  tag_2\n  jump\t// in\ntag_1:\n  pop\n  0x40\n  dup3\n  add\n  mload\n  dup2\n  0x02\n  add\n  swap1\n  dup1\n  mload\n  swap1\n  0x20\n  add\n  swap1\n  tag_3\n  swap3\n  swap2\n  swap1\n  tag_2\n  jump\t// in\ntag_3:\n  pop\n  pop\n  pop\n    /* \"structs.sol\":70:736  contract learnStructs{\r... */\n  callvalue\n  dup1\n  iszero\n  tag_4\n  jumpi\n  0x00\n  dup1\n  revert\ntag_4:\n  pop\n  jump(tag_5)\ntag_2:\n  dup3\n  dup1\n  sload\n  tag_6\n  swap1\n  tag_7\n  jump\t// in\ntag_6:\n  swap1\n  0x00\n  mstore\n  keccak256(0x00, 0x20)\n  swap1\n  0x1f\n  add\n  0x20\n  swap1\n  div\n  dup2\n  add\n  swap3\n  dup3\n  tag_9\n  jumpi\n  0x00\n  dup6\n  sstore\n  jump(tag_8)\ntag_9:\n  dup3\n  0x1f\n  lt\n  tag_10\n  jumpi\n  dup1\n  mload\n  not(0xff)\n  and\n  dup4\n  dup1\n  add\n  or\n  dup6\n  sstore\n  jump(tag_8)\ntag_10:\n  dup3\n  dup1\n  add\n  0x01\n  add\n  dup6\n  sstore\n  dup3\n  iszero\n  tag_8\n  jumpi\n  swap2\n  dup3\n  add\ntag_11:\n  dup3\n  dup2\n  gt\n  iszero\n  tag_12\n  jumpi\n  dup3\n  mload\n  dup3\n  sstore\n  swap2\n  0x20\n  add\n  swap2\n  swap1\n  0x01\n  add\n  swap1\n  jump(tag_11)\ntag_12:\ntag_8:\n  pop\n  swap1\n  pop\n  tag_13\n  swap2\n  swap1\n  tag_14\n  jump\t// in\ntag_13:\n  pop\n  swap1\n  jump\t// out\ntag_14:\ntag_15:\n  dup1\n  dup3\n  gt\n  iszero\n  tag_16\n  jumpi\n  0x00\n  dup2\n  0x00\n  swap1\n  sstore\n  pop\n  0x01\n  add\n  jump(tag_15)\ntag_16:\n  pop\n  swap1\n  jump\t// out\n    /* \"#utility.yul\":7:327   */\ntag_7:\n    /* \"#utility.yul\":51:57   */\n  0x00\n    /* \"#utility.yul\":88:89   */\n  0x02\n    /* \"#utility.yul\":82:86   */\n  dup3\n    /* \"#utility.yul\":78:90   */\n  div\n    /* \"#utility.yul\":68:90   */\n  swap1\n  pop\n    /* \"#utility.yul\":135:136   */\n  0x01\n    /* \"#utility.yul\":129:133   */\n  dup3\n    /* \"#utility.yul\":125:137   */\n  and\n    /* \"#utility.yul\":156:174   */\n  dup1\n    /* \"#utility.yul\":146:227   */\n  tag_19\n  jumpi\n    /* \"#utility.yul\":212:216   */\n  0x7f\n    /* \"#utility.yul\":204:210   */\n  dup3\n    /* \"#utility.yul\":200:217   */\n  and\n    /* \"#utility.yul\":190:217   */\n  swap2\n  pop\n    /* \"#utility.yul\":146:227   */\ntag_19:\n    /* \"#utility.yul\":274:276   */\n  0x20\n    /* \"#utility.yul\":266:272   */\n  dup3\n    /* \"#utility.yul\":263:277   */\n  lt\n    /* \"#utility.yul\":243:261   */\n  dup2\n    /* \"#utility.yul\":240:278   */\n  eq\n    /* \"#utility.yul\":237:321   */\n  iszero\n  tag_20\n  jumpi\n    /* \"#utility.yul\":293:311   */\n  tag_21\n  tag_22\n  jump\t// in\ntag_21:\n    /* \"#utility.yul\":237:321   */\ntag_20:\n    /* \"#utility.yul\":58:327   */\n  pop\n    /* \"#utility.yul\":7:327   */\n  swap2\n  swap1\n  pop\n  jump\t// out\n    /* \"#utility.yul\":333:513   */\ntag_22:\n    /* \"#utility.yul\":381:458   */\n  0x4e487b7100000000000000000000000000000000000000000000000000000000\n    /* \"#utility.yul\":378:379   */\n  0x00\n    /* \"#utility.yul\":371:459   */\n  mstore\n    /* \"#utility.yul\":478:482   */\n  0x22\n    /* \"#utility.yul\":475:476   */\n  0x04\n    /* \"#utility.yul\":468:483   */\n  mstore\n    /* \"#utility.yul\":502:506   */\n  0x24\n    /* \"#utility.yul\":499:500   */\n  0x00\n    /* \"#utility.yul\":492:507   */\n  revert\n    /* \"structs.sol\":70:736  contract learnStructs{\r... */\ntag_5:\n  dataSize(sub_0)\n  dup1\n  dataOffset(sub_0)\n  0x00\n  codecopy\n  0x00\n  return\nstop\n\nsub_0: assembly {\n        /* \"structs.sol\":70:736  contract learnStructs{\r... */\n      mstore(0x40, 0x80)\n      callvalue\n      dup1\n      iszero\n      tag_1\n      jumpi\n      0x00\n      dup1\n      revert\n    tag_1:\n      pop\n      jumpi(tag_2, lt(calldatasize, 0x04))\n      shr(0xe0, calldataload(0x00))\n      dup1\n      0x51a8cbca\n      eq\n      tag_3\n      jumpi\n      dup1\n      0x7b5f4eef\n      eq\n      tag_4\n      jumpi\n      dup1\n      0xf6bb33b1\n      eq\n      tag_5\n      jumpi\n    tag_2:\n      0x00\n      dup1\n      revert\n        /* \"structs.sol\":589:733  function getMovie2()public view returns (Movie memory)   // we can return multiple values from a function\r... */\n    tag_3:\n      tag_6\n      tag_7\n      jump\t// in\n    tag_6:\n      mload(0x40)\n      tag_8\n      swap2\n      swap1\n      tag_9\n      jump\t// in\n    tag_8:\n      mload(0x40)\n      dup1\n      swap2\n      sub\n      swap1\n      return\n        /* \"structs.sol\":386:583  function getMovie()public view returns (uint, string memory, string memory)   // we can return multiple values from a function\r... */\n    tag_4:\n      tag_10\n      tag_11\n      jump\t// in\n    tag_10:\n      mload(0x40)\n      tag_12\n      swap4\n      swap3\n      swap2\n      swap1\n      tag_13\n      jump\t// in\n    tag_12:\n      mload(0x40)\n      dup1\n      swap2\n      sub\n      swap1\n      return\n        /* \"structs.sol\":248:380  function setMovie () public  {\r... */\n    tag_5:\n      tag_14\n      tag_15\n      jump\t// in\n    tag_14:\n      stop\n        /* \"structs.sol\":589:733  function getMovie2()public view returns (Movie memory)   // we can return multiple values from a function\r... */\n    tag_7:\n        /* \"structs.sol\":630:642  Movie memory */\n      tag_16\n      tag_17\n      jump\t// in\n    tag_16:\n        /* \"structs.sol\":719:724  movie */\n      0x00\n        /* \"structs.sol\":712:725  return(movie) */\n      mload(0x40)\n      dup1\n      0x60\n      add\n      0x40\n      mstore\n      swap1\n      dup2\n      0x00\n      dup3\n      add\n      sload\n      dup2\n      mstore\n      0x20\n      add\n      0x01\n      dup3\n      add\n      dup1\n      sload\n      tag_19\n      swap1\n      tag_20\n      jump\t// in\n    tag_19:\n      dup1\n      0x1f\n      add\n      0x20\n      dup1\n      swap2\n      div\n      mul\n      0x20\n      add\n      mload(0x40)\n      swap1\n      dup2\n      add\n      0x40\n      mstore\n      dup1\n      swap3\n      swap2\n      swap1\n      dup2\n      dup2\n      mstore\n      0x20\n      add\n      dup3\n      dup1\n      sload\n      tag_21\n      swap1\n      tag_20\n      jump\t// in\n    tag_21:\n      dup1\n      iszero\n      tag_22\n      jumpi\n      dup1\n      0x1f\n      lt\n      tag_23\n      jumpi\n      0x0100\n      dup1\n      dup4\n      sload\n      div\n      mul\n      dup4\n      mstore\n      swap2\n      0x20\n      add\n      swap2\n      jump(tag_22)\n    tag_23:\n      dup3\n      add\n      swap2\n      swap1\n      0x00\n      mstore\n      keccak256(0x00, 0x20)\n      swap1\n    tag_24:\n      dup2\n      sload\n      dup2\n      mstore\n      swap1\n      0x01\n      add\n      swap1\n      0x20\n      add\n      dup1\n      dup4\n      gt\n      tag_24\n      jumpi\n      dup3\n      swap1\n      sub\n      0x1f\n      and\n      dup3\n      add\n      swap2\n    tag_22:\n      pop\n      pop\n      pop\n      pop\n      pop\n      dup2\n      mstore\n      0x20\n      add\n      0x02\n      dup3\n      add\n      dup1\n      sload\n      tag_25\n      swap1\n      tag_20\n      jump\t// in\n    tag_25:\n      dup1\n      0x1f\n      add\n      0x20\n      dup1\n      swap2\n      div\n      mul\n      0x20\n      add\n      mload(0x40)\n      swap1\n      dup2\n      add\n      0x40\n      mstore\n      dup1\n      swap3\n      swap2\n      swap1\n      dup2\n      dup2\n      mstore\n      0x20\n      add\n      dup3\n      dup1\n      sload\n      tag_26\n      swap1\n      tag_20\n      jump\t// in\n    tag_26:\n      dup1\n      iszero\n      tag_27\n      jumpi\n      dup1\n      0x1f\n      lt\n      tag_28\n      jumpi\n      0x0100\n      dup1\n      dup4\n      sload\n      div\n      mul\n      dup4\n      mstore\n      swap2\n      0x20\n      add\n      swap2\n      jump(tag_27)\n    tag_28:\n      dup3\n      add\n      swap2\n      swap1\n      0x00\n      mstore\n      keccak256(0x00, 0x20)\n      swap1\n    tag_29:\n      dup2\n      sload\n      dup2\n      mstore\n      swap1\n      0x01\n      add\n      swap1\n      0x20\n      add\n      dup1\n      dup4\n      gt\n      tag_29\n      jumpi\n      dup3\n      swap1\n      sub\n      0x1f\n      and\n      dup3\n      add\n      swap2\n    tag_27:\n      pop\n      pop\n      pop\n      pop\n      pop\n      dup2\n      mstore\n      pop\n      pop\n      swap1\n      pop\n        /* \"structs.sol\":589:733  function getMovie2()public view returns (Movie memory)   // we can return multiple values from a function\r... */\n      swap1\n      jump\t// out\n        /* \"structs.sol\":386:583  function getMovie()public view returns (uint, string memory, string memory)   // we can return multiple values from a function\r... */\n    tag_11:\n        /* \"structs.sol\":426:430  uint */\n      0x00\n        /* \"structs.sol\":432:445  string memory */\n      0x60\n        /* \"structs.sol\":447:460  string memory */\n      dup1\n        /* \"structs.sol\":537:542  movie */\n      0x00\n        /* \"structs.sol\":537:545  movie.id */\n      dup1\n      add\n      sload\n        /* \"structs.sol\":546:551  movie */\n      0x00\n        /* \"structs.sol\":546:557  movie.title */\n      0x01\n      add\n        /* \"structs.sol\":560:565  movie */\n      0x00\n        /* \"structs.sol\":560:574  movie.director */\n      0x02\n      add\n        /* \"structs.sol\":530:575  return(movie.id,movie.title , movie.director) */\n      dup2\n      dup1\n      sload\n      tag_31\n      swap1\n      tag_20\n      jump\t// in\n    tag_31:\n      dup1\n      0x1f\n      add\n      0x20\n      dup1\n      swap2\n      div\n      mul\n      0x20\n      add\n      mload(0x40)\n      swap1\n      dup2\n      add\n      0x40\n      mstore\n      dup1\n      swap3\n      swap2\n      swap1\n      dup2\n      dup2\n      mstore\n      0x20\n      add\n      dup3\n      dup1\n      sload\n      tag_32\n      swap1\n      tag_20\n      jump\t// in\n    tag_32:\n      dup1\n      iszero\n      tag_33\n      jumpi\n      dup1\n      0x1f\n      lt\n      tag_34\n      jumpi\n      0x0100\n      dup1\n      dup4\n      sload\n      div\n      mul\n      dup4\n      mstore\n      swap2\n      0x20\n      add\n      swap2\n      jump(tag_33)\n    tag_34:\n      dup3\n      add\n      swap2\n      swap1\n      0x00\n      mstore\n      keccak256(0x00, 0x20)\n      swap1\n    tag_35:\n      dup2\n      sload\n      dup2\n      mstore\n      swap1\n      0x01\n      add\n      swap1\n      0x20\n      add\n      dup1\n      dup4\n      gt\n      tag_35\n      jumpi\n      dup3\n      swap1\n      sub\n      0x1f\n      and\n      dup3\n      add\n      swap2\n    tag_33:\n      pop\n      pop\n      pop\n      pop\n      pop\n      swap2\n      pop\n      dup1\n      dup1\n      sload\n      tag_36\n      swap1\n      tag_20\n      jump\t// in\n    tag_36:\n      dup1\n      0x1f\n      add\n      0x20\n      dup1\n      swap2\n      div\n      mul\n      0x20\n      add\n      mload(0x40)\n      swap1\n      dup2\n      add\n      0x40\n      mstore\n      dup1\n      swap3\n      swap2\n      swap1\n      dup2\n      dup2\n      mstore\n      0x20\n      add\n      dup3\n      dup1\n      sload\n      tag_37\n      swap1\n      tag_20\n      jump\t// in\n    tag_37:\n      dup1\n      iszero\n      tag_38\n      jumpi\n      dup1\n      0x1f\n      lt\n      tag_39\n      jumpi\n      0x0100\n      dup1\n      dup4\n      sload\n      div\n      mul\n      dup4\n      mstore\n      swap2\n      0x20\n      add\n      swap2\n      jump(tag_38)\n    tag_39:\n      dup3\n      add\n      swap2\n      swap1\n      0x00\n      mstore\n      keccak256(0x00, 0x20)\n      swap1\n    tag_40:\n      dup2\n      sload\n      dup2\n      mstore\n      swap1\n      0x01\n      add\n      swap1\n      0x20\n      add\n      dup1\n      dup4\n      gt\n      tag_40\n      jumpi\n      dup3\n      swap1\n      sub\n      0x1f\n      and\n      dup3\n      add\n      swap2\n    tag_38:\n      pop\n      pop\n      pop\n      pop\n      pop\n      swap1\n      pop\n      swap3\n      pop\n      swap3\n      pop\n      swap3\n      pop\n        /* \"structs.sol\":386:583  function getMovie()public view returns (uint, string memory, string memory)   // we can return multiple values from a function\r... */\n      swap1\n      swap2\n      swap3\n      jump\t// out\n        /* \"structs.sol\":248:380  function setMovie () public  {\r... */\n    tag_15:\n        /* \"structs.sol\":299:300  2 */\n      0x02\n        /* \"structs.sol\":288:293  movie */\n      0x00\n        /* \"structs.sol\":288:296  movie.id */\n      dup1\n      add\n        /* \"structs.sol\":288:300  movie.id = 2 */\n      dup2\n      swap1\n      sstore\n      pop\n        /* \"structs.sol\":311:342  movie.title = \"Fantastic Movie\" */\n      mload(0x40)\n      dup1\n      0x40\n      add\n      0x40\n      mstore\n      dup1\n      0x0f\n      dup2\n      mstore\n      0x20\n      add\n      0x46616e746173746963204d6f7669650000000000000000000000000000000000\n      dup2\n      mstore\n      pop\n        /* \"structs.sol\":311:316  movie */\n      0x00\n        /* \"structs.sol\":311:322  movie.title */\n      0x01\n      add\n        /* \"structs.sol\":311:342  movie.title = \"Fantastic Movie\" */\n      swap1\n      dup1\n      mload\n      swap1\n      0x20\n      add\n      swap1\n      tag_42\n      swap3\n      swap2\n      swap1\n      tag_43\n      jump\t// in\n    tag_42:\n      pop\n        /* \"structs.sol\":353:372  movie.director=\"Me\" */\n      mload(0x40)\n      dup1\n      0x40\n      add\n      0x40\n      mstore\n      dup1\n      0x02\n      dup2\n      mstore\n      0x20\n      add\n      0x4d65000000000000000000000000000000000000000000000000000000000000\n      dup2\n      mstore\n      pop\n        /* \"structs.sol\":353:358  movie */\n      0x00\n        /* \"structs.sol\":353:367  movie.director */\n      0x02\n      add\n        /* \"structs.sol\":353:372  movie.director=\"Me\" */\n      swap1\n      dup1\n      mload\n      swap1\n      0x20\n      add\n      swap1\n      tag_44\n      swap3\n      swap2\n      swap1\n      tag_43\n      jump\t// in\n    tag_44:\n      pop\n        /* \"structs.sol\":248:380  function setMovie () public  {\r... */\n      jump\t// out\n    tag_17:\n      mload(0x40)\n      dup1\n      0x60\n      add\n      0x40\n      mstore\n      dup1\n      0x00\n      dup2\n      mstore\n      0x20\n      add\n      0x60\n      dup2\n      mstore\n      0x20\n      add\n      0x60\n      dup2\n      mstore\n      pop\n      swap1\n      jump\t// out\n    tag_43:\n      dup3\n      dup1\n      sload\n      tag_45\n      swap1\n      tag_20\n      jump\t// in\n    tag_45:\n      swap1\n      0x00\n      mstore\n      keccak256(0x00, 0x20)\n      swap1\n      0x1f\n      add\n      0x20\n      swap1\n      div\n      dup2\n      add\n      swap3\n      dup3\n      tag_47\n      jumpi\n      0x00\n      dup6\n      sstore\n      jump(tag_46)\n    tag_47:\n      dup3\n      0x1f\n      lt\n      tag_48\n      jumpi\n      dup1\n      mload\n      not(0xff)\n      and\n      dup4\n      dup1\n      add\n      or\n      dup6\n      sstore\n      jump(tag_46)\n    tag_48:\n      dup3\n      dup1\n      add\n      0x01\n      add\n      dup6\n      sstore\n      dup3\n      iszero\n      tag_46\n      jumpi\n      swap2\n      dup3\n      add\n    tag_49:\n      dup3\n      dup2\n      gt\n      iszero\n      tag_50\n      jumpi\n      dup3\n      mload\n      dup3\n      sstore\n      swap2\n      0x20\n      add\n      swap2\n      swap1\n      0x01\n      add\n      swap1\n      jump(tag_49)\n    tag_50:\n    tag_46:\n      pop\n      swap1\n      pop\n      tag_51\n      swap2\n      swap1\n      tag_52\n      jump\t// in\n    tag_51:\n      pop\n      swap1\n      jump\t// out\n    tag_52:\n    tag_53:\n      dup1\n      dup3\n      gt\n      iszero\n      tag_54\n      jumpi\n      0x00\n      dup2\n      0x00\n      swap1\n      sstore\n      pop\n      0x01\n      add\n      jump(tag_53)\n    tag_54:\n      pop\n      swap1\n      jump\t// out\n        /* \"#utility.yul\":7:351   */\n    tag_56:\n        /* \"#utility.yul\":85:88   */\n      0x00\n        /* \"#utility.yul\":113:152   */\n      tag_58\n        /* \"#utility.yul\":146:151   */\n      dup3\n        /* \"#utility.yul\":113:152   */\n      tag_59\n      jump\t// in\n    tag_58:\n        /* \"#utility.yul\":168:229   */\n      tag_60\n        /* \"#utility.yul\":222:228   */\n      dup2\n        /* \"#utility.yul\":217:220   */\n      dup6\n        /* \"#utility.yul\":168:229   */\n      tag_61\n      jump\t// in\n    tag_60:\n        /* \"#utility.yul\":161:229   */\n      swap4\n      pop\n        /* \"#utility.yul\":238:290   */\n      tag_62\n        /* \"#utility.yul\":283:289   */\n      dup2\n        /* \"#utility.yul\":278:281   */\n      dup6\n        /* \"#utility.yul\":271:275   */\n      0x20\n        /* \"#utility.yul\":264:269   */\n      dup7\n        /* \"#utility.yul\":260:276   */\n      add\n        /* \"#utility.yul\":238:290   */\n      tag_63\n      jump\t// in\n    tag_62:\n        /* \"#utility.yul\":315:344   */\n      tag_64\n        /* \"#utility.yul\":337:343   */\n      dup2\n        /* \"#utility.yul\":315:344   */\n      tag_65\n      jump\t// in\n    tag_64:\n        /* \"#utility.yul\":310:313   */\n      dup5\n        /* \"#utility.yul\":306:345   */\n      add\n        /* \"#utility.yul\":299:345   */\n      swap2\n      pop\n        /* \"#utility.yul\":89:351   */\n      pop\n        /* \"#utility.yul\":7:351   */\n      swap3\n      swap2\n      pop\n      pop\n      jump\t// out\n        /* \"#utility.yul\":357:721   */\n    tag_66:\n        /* \"#utility.yul\":445:448   */\n      0x00\n        /* \"#utility.yul\":473:512   */\n      tag_68\n        /* \"#utility.yul\":506:511   */\n      dup3\n        /* \"#utility.yul\":473:512   */\n      tag_59\n      jump\t// in\n    tag_68:\n        /* \"#utility.yul\":528:599   */\n      tag_69\n        /* \"#utility.yul\":592:598   */\n      dup2\n        /* \"#utility.yul\":587:590   */\n      dup6\n        /* \"#utility.yul\":528:599   */\n      tag_70\n      jump\t// in\n    tag_69:\n        /* \"#utility.yul\":521:599   */\n      swap4\n      pop\n        /* \"#utility.yul\":608:660   */\n      tag_71\n        /* \"#utility.yul\":653:659   */\n      dup2\n        /* \"#utility.yul\":648:651   */\n      dup6\n        /* \"#utility.yul\":641:645   */\n      0x20\n        /* \"#utility.yul\":634:639   */\n      dup7\n        /* \"#utility.yul\":630:646   */\n      add\n        /* \"#utility.yul\":608:660   */\n      tag_63\n      jump\t// in\n    tag_71:\n        /* \"#utility.yul\":685:714   */\n      tag_72\n        /* \"#utility.yul\":707:713   */\n      dup2\n        /* \"#utility.yul\":685:714   */\n      tag_65\n      jump\t// in\n    tag_72:\n        /* \"#utility.yul\":680:683   */\n      dup5\n        /* \"#utility.yul\":676:715   */\n      add\n        /* \"#utility.yul\":669:715   */\n      swap2\n      pop\n        /* \"#utility.yul\":449:721   */\n      pop\n        /* \"#utility.yul\":357:721   */\n      swap3\n      swap2\n      pop\n      pop\n      jump\t// out\n        /* \"#utility.yul\":789:1633   */\n    tag_73:\n        /* \"#utility.yul\":898:901   */\n      0x00\n        /* \"#utility.yul\":934:938   */\n      0x60\n        /* \"#utility.yul\":929:932   */\n      dup4\n        /* \"#utility.yul\":925:939   */\n      add\n        /* \"#utility.yul\":1019:1023   */\n      0x00\n        /* \"#utility.yul\":1012:1017   */\n      dup4\n        /* \"#utility.yul\":1008:1024   */\n      add\n        /* \"#utility.yul\":1002:1025   */\n      mload\n        /* \"#utility.yul\":1038:1101   */\n      tag_75\n        /* \"#utility.yul\":1095:1099   */\n      0x00\n        /* \"#utility.yul\":1090:1093   */\n      dup7\n        /* \"#utility.yul\":1086:1100   */\n      add\n        /* \"#utility.yul\":1072:1084   */\n      dup3\n        /* \"#utility.yul\":1038:1101   */\n      tag_76\n      jump\t// in\n    tag_75:\n        /* \"#utility.yul\":949:1111   */\n      pop\n        /* \"#utility.yul\":1194:1198   */\n      0x20\n        /* \"#utility.yul\":1187:1192   */\n      dup4\n        /* \"#utility.yul\":1183:1199   */\n      add\n        /* \"#utility.yul\":1177:1200   */\n      mload\n        /* \"#utility.yul\":1247:1250   */\n      dup5\n        /* \"#utility.yul\":1241:1245   */\n      dup3\n        /* \"#utility.yul\":1237:1251   */\n      sub\n        /* \"#utility.yul\":1230:1234   */\n      0x20\n        /* \"#utility.yul\":1225:1228   */\n      dup7\n        /* \"#utility.yul\":1221:1235   */\n      add\n        /* \"#utility.yul\":1214:1252   */\n      mstore\n        /* \"#utility.yul\":1273:1346   */\n      tag_77\n        /* \"#utility.yul\":1341:1345   */\n      dup3\n        /* \"#utility.yul\":1327:1339   */\n      dup3\n        /* \"#utility.yul\":1273:1346   */\n      tag_56\n      jump\t// in\n    tag_77:\n        /* \"#utility.yul\":1265:1346   */\n      swap2\n      pop\n        /* \"#utility.yul\":1121:1357   */\n      pop\n        /* \"#utility.yul\":1443:1447   */\n      0x40\n        /* \"#utility.yul\":1436:1441   */\n      dup4\n        /* \"#utility.yul\":1432:1448   */\n      add\n        /* \"#utility.yul\":1426:1449   */\n      mload\n        /* \"#utility.yul\":1496:1499   */\n      dup5\n        /* \"#utility.yul\":1490:1494   */\n      dup3\n        /* \"#utility.yul\":1486:1500   */\n      sub\n        /* \"#utility.yul\":1479:1483   */\n      0x40\n        /* \"#utility.yul\":1474:1477   */\n      dup7\n        /* \"#utility.yul\":1470:1484   */\n      add\n        /* \"#utility.yul\":1463:1501   */\n      mstore\n        /* \"#utility.yul\":1522:1595   */\n      tag_78\n        /* \"#utility.yul\":1590:1594   */\n      dup3\n        /* \"#utility.yul\":1576:1588   */\n      dup3\n        /* \"#utility.yul\":1522:1595   */\n      tag_56\n      jump\t// in\n    tag_78:\n        /* \"#utility.yul\":1514:1595   */\n      swap2\n      pop\n        /* \"#utility.yul\":1367:1606   */\n      pop\n        /* \"#utility.yul\":1623:1627   */\n      dup1\n        /* \"#utility.yul\":1616:1627   */\n      swap2\n      pop\n        /* \"#utility.yul\":903:1633   */\n      pop\n        /* \"#utility.yul\":789:1633   */\n      swap3\n      swap2\n      pop\n      pop\n      jump\t// out\n        /* \"#utility.yul\":1639:1747   */\n    tag_76:\n        /* \"#utility.yul\":1716:1740   */\n      tag_80\n        /* \"#utility.yul\":1734:1739   */\n      dup2\n        /* \"#utility.yul\":1716:1740   */\n      tag_81\n      jump\t// in\n    tag_80:\n        /* \"#utility.yul\":1711:1714   */\n      dup3\n        /* \"#utility.yul\":1704:1741   */\n      mstore\n        /* \"#utility.yul\":1639:1747   */\n      pop\n      pop\n      jump\t// out\n        /* \"#utility.yul\":1753:1871   */\n    tag_82:\n        /* \"#utility.yul\":1840:1864   */\n      tag_84\n        /* \"#utility.yul\":1858:1863   */\n      dup2\n        /* \"#utility.yul\":1840:1864   */\n      tag_81\n      jump\t// in\n    tag_84:\n        /* \"#utility.yul\":1835:1838   */\n      dup3\n        /* \"#utility.yul\":1828:1865   */\n      mstore\n        /* \"#utility.yul\":1753:1871   */\n      pop\n      pop\n      jump\t// out\n        /* \"#utility.yul\":1877:2230   */\n    tag_9:\n        /* \"#utility.yul\":2010:2014   */\n      0x00\n        /* \"#utility.yul\":2048:2050   */\n      0x20\n        /* \"#utility.yul\":2037:2046   */\n      dup3\n        /* \"#utility.yul\":2033:2051   */\n      add\n        /* \"#utility.yul\":2025:2051   */\n      swap1\n      pop\n        /* \"#utility.yul\":2097:2106   */\n      dup2\n        /* \"#utility.yul\":2091:2095   */\n      dup2\n        /* \"#utility.yul\":2087:2107   */\n      sub\n        /* \"#utility.yul\":2083:2084   */\n      0x00\n        /* \"#utility.yul\":2072:2081   */\n      dup4\n        /* \"#utility.yul\":2068:2085   */\n      add\n        /* \"#utility.yul\":2061:2108   */\n      mstore\n        /* \"#utility.yul\":2125:2223   */\n      tag_86\n        /* \"#utility.yul\":2218:2222   */\n      dup2\n        /* \"#utility.yul\":2209:2215   */\n      dup5\n        /* \"#utility.yul\":2125:2223   */\n      tag_73\n      jump\t// in\n    tag_86:\n        /* \"#utility.yul\":2117:2223   */\n      swap1\n      pop\n        /* \"#utility.yul\":1877:2230   */\n      swap3\n      swap2\n      pop\n      pop\n      jump\t// out\n        /* \"#utility.yul\":2236:2860   */\n    tag_13:\n        /* \"#utility.yul\":2425:2429   */\n      0x00\n        /* \"#utility.yul\":2463:2465   */\n      0x60\n        /* \"#utility.yul\":2452:2461   */\n      dup3\n        /* \"#utility.yul\":2448:2466   */\n      add\n        /* \"#utility.yul\":2440:2466   */\n      swap1\n      pop\n        /* \"#utility.yul\":2476:2547   */\n      tag_88\n        /* \"#utility.yul\":2544:2545   */\n      0x00\n        /* \"#utility.yul\":2533:2542   */\n      dup4\n        /* \"#utility.yul\":2529:2546   */\n      add\n        /* \"#utility.yul\":2520:2526   */\n      dup7\n        /* \"#utility.yul\":2476:2547   */\n      tag_82\n      jump\t// in\n    tag_88:\n        /* \"#utility.yul\":2594:2603   */\n      dup2\n        /* \"#utility.yul\":2588:2592   */\n      dup2\n        /* \"#utility.yul\":2584:2604   */\n      sub\n        /* \"#utility.yul\":2579:2581   */\n      0x20\n        /* \"#utility.yul\":2568:2577   */\n      dup4\n        /* \"#utility.yul\":2564:2582   */\n      add\n        /* \"#utility.yul\":2557:2605   */\n      mstore\n        /* \"#utility.yul\":2622:2700   */\n      tag_89\n        /* \"#utility.yul\":2695:2699   */\n      dup2\n        /* \"#utility.yul\":2686:2692   */\n      dup6\n        /* \"#utility.yul\":2622:2700   */\n      tag_66\n      jump\t// in\n    tag_89:\n        /* \"#utility.yul\":2614:2700   */\n      swap1\n      pop\n        /* \"#utility.yul\":2747:2756   */\n      dup2\n        /* \"#utility.yul\":2741:2745   */\n      dup2\n        /* \"#utility.yul\":2737:2757   */\n      sub\n        /* \"#utility.yul\":2732:2734   */\n      0x40\n        /* \"#utility.yul\":2721:2730   */\n      dup4\n        /* \"#utility.yul\":2717:2735   */\n      add\n        /* \"#utility.yul\":2710:2758   */\n      mstore\n        /* \"#utility.yul\":2775:2853   */\n      tag_90\n        /* \"#utility.yul\":2848:2852   */\n      dup2\n        /* \"#utility.yul\":2839:2845   */\n      dup5\n        /* \"#utility.yul\":2775:2853   */\n      tag_66\n      jump\t// in\n    tag_90:\n        /* \"#utility.yul\":2767:2853   */\n      swap1\n      pop\n        /* \"#utility.yul\":2236:2860   */\n      swap5\n      swap4\n      pop\n      pop\n      pop\n      pop\n      jump\t// out\n        /* \"#utility.yul\":2866:2965   */\n    tag_59:\n        /* \"#utility.yul\":2918:2924   */\n      0x00\n        /* \"#utility.yul\":2952:2957   */\n      dup2\n        /* \"#utility.yul\":2946:2958   */\n      mload\n        /* \"#utility.yul\":2936:2958   */\n      swap1\n      pop\n        /* \"#utility.yul\":2866:2965   */\n      swap2\n      swap1\n      pop\n      jump\t// out\n        /* \"#utility.yul\":2971:3130   */\n    tag_61:\n        /* \"#utility.yul\":3045:3056   */\n      0x00\n        /* \"#utility.yul\":3079:3085   */\n      dup3\n        /* \"#utility.yul\":3074:3077   */\n      dup3\n        /* \"#utility.yul\":3067:3086   */\n      mstore\n        /* \"#utility.yul\":3119:3123   */\n      0x20\n        /* \"#utility.yul\":3114:3117   */\n      dup3\n        /* \"#utility.yul\":3110:3124   */\n      add\n        /* \"#utility.yul\":3095:3124   */\n      swap1\n      pop\n        /* \"#utility.yul\":2971:3130   */\n      swap3\n      swap2\n      pop\n      pop\n      jump\t// out\n        /* \"#utility.yul\":3136:3305   */\n    tag_70:\n        /* \"#utility.yul\":3220:3231   */\n      0x00\n        /* \"#utility.yul\":3254:3260   */\n      dup3\n        /* \"#utility.yul\":3249:3252   */\n      dup3\n        /* \"#utility.yul\":3242:3261   */\n      mstore\n        /* \"#utility.yul\":3294:3298   */\n      0x20\n        /* \"#utility.yul\":3289:3292   */\n      dup3\n        /* \"#utility.yul\":3285:3299   */\n      add\n        /* \"#utility.yul\":3270:3299   */\n      swap1\n      pop\n        /* \"#utility.yul\":3136:3305   */\n      swap3\n      swap2\n      pop\n      pop\n      jump\t// out\n        /* \"#utility.yul\":3311:3388   */\n    tag_81:\n        /* \"#utility.yul\":3348:3355   */\n      0x00\n        /* \"#utility.yul\":3377:3382   */\n      dup2\n        /* \"#utility.yul\":3366:3382   */\n      swap1\n      pop\n        /* \"#utility.yul\":3311:3388   */\n      swap2\n      swap1\n      pop\n      jump\t// out\n        /* \"#utility.yul\":3394:3701   */\n    tag_63:\n        /* \"#utility.yul\":3462:3463   */\n      0x00\n        /* \"#utility.yul\":3472:3585   */\n    tag_96:\n        /* \"#utility.yul\":3486:3492   */\n      dup4\n        /* \"#utility.yul\":3483:3484   */\n      dup2\n        /* \"#utility.yul\":3480:3493   */\n      lt\n        /* \"#utility.yul\":3472:3585   */\n      iszero\n      tag_98\n      jumpi\n        /* \"#utility.yul\":3571:3572   */\n      dup1\n        /* \"#utility.yul\":3566:3569   */\n      dup3\n        /* \"#utility.yul\":3562:3573   */\n      add\n        /* \"#utility.yul\":3556:3574   */\n      mload\n        /* \"#utility.yul\":3552:3553   */\n      dup2\n        /* \"#utility.yul\":3547:3550   */\n      dup5\n        /* \"#utility.yul\":3543:3554   */\n      add\n        /* \"#utility.yul\":3536:3575   */\n      mstore\n        /* \"#utility.yul\":3508:3510   */\n      0x20\n        /* \"#utility.yul\":3505:3506   */\n      dup2\n        /* \"#utility.yul\":3501:3511   */\n      add\n        /* \"#utility.yul\":3496:3511   */\n      swap1\n      pop\n        /* \"#utility.yul\":3472:3585   */\n      jump(tag_96)\n    tag_98:\n        /* \"#utility.yul\":3603:3609   */\n      dup4\n        /* \"#utility.yul\":3600:3601   */\n      dup2\n        /* \"#utility.yul\":3597:3610   */\n      gt\n        /* \"#utility.yul\":3594:3695   */\n      iszero\n      tag_99\n      jumpi\n        /* \"#utility.yul\":3683:3684   */\n      0x00\n        /* \"#utility.yul\":3674:3680   */\n      dup5\n        /* \"#utility.yul\":3669:3672   */\n      dup5\n        /* \"#utility.yul\":3665:3681   */\n      add\n        /* \"#utility.yul\":3658:3685   */\n      mstore\n        /* \"#utility.yul\":3594:3695   */\n    tag_99:\n        /* \"#utility.yul\":3443:3701   */\n      pop\n        /* \"#utility.yul\":3394:3701   */\n      pop\n      pop\n      pop\n      jump\t// out\n        /* \"#utility.yul\":3707:4027   */\n    tag_20:\n        /* \"#utility.yul\":3751:3757   */\n      0x00\n        /* \"#utility.yul\":3788:3789   */\n      0x02\n        /* \"#utility.yul\":3782:3786   */\n      dup3\n        /* \"#utility.yul\":3778:3790   */\n      div\n        /* \"#utility.yul\":3768:3790   */\n      swap1\n      pop\n        /* \"#utility.yul\":3835:3836   */\n      0x01\n        /* \"#utility.yul\":3829:3833   */\n      dup3\n        /* \"#utility.yul\":3825:3837   */\n      and\n        /* \"#utility.yul\":3856:3874   */\n      dup1\n        /* \"#utility.yul\":3846:3927   */\n      tag_101\n      jumpi\n        /* \"#utility.yul\":3912:3916   */\n      0x7f\n        /* \"#utility.yul\":3904:3910   */\n      dup3\n        /* \"#utility.yul\":3900:3917   */\n      and\n        /* \"#utility.yul\":3890:3917   */\n      swap2\n      pop\n        /* \"#utility.yul\":3846:3927   */\n    tag_101:\n        /* \"#utility.yul\":3974:3976   */\n      0x20\n        /* \"#utility.yul\":3966:3972   */\n      dup3\n        /* \"#utility.yul\":3963:3977   */\n      lt\n        /* \"#utility.yul\":3943:3961   */\n      dup2\n        /* \"#utility.yul\":3940:3978   */\n      eq\n        /* \"#utility.yul\":3937:4021   */\n      iszero\n      tag_102\n      jumpi\n        /* \"#utility.yul\":3993:4011   */\n      tag_103\n      tag_104\n      jump\t// in\n    tag_103:\n        /* \"#utility.yul\":3937:4021   */\n    tag_102:\n        /* \"#utility.yul\":3758:4027   */\n      pop\n        /* \"#utility.yul\":3707:4027   */\n      swap2\n      swap1\n      pop\n      jump\t// out\n        /* \"#utility.yul\":4033:4213   */\n    tag_104:\n        /* \"#utility.yul\":4081:4158   */\n      0x4e487b7100000000000000000000000000000000000000000000000000000000\n        /* \"#utility.yul\":4078:4079   */\n      0x00\n        /* \"#utility.yul\":4071:4159   */\n      mstore\n        /* \"#utility.yul\":4178:4182   */\n      0x22\n        /* \"#utility.yul\":4175:4176   */\n      0x04\n        /* \"#utility.yul\":4168:4183   */\n      mstore\n        /* \"#utility.yul\":4202:4206   */\n      0x24\n        /* \"#utility.yul\":4199:4200   */\n      0x00\n        /* \"#utility.yul\":4192:4207   */\n      revert\n        /* \"#utility.yul\":4219:4321   */\n    tag_65:\n        /* \"#utility.yul\":4260:4266   */\n      0x00\n        /* \"#utility.yul\":4311:4313   */\n      0x1f\n        /* \"#utility.yul\":4307:4314   */\n      not\n        /* \"#utility.yul\":4302:4304   */\n      0x1f\n        /* \"#utility.yul\":4295:4300   */\n      dup4\n        /* \"#utility.yul\":4291:4305   */\n      add\n        /* \"#utility.yul\":4287:4315   */\n      and\n        /* \"#utility.yul\":4277:4315   */\n      swap1\n      pop\n        /* \"#utility.yul\":4219:4321   */\n      swap2\n      swap1\n      pop\n      jump\t// out\n\n    auxdata: 0xa2646970667358221220408d9466edffda312b46688dbc6a9b14bd0bf3dbae643bb205be4f2fb7b05f4964736f6c63430008070033\n}\n",
				"bytecode": {
					"linkReferences": {},
					"object": "60806040526040518060600160405280600181526020016040518060400160405280600a81526020017f436f6f6c204d6f7669650000000000000000000000000000000000000000000081525081526020016040518060400160405280600481526020017f4962726100000000000000000000000000000000000000000000000000000000815250815250600080820151816000015560208201518160010190805190602001906100b19291906100e3565b5060408201518160020190805190602001906100ce9291906100e3565b5050503480156100dd57600080fd5b506101e7565b8280546100ef90610186565b90600052602060002090601f0160209004810192826101115760008555610158565b82601f1061012a57805160ff1916838001178555610158565b82800160010185558215610158579182015b8281111561015757825182559160200191906001019061013c565b5b5090506101659190610169565b5090565b5b8082111561018257600081600090555060010161016a565b5090565b6000600282049050600182168061019e57607f821691505b602082108114156101b2576101b16101b8565b5b50919050565b7f4e487b7100000000000000000000000000000000000000000000000000000000600052602260045260246000fd5b6106db806101f66000396000f3fe608060405234801561001057600080fd5b50600436106100415760003560e01c806351a8cbca146100465780637b5f4eef14610064578063f6bb33b114610084575b600080fd5b61004e61008e565b60405161005b9190610562565b60405180910390f35b61006c6101d6565b60405161007b93929190610584565b60405180910390f35b61008c61030d565b005b6100966103b7565b6000604051806060016040529081600082015481526020016001820180546100bd90610633565b80601f01602080910402602001604051908101604052809291908181526020018280546100e990610633565b80156101365780601f1061010b57610100808354040283529160200191610136565b820191906000526020600020905b81548152906001019060200180831161011957829003601f168201915b5050505050815260200160028201805461014f90610633565b80601f016020809104026020016040519081016040528092919081815260200182805461017b90610633565b80156101c85780601f1061019d576101008083540402835291602001916101c8565b820191906000526020600020905b8154815290600101906020018083116101ab57829003601f168201915b505050505081525050905090565b60006060806000800154600060010160006002018180546101f690610633565b80601f016020809104026020016040519081016040528092919081815260200182805461022290610633565b801561026f5780601f106102445761010080835404028352916020019161026f565b820191906000526020600020905b81548152906001019060200180831161025257829003601f168201915b5050505050915080805461028290610633565b80601f01602080910402602001604051908101604052809291908181526020018280546102ae90610633565b80156102fb5780601f106102d0576101008083540402835291602001916102fb565b820191906000526020600020905b8154815290600101906020018083116102de57829003601f168201915b50505050509050925092509250909192565b600260008001819055506040518060400160405280600f81526020017f46616e746173746963204d6f7669650000000000000000000000000000000000815250600060010190805190602001906103659291906103d8565b506040518060400160405280600281526020017f4d65000000000000000000000000000000000000000000000000000000000000815250600060020190805190602001906103b49291906103d8565b50565b60405180606001604052806000815260200160608152602001606081525090565b8280546103e490610633565b90600052602060002090601f016020900481019282610406576000855561044d565b82601f1061041f57805160ff191683800117855561044d565b8280016001018555821561044d579182015b8281111561044c578251825591602001919060010190610431565b5b50905061045a919061045e565b5090565b5b8082111561047757600081600090555060010161045f565b5090565b6000610486826105c9565b61049081856105d4565b93506104a0818560208601610600565b6104a981610694565b840191505092915050565b60006104bf826105c9565b6104c981856105e5565b93506104d9818560208601610600565b6104e281610694565b840191505092915050565b60006060830160008301516105056000860182610544565b506020830151848203602086015261051d828261047b565b91505060408301518482036040860152610537828261047b565b9150508091505092915050565b61054d816105f6565b82525050565b61055c816105f6565b82525050565b6000602082019050818103600083015261057c81846104ed565b905092915050565b60006060820190506105996000830186610553565b81810360208301526105ab81856104b4565b905081810360408301526105bf81846104b4565b9050949350505050565b600081519050919050565b600082825260208201905092915050565b600082825260208201905092915050565b6000819050919050565b60005b8381101561061e578082015181840152602081019050610603565b8381111561062d576000848401525b50505050565b6000600282049050600182168061064b57607f821691505b6020821081141561065f5761065e610665565b5b50919050565b7f4e487b7100000000000000000000000000000000000000000000000000000000600052602260045260246000fd5b6000601f19601f830116905091905056fea2646970667358221220408d9466edffda312b46688dbc6a9b14bd0bf3dbae643bb205be4f2fb7b05f4964736f6c63430008070033",
					"opcodes": "PUSH1 0x80 PUSH1 0x40 MSTORE PUSH1 0x40 MLOAD DUP1 PUSH1 0x60 ADD PUSH1 0x40 MSTORE DUP1 PUSH1 0x1 DUP2 MSTORE PUSH1 0x20 ADD PUSH1 0x40 MLOAD DUP1 PUSH1 0x40 ADD PUSH1 0x40 MSTORE DUP1 PUSH1 0xA DUP2 MSTORE PUSH1 0x20 ADD PUSH32 0x436F6F6C204D6F76696500000000000000000000000000000000000000000000 DUP2 MSTORE POP DUP2 MSTORE PUSH1 0x20 ADD PUSH1 0x40 MLOAD DUP1 PUSH1 0x40 ADD PUSH1 0x40 MSTORE DUP1 PUSH1 0x4 DUP2 MSTORE PUSH1 0x20 ADD PUSH32 0x4962726100000000000000000000000000000000000000000000000000000000 DUP2 MSTORE POP DUP2 MSTORE POP PUSH1 0x0 DUP1 DUP3 ADD MLOAD DUP2 PUSH1 0x0 ADD SSTORE PUSH1 0x20 DUP3 ADD MLOAD DUP2 PUSH1 0x1 ADD SWAP1 DUP1 MLOAD SWAP1 PUSH1 0x20 ADD SWAP1 PUSH2 0xB1 SWAP3 SWAP2 SWAP1 PUSH2 0xE3 JUMP JUMPDEST POP PUSH1 0x40 DUP3 ADD MLOAD DUP2 PUSH1 0x2 ADD SWAP1 DUP1 MLOAD SWAP1 PUSH1 0x20 ADD SWAP1 PUSH2 0xCE SWAP3 SWAP2 SWAP1 PUSH2 0xE3 JUMP JUMPDEST POP POP POP CALLVALUE DUP1 ISZERO PUSH2 0xDD JUMPI PUSH1 0x0 DUP1 REVERT JUMPDEST POP PUSH2 0x1E7 JUMP JUMPDEST DUP3 DUP1 SLOAD PUSH2 0xEF SWAP1 PUSH2 0x186 JUMP JUMPDEST SWAP1 PUSH1 0x0 MSTORE PUSH1 0x20 PUSH1 0x0 KECCAK256 SWAP1 PUSH1 0x1F ADD PUSH1 0x20 SWAP1 DIV DUP2 ADD SWAP3 DUP3 PUSH2 0x111 JUMPI PUSH1 0x0 DUP6 SSTORE PUSH2 0x158 JUMP JUMPDEST DUP3 PUSH1 0x1F LT PUSH2 0x12A JUMPI DUP1 MLOAD PUSH1 0xFF NOT AND DUP4 DUP1 ADD OR DUP6 SSTORE PUSH2 0x158 JUMP JUMPDEST DUP3 DUP1 ADD PUSH1 0x1 ADD DUP6 SSTORE DUP3 ISZERO PUSH2 0x158 JUMPI SWAP2 DUP3 ADD JUMPDEST DUP3 DUP2 GT ISZERO PUSH2 0x157 JUMPI DUP3 MLOAD DUP3 SSTORE SWAP2 PUSH1 0x20 ADD SWAP2 SWAP1 PUSH1 0x1 ADD SWAP1 PUSH2 0x13C JUMP JUMPDEST JUMPDEST POP SWAP1 POP PUSH2 0x165 SWAP2 SWAP1 PUSH2 0x169 JUMP JUMPDEST POP SWAP1 JUMP JUMPDEST JUMPDEST DUP1 DUP3 GT ISZERO PUSH2 0x182 JUMPI PUSH1 0x0 DUP2 PUSH1 0x0 SWAP1 SSTORE POP PUSH1 0x1 ADD PUSH2 0x16A JUMP JUMPDEST POP SWAP1 JUMP JUMPDEST PUSH1 0x0 PUSH1 0x2 DUP3 DIV SWAP1 POP PUSH1 0x1 DUP3 AND DUP1 PUSH2 0x19E JUMPI PUSH1 0x7F DUP3 AND SWAP2 POP JUMPDEST PUSH1 0x20 DUP3 LT DUP2 EQ ISZERO PUSH2 0x1B2 JUMPI PUSH2 0x1B1 PUSH2 0x1B8 JUMP JUMPDEST JUMPDEST POP SWAP2 SWAP1 POP JUMP JUMPDEST PUSH32 0x4E487B7100000000000000000000000000000000000000000000000000000000 PUSH1 0x0 MSTORE PUSH1 0x22 PUSH1 0x4 MSTORE PUSH1 0x24 PUSH1 0x0 REVERT JUMPDEST PUSH2 0x6DB DUP1 PUSH2 0x1F6 PUSH1 0x0 CODECOPY PUSH1 0x0 RETURN INVALID PUSH1 0x80 PUSH1 0x40 MSTORE CALLVALUE DUP1 ISZERO PUSH2 0x10 JUMPI PUSH1 0x0 DUP1 REVERT JUMPDEST POP PUSH1 0x4 CALLDATASIZE LT PUSH2 0x41 JUMPI PUSH1 0x0 CALLDATALOAD PUSH1 0xE0 SHR DUP1 PUSH4 0x51A8CBCA EQ PUSH2 0x46 JUMPI DUP1 PUSH4 0x7B5F4EEF EQ PUSH2 0x64 JUMPI DUP1 PUSH4 0xF6BB33B1 EQ PUSH2 0x84 JUMPI JUMPDEST PUSH1 0x0 DUP1 REVERT JUMPDEST PUSH2 0x4E PUSH2 0x8E JUMP JUMPDEST PUSH1 0x40 MLOAD PUSH2 0x5B SWAP2 SWAP1 PUSH2 0x562 JUMP JUMPDEST PUSH1 0x40 MLOAD DUP1 SWAP2 SUB SWAP1 RETURN JUMPDEST PUSH2 0x6C PUSH2 0x1D6 JUMP JUMPDEST PUSH1 0x40 MLOAD PUSH2 0x7B SWAP4 SWAP3 SWAP2 SWAP1 PUSH2 0x584 JUMP JUMPDEST PUSH1 0x40 MLOAD DUP1 SWAP2 SUB SWAP1 RETURN JUMPDEST PUSH2 0x8C PUSH2 0x30D JUMP JUMPDEST STOP JUMPDEST PUSH2 0x96 PUSH2 0x3B7 JUMP JUMPDEST PUSH1 0x0 PUSH1 0x40 MLOAD DUP1 PUSH1 0x60 ADD PUSH1 0x40 MSTORE SWAP1 DUP2 PUSH1 0x0 DUP3 ADD SLOAD DUP2 MSTORE PUSH1 0x20 ADD PUSH1 0x1 DUP3 ADD DUP1 SLOAD PUSH2 0xBD SWAP1 PUSH2 0x633 JUMP JUMPDEST DUP1 PUSH1 0x1F ADD PUSH1 0x20 DUP1 SWAP2 DIV MUL PUSH1 0x20 ADD PUSH1 0x40 MLOAD SWAP1 DUP2 ADD PUSH1 0x40 MSTORE DUP1 SWAP3 SWAP2 SWAP1 DUP2 DUP2 MSTORE PUSH1 0x20 ADD DUP3 DUP1 SLOAD PUSH2 0xE9 SWAP1 PUSH2 0x633 JUMP JUMPDEST DUP1 ISZERO PUSH2 0x136 JUMPI DUP1 PUSH1 0x1F LT PUSH2 0x10B JUMPI PUSH2 0x100 DUP1 DUP4 SLOAD DIV MUL DUP4 MSTORE SWAP2 PUSH1 0x20 ADD SWAP2 PUSH2 0x136 JUMP JUMPDEST DUP3 ADD SWAP2 SWAP1 PUSH1 0x0 MSTORE PUSH1 0x20 PUSH1 0x0 KECCAK256 SWAP1 JUMPDEST DUP2 SLOAD DUP2 MSTORE SWAP1 PUSH1 0x1 ADD SWAP1 PUSH1 0x20 ADD DUP1 DUP4 GT PUSH2 0x119 JUMPI DUP3 SWAP1 SUB PUSH1 0x1F AND DUP3 ADD SWAP2 JUMPDEST POP POP POP POP POP DUP2 MSTORE PUSH1 0x20 ADD PUSH1 0x2 DUP3 ADD DUP1 SLOAD PUSH2 0x14F SWAP1 PUSH2 0x633 JUMP JUMPDEST DUP1 PUSH1 0x1F ADD PUSH1 0x20 DUP1 SWAP2 DIV MUL PUSH1 0x20 ADD PUSH1 0x40 MLOAD SWAP1 DUP2 ADD PUSH1 0x40 MSTORE DUP1 SWAP3 SWAP2 SWAP1 DUP2 DUP2 MSTORE PUSH1 0x20 ADD DUP3 DUP1 SLOAD PUSH2 0x17B SWAP1 PUSH2 0x633 JUMP JUMPDEST DUP1 ISZERO PUSH2 0x1C8 JUMPI DUP1 PUSH1 0x1F LT PUSH2 0x19D JUMPI PUSH2 0x100 DUP1 DUP4 SLOAD DIV MUL DUP4 MSTORE SWAP2 PUSH1 0x20 ADD SWAP2 PUSH2 0x1C8 JUMP JUMPDEST DUP3 ADD SWAP2 SWAP1 PUSH1 0x0 MSTORE PUSH1 0x20 PUSH1 0x0 KECCAK256 SWAP1 JUMPDEST DUP2 SLOAD DUP2 MSTORE SWAP1 PUSH1 0x1 ADD SWAP1 PUSH1 0x20 ADD DUP1 DUP4 GT PUSH2 0x1AB JUMPI DUP3 SWAP1 SUB PUSH1 0x1F AND DUP3 ADD SWAP2 JUMPDEST POP POP POP POP POP DUP2 MSTORE POP POP SWAP1 POP SWAP1 JUMP JUMPDEST PUSH1 0x0 PUSH1 0x60 DUP1 PUSH1 0x0 DUP1 ADD SLOAD PUSH1 0x0 PUSH1 0x1 ADD PUSH1 0x0 PUSH1 0x2 ADD DUP2 DUP1 SLOAD PUSH2 0x1F6 SWAP1 PUSH2 0x633 JUMP JUMPDEST DUP1 PUSH1 0x1F ADD PUSH1 0x20 DUP1 SWAP2 DIV MUL PUSH1 0x20 ADD PUSH1 0x40 MLOAD SWAP1 DUP2 ADD PUSH1 0x40 MSTORE DUP1 SWAP3 SWAP2 SWAP1 DUP2 DUP2 MSTORE PUSH1 0x20 ADD DUP3 DUP1 SLOAD PUSH2 0x222 SWAP1 PUSH2 0x633 JUMP JUMPDEST DUP1 ISZERO PUSH2 0x26F JUMPI DUP1 PUSH1 0x1F LT PUSH2 0x244 JUMPI PUSH2 0x100 DUP1 DUP4 SLOAD DIV MUL DUP4 MSTORE SWAP2 PUSH1 0x20 ADD SWAP2 PUSH2 0x26F JUMP JUMPDEST DUP3 ADD SWAP2 SWAP1 PUSH1 0x0 MSTORE PUSH1 0x20 PUSH1 0x0 KECCAK256 SWAP1 JUMPDEST DUP2 SLOAD DUP2 MSTORE SWAP1 PUSH1 0x1 ADD SWAP1 PUSH1 0x20 ADD DUP1 DUP4 GT PUSH2 0x252 JUMPI DUP3 SWAP1 SUB PUSH1 0x1F AND DUP3 ADD SWAP2 JUMPDEST POP POP POP POP POP SWAP2 POP DUP1 DUP1 SLOAD PUSH2 0x282 SWAP1 PUSH2 0x633 JUMP JUMPDEST DUP1 PUSH1 0x1F ADD PUSH1 0x20 DUP1 SWAP2 DIV MUL PUSH1 0x20 ADD PUSH1 0x40 MLOAD SWAP1 DUP2 ADD PUSH1 0x40 MSTORE DUP1 SWAP3 SWAP2 SWAP1 DUP2 DUP2 MSTORE PUSH1 0x20 ADD DUP3 DUP1 SLOAD PUSH2 0x2AE SWAP1 PUSH2 0x633 JUMP JUMPDEST DUP1 ISZERO PUSH2 0x2FB JUMPI DUP1 PUSH1 0x1F LT PUSH2 0x2D0 JUMPI PUSH2 0x100 DUP1 DUP4 SLOAD DIV MUL DUP4 MSTORE SWAP2 PUSH1 0x20 ADD SWAP2 PUSH2 0x2FB JUMP JUMPDEST DUP3 ADD SWAP2 SWAP1 PUSH1 0x0 MSTORE PUSH1 0x20 PUSH1 0x0 KECCAK256 SWAP1 JUMPDEST DUP2 SLOAD DUP2 MSTORE SWAP1 PUSH1 0x1 ADD SWAP1 PUSH1 0x20 ADD DUP1 DUP4 GT PUSH2 0x2DE JUMPI DUP3 SWAP1 SUB PUSH1 0x1F AND DUP3 ADD SWAP2 JUMPDEST POP POP POP POP POP SWAP1 POP SWAP3 POP SWAP3 POP SWAP3 POP SWAP1 SWAP2 SWAP3 JUMP JUMPDEST PUSH1 0x2 PUSH1 0x0 DUP1 ADD DUP2 SWAP1 SSTORE POP PUSH1 0x40 MLOAD DUP1 PUSH1 0x40 ADD PUSH1 0x40 MSTORE DUP1 PUSH1 0xF DUP2 MSTORE PUSH1 0x20 ADD PUSH32 0x46616E746173746963204D6F7669650000000000000000000000000000000000 DUP2 MSTORE POP PUSH1 0x0 PUSH1 0x1 ADD SWAP1 DUP1 MLOAD SWAP1 PUSH1 0x20 ADD SWAP1 PUSH2 0x365 SWAP3 SWAP2 SWAP1 PUSH2 0x3D8 JUMP JUMPDEST POP PUSH1 0x40 MLOAD DUP1 PUSH1 0x40 ADD PUSH1 0x40 MSTORE DUP1 PUSH1 0x2 DUP2 MSTORE PUSH1 0x20 ADD PUSH32 0x4D65000000000000000000000000000000000000000000000000000000000000 DUP2 MSTORE POP PUSH1 0x0 PUSH1 0x2 ADD SWAP1 DUP1 MLOAD SWAP1 PUSH1 0x20 ADD SWAP1 PUSH2 0x3B4 SWAP3 SWAP2 SWAP1 PUSH2 0x3D8 JUMP JUMPDEST POP JUMP JUMPDEST PUSH1 0x40 MLOAD DUP1 PUSH1 0x60 ADD PUSH1 0x40 MSTORE DUP1 PUSH1 0x0 DUP2 MSTORE PUSH1 0x20 ADD PUSH1 0x60 DUP2 MSTORE PUSH1 0x20 ADD PUSH1 0x60 DUP2 MSTORE POP SWAP1 JUMP JUMPDEST DUP3 DUP1 SLOAD PUSH2 0x3E4 SWAP1 PUSH2 0x633 JUMP JUMPDEST SWAP1 PUSH1 0x0 MSTORE PUSH1 0x20 PUSH1 0x0 KECCAK256 SWAP1 PUSH1 0x1F ADD PUSH1 0x20 SWAP1 DIV DUP2 ADD SWAP3 DUP3 PUSH2 0x406 JUMPI PUSH1 0x0 DUP6 SSTORE PUSH2 0x44D JUMP JUMPDEST DUP3 PUSH1 0x1F LT PUSH2 0x41F JUMPI DUP1 MLOAD PUSH1 0xFF NOT AND DUP4 DUP1 ADD OR DUP6 SSTORE PUSH2 0x44D JUMP JUMPDEST DUP3 DUP1 ADD PUSH1 0x1 ADD DUP6 SSTORE DUP3 ISZERO PUSH2 0x44D JUMPI SWAP2 DUP3 ADD JUMPDEST DUP3 DUP2 GT ISZERO PUSH2 0x44C JUMPI DUP3 MLOAD DUP3 SSTORE SWAP2 PUSH1 0x20 ADD SWAP2 SWAP1 PUSH1 0x1 ADD SWAP1 PUSH2 0x431 JUMP JUMPDEST JUMPDEST POP SWAP1 POP PUSH2 0x45A SWAP2 SWAP1 PUSH2 0x45E JUMP JUMPDEST POP SWAP1 JUMP JUMPDEST JUMPDEST DUP1 DUP3 GT ISZERO PUSH2 0x477 JUMPI PUSH1 0x0 DUP2 PUSH1 0x0 SWAP1 SSTORE POP PUSH1 0x1 ADD PUSH2 0x45F JUMP JUMPDEST POP SWAP1 JUMP JUMPDEST PUSH1 0x0 PUSH2 0x486 DUP3 PUSH2 0x5C9 JUMP JUMPDEST PUSH2 0x490 DUP2 DUP6 PUSH2 0x5D4 JUMP JUMPDEST SWAP4 POP PUSH2 0x4A0 DUP2 DUP6 PUSH1 0x20 DUP7 ADD PUSH2 0x600 JUMP JUMPDEST PUSH2 0x4A9 DUP2 PUSH2 0x694 JUMP JUMPDEST DUP5 ADD SWAP2 POP POP SWAP3 SWAP2 POP POP JUMP JUMPDEST PUSH1 0x0 PUSH2 0x4BF DUP3 PUSH2 0x5C9 JUMP JUMPDEST PUSH2 0x4C9 DUP2 DUP6 PUSH2 0x5E5 JUMP JUMPDEST SWAP4 POP PUSH2 0x4D9 DUP2 DUP6 PUSH1 0x20 DUP7 ADD PUSH2 0x600 JUMP JUMPDEST PUSH2 0x4E2 DUP2 PUSH2 0x694 JUMP JUMPDEST DUP5 ADD SWAP2 POP POP SWAP3 SWAP2 POP POP JUMP JUMPDEST PUSH1 0x0 PUSH1 0x60 DUP4 ADD PUSH1 0x0 DUP4 ADD MLOAD PUSH2 0x505 PUSH1 0x0 DUP7 ADD DUP3 PUSH2 0x544 JUMP JUMPDEST POP PUSH1 0x20 DUP4 ADD MLOAD DUP5 DUP3 SUB PUSH1 0x20 DUP7 ADD MSTORE PUSH2 0x51D DUP3 DUP3 PUSH2 0x47B JUMP JUMPDEST SWAP2 POP POP PUSH1 0x40 DUP4 ADD MLOAD DUP5 DUP3 SUB PUSH1 0x40 DUP7 ADD MSTORE PUSH2 0x537 DUP3 DUP3 PUSH2 0x47B JUMP JUMPDEST SWAP2 POP POP DUP1 SWAP2 POP POP SWAP3 SWAP2 POP POP JUMP JUMPDEST PUSH2 0x54D DUP2 PUSH2 0x5F6 JUMP JUMPDEST DUP3 MSTORE POP POP JUMP JUMPDEST PUSH2 0x55C DUP2 PUSH2 0x5F6 JUMP JUMPDEST DUP3 MSTORE POP POP JUMP JUMPDEST PUSH1 0x0 PUSH1 0x20 DUP3 ADD SWAP1 POP DUP2 DUP2 SUB PUSH1 0x0 DUP4 ADD MSTORE PUSH2 0x57C DUP2 DUP5 PUSH2 0x4ED JUMP JUMPDEST SWAP1 POP SWAP3 SWAP2 POP POP JUMP JUMPDEST PUSH1 0x0 PUSH1 0x60 DUP3 ADD SWAP1 POP PUSH2 0x599 PUSH1 0x0 DUP4 ADD DUP7 PUSH2 0x553 JUMP JUMPDEST DUP2 DUP2 SUB PUSH1 0x20 DUP4 ADD MSTORE PUSH2 0x5AB DUP2 DUP6 PUSH2 0x4B4 JUMP JUMPDEST SWAP1 POP DUP2 DUP2 SUB PUSH1 0x40 DUP4 ADD MSTORE PUSH2 0x5BF DUP2 DUP5 PUSH2 0x4B4 JUMP JUMPDEST SWAP1 POP SWAP5 SWAP4 POP POP POP POP JUMP JUMPDEST PUSH1 0x0 DUP2 MLOAD SWAP1 POP SWAP2 SWAP1 POP JUMP JUMPDEST PUSH1 0x0 DUP3 DUP3 MSTORE PUSH1 0x20 DUP3 ADD SWAP1 POP SWAP3 SWAP2 POP POP JUMP JUMPDEST PUSH1 0x0 DUP3 DUP3 MSTORE PUSH1 0x20 DUP3 ADD SWAP1 POP SWAP3 SWAP2 POP POP JUMP JUMPDEST PUSH1 0x0 DUP2 SWAP1 POP SWAP2 SWAP1 POP JUMP JUMPDEST PUSH1 0x0 JUMPDEST DUP4 DUP2 LT ISZERO PUSH2 0x61E JUMPI DUP1 DUP3 ADD MLOAD DUP2 DUP5 ADD MSTORE PUSH1 0x20 DUP2 ADD SWAP1 POP PUSH2 0x603 JUMP JUMPDEST DUP4 DUP2 GT ISZERO PUSH2 0x62D JUMPI PUSH1 0x0 DUP5 DUP5 ADD MSTORE JUMPDEST POP POP POP POP JUMP JUMPDEST PUSH1 0x0 PUSH1 0x2 DUP3 DIV SWAP1 POP PUSH1 0x1 DUP3 AND DUP1 PUSH2 0x64B JUMPI PUSH1 0x7F DUP3 AND SWAP2 POP JUMPDEST PUSH1 0x20 DUP3 LT DUP2 EQ ISZERO PUSH2 0x65F JUMPI PUSH2 0x65E PUSH2 0x665 JUMP JUMPDEST JUMPDEST POP SWAP2 SWAP1 POP JUMP JUMPDEST PUSH32 0x4E487B7100000000000000000000000000000000000000000000000000000000 PUSH1 0x0 MSTORE PUSH1 0x22 PUSH1 0x4 MSTORE PUSH1 0x24 PUSH1 0x0 REVERT JUMPDEST PUSH1 0x0 PUSH1 0x1F NOT PUSH1 0x1F DUP4 ADD AND SWAP1 POP SWAP2 SWAP1 POP JUMP INVALID LOG2 PUSH5 0x6970667358 0x22 SLT KECCAK256 BLOCKHASH DUP14 SWAP5 PUSH7 0xEDFFDA312B4668 DUP14 0xBC PUSH11 0x9B14BD0BF3DBAE643BB205 0xBE 0x4F 0x2F 0xB7 0xB0 0x5F 0x49 PUSH5 0x736F6C6343 STOP ADDMOD SMOD STOP CALLER "
				},
				"gasEstimates": {
					"creation": {
						"codeDepositCost": "351000",
						"executionCost": "infinite",
						"totalCost": "infinite"
					},
					"external": {
						"getMovie()": "infinite",
						"getMovie2()": "infinite",
						"setMovie()": "infinite"
					}
				},
				"methodIdentifiers": {
					"getMovie()": "7b5f4eef",
					"getMovie2()": "51a8cbca",
					"setMovie()": "f6bb33b1"
				}
			},
			"storageLayout": {
				"storage": [
					{
						"astId": 16,
						"contract": "structs.sol:learnStructs",
						"label": "movie",
						"offset": 0,
						"slot": "0",
						"type": "t_struct(Movie)8_storage"
					}
				],
				"types": {
					"t_string_storage": {
						"encoding": "bytes",
						"label": "string",
						"numberOfBytes": "32"
					},
					"t_struct(Movie)8_storage": {
						"encoding": "inplace",
						"label": "struct learnStructs.Movie",
						"members": [
							{
								"astId": 3,
								"contract": "structs.sol:learnStructs",
								"label": "id",
								"offset": 0,
								"slot": "0",
								"type": "t_uint256"
							},
							{
								"astId": 5,
								"contract": "structs.sol:learnStructs",
								"label": "title",
								"offset": 0,
								"slot": "1",
								"type": "t_string_storage"
							},
							{
								"astId": 7,
								"contract": "structs.sol:learnStructs",
								"label": "director",
								"offset": 0,
								"slot": "2",
								"type": "t_string_storage"
							}
						],
						"numberOfBytes": "96"
					},
					"t_uint256": {
						"encoding": "inplace",
						"label": "uint256",
						"numberOfBytes": "32"
					}
				}
			},
			"userdoc": {
				"kind": "user",
				"methods": {},
				"version": 1
			}
		}
	}
}