{
	"contracts/Enums.sol": {
		"enumsLearn": {
			"abi": [
				{
					"inputs": [],
					"name": "getChoice",
					"outputs": [
						{
							"internalType": "enum enumsLearn.frenchFriesSize",
							"name": "",
							"type": "uint8"
						}
					],
					"stateMutability": "view",
					"type": "function"
				},
				{
					"inputs": [],
					"name": "setLarge",
					"outputs": [],
					"stateMutability": "nonpayable",
					"type": "function"
				},
				{
					"inputs": [],
					"name": "setMedium",
					"outputs": [],
					"stateMutability": "nonpayable",
					"type": "function"
				},
				{
					"inputs": [],
					"name": "setSmall",
					"outputs": [],
					"stateMutability": "nonpayable",
					"type": "function"
				}
			],
			"devdoc": {
				"kind": "dev",
				"methods": {},
				"version": 1
			},
			"evm": {
				"assembly": "    /* \"contracts/Enums.sol\":70:600  contract enumsLearn{\r... */\n  mstore(0x40, 0x80)\n  callvalue\n  dup1\n  iszero\n  tag_1\n  jumpi\n  0x00\n  dup1\n  revert\ntag_1:\n  pop\n  dataSize(sub_0)\n  dup1\n  dataOffset(sub_0)\n  0x00\n  codecopy\n  0x00\n  return\nstop\n\nsub_0: assembly {\n        /* \"contracts/Enums.sol\":70:600  contract enumsLearn{\r... */\n      mstore(0x40, 0x80)\n      callvalue\n      dup1\n      iszero\n      tag_1\n      jumpi\n      0x00\n      dup1\n      revert\n    tag_1:\n      pop\n      jumpi(tag_2, lt(calldatasize, 0x04))\n      shr(0xe0, calldataload(0x00))\n      dup1\n      0x67cb61b6\n      eq\n      tag_3\n      jumpi\n      dup1\n      0x694ebe4f\n      eq\n      tag_4\n      jumpi\n      dup1\n      0x91ff2c86\n      eq\n      tag_5\n      jumpi\n      dup1\n      0xdb39b915\n      eq\n      tag_6\n      jumpi\n    tag_2:\n      0x00\n      dup1\n      revert\n        /* \"contracts/Enums.sol\":489:595  function getChoice() public view returns(frenchFriesSize){\r... */\n    tag_3:\n      tag_7\n      tag_8\n      jump\t// in\n    tag_7:\n      mload(0x40)\n      tag_9\n      swap2\n      swap1\n      tag_10\n      jump\t// in\n    tag_9:\n      mload(0x40)\n      dup1\n      swap2\n      sub\n      swap1\n      return\n        /* \"contracts/Enums.sol\":408:483  function setLarge() public{\r... */\n    tag_4:\n      tag_11\n      tag_12\n      jump\t// in\n    tag_11:\n      stop\n        /* \"contracts/Enums.sol\":244:319  function setSmall() public{\r... */\n    tag_5:\n      tag_13\n      tag_14\n      jump\t// in\n    tag_13:\n      stop\n        /* \"contracts/Enums.sol\":325:402  function setMedium() public{\r... */\n    tag_6:\n      tag_15\n      tag_16\n      jump\t// in\n    tag_15:\n      stop\n        /* \"contracts/Enums.sol\":489:595  function getChoice() public view returns(frenchFriesSize){\r... */\n    tag_8:\n        /* \"contracts/Enums.sol\":530:545  frenchFriesSize */\n      0x00\n        /* \"contracts/Enums.sol\":580:586  choice */\n      dup1\n      0x00\n      swap1\n      sload\n      swap1\n      0x0100\n      exp\n      swap1\n      div\n      0xff\n      and\n        /* \"contracts/Enums.sol\":557:587  return frenchFriesSize(choice) */\n      swap1\n      pop\n        /* \"contracts/Enums.sol\":489:595  function getChoice() public view returns(frenchFriesSize){\r... */\n      swap1\n      jump\t// out\n        /* \"contracts/Enums.sol\":408:483  function setLarge() public{\r... */\n    tag_12:\n        /* \"contracts/Enums.sol\":454:475  frenchFriesSize.LARGE */\n      0x02\n        /* \"contracts/Enums.sol\":445:451  choice */\n      0x00\n      dup1\n        /* \"contracts/Enums.sol\":445:475  choice = frenchFriesSize.LARGE */\n      0x0100\n      exp\n      dup2\n      sload\n      dup2\n      0xff\n      mul\n      not\n      and\n      swap1\n      dup4\n      0x02\n      dup2\n      gt\n      iszero\n      tag_19\n      jumpi\n      tag_20\n      tag_21\n      jump\t// in\n    tag_20:\n    tag_19:\n      mul\n      or\n      swap1\n      sstore\n      pop\n        /* \"contracts/Enums.sol\":408:483  function setLarge() public{\r... */\n      jump\t// out\n        /* \"contracts/Enums.sol\":244:319  function setSmall() public{\r... */\n    tag_14:\n        /* \"contracts/Enums.sol\":290:311  frenchFriesSize.SMALL */\n      0x00\n        /* \"contracts/Enums.sol\":281:287  choice */\n      dup1\n      0x00\n        /* \"contracts/Enums.sol\":281:311  choice = frenchFriesSize.SMALL */\n      0x0100\n      exp\n      dup2\n      sload\n      dup2\n      0xff\n      mul\n      not\n      and\n      swap1\n      dup4\n      0x02\n      dup2\n      gt\n      iszero\n      tag_23\n      jumpi\n      tag_24\n      tag_21\n      jump\t// in\n    tag_24:\n    tag_23:\n      mul\n      or\n      swap1\n      sstore\n      pop\n        /* \"contracts/Enums.sol\":244:319  function setSmall() public{\r... */\n      jump\t// out\n        /* \"contracts/Enums.sol\":325:402  function setMedium() public{\r... */\n    tag_16:\n        /* \"contracts/Enums.sol\":372:394  frenchFriesSize.MEDIUM */\n      0x01\n        /* \"contracts/Enums.sol\":363:369  choice */\n      0x00\n      dup1\n        /* \"contracts/Enums.sol\":363:394  choice = frenchFriesSize.MEDIUM */\n      0x0100\n      exp\n      dup2\n      sload\n      dup2\n      0xff\n      mul\n      not\n      and\n      swap1\n      dup4\n      0x02\n      dup2\n      gt\n      iszero\n      tag_26\n      jumpi\n      tag_27\n      tag_21\n      jump\t// in\n    tag_27:\n    tag_26:\n      mul\n      or\n      swap1\n      sstore\n      pop\n        /* \"contracts/Enums.sol\":325:402  function setMedium() public{\r... */\n      jump\t// out\n        /* \"#utility.yul\":7:168   */\n    tag_29:\n        /* \"#utility.yul\":109:161   */\n      tag_31\n        /* \"#utility.yul\":155:160   */\n      dup2\n        /* \"#utility.yul\":109:161   */\n      tag_32\n      jump\t// in\n    tag_31:\n        /* \"#utility.yul\":104:107   */\n      dup3\n        /* \"#utility.yul\":97:162   */\n      mstore\n        /* \"#utility.yul\":7:168   */\n      pop\n      pop\n      jump\t// out\n        /* \"#utility.yul\":174:426   */\n    tag_10:\n        /* \"#utility.yul\":282:286   */\n      0x00\n        /* \"#utility.yul\":320:322   */\n      0x20\n        /* \"#utility.yul\":309:318   */\n      dup3\n        /* \"#utility.yul\":305:323   */\n      add\n        /* \"#utility.yul\":297:323   */\n      swap1\n      pop\n        /* \"#utility.yul\":333:419   */\n      tag_34\n        /* \"#utility.yul\":416:417   */\n      0x00\n        /* \"#utility.yul\":405:414   */\n      dup4\n        /* \"#utility.yul\":401:418   */\n      add\n        /* \"#utility.yul\":392:398   */\n      dup5\n        /* \"#utility.yul\":333:419   */\n      tag_29\n      jump\t// in\n    tag_34:\n        /* \"#utility.yul\":174:426   */\n      swap3\n      swap2\n      pop\n      pop\n      jump\t// out\n        /* \"#utility.yul\":432:577   */\n    tag_35:\n        /* \"#utility.yul\":486:493   */\n      0x00\n        /* \"#utility.yul\":515:520   */\n      dup2\n        /* \"#utility.yul\":504:520   */\n      swap1\n      pop\n        /* \"#utility.yul\":521:571   */\n      tag_37\n        /* \"#utility.yul\":565:570   */\n      dup3\n        /* \"#utility.yul\":521:571   */\n      tag_38\n      jump\t// in\n    tag_37:\n        /* \"#utility.yul\":432:577   */\n      swap2\n      swap1\n      pop\n      jump\t// out\n        /* \"#utility.yul\":583:728   */\n    tag_32:\n        /* \"#utility.yul\":648:657   */\n      0x00\n        /* \"#utility.yul\":681:722   */\n      tag_40\n        /* \"#utility.yul\":716:721   */\n      dup3\n        /* \"#utility.yul\":681:722   */\n      tag_35\n      jump\t// in\n    tag_40:\n        /* \"#utility.yul\":668:722   */\n      swap1\n      pop\n        /* \"#utility.yul\":583:728   */\n      swap2\n      swap1\n      pop\n      jump\t// out\n        /* \"#utility.yul\":734:914   */\n    tag_21:\n        /* \"#utility.yul\":782:859   */\n      0x4e487b7100000000000000000000000000000000000000000000000000000000\n        /* \"#utility.yul\":779:780   */\n      0x00\n        /* \"#utility.yul\":772:860   */\n      mstore\n        /* \"#utility.yul\":879:883   */\n      0x21\n        /* \"#utility.yul\":876:877   */\n      0x04\n        /* \"#utility.yul\":869:884   */\n      mstore\n        /* \"#utility.yul\":903:907   */\n      0x24\n        /* \"#utility.yul\":900:901   */\n      0x00\n        /* \"#utility.yul\":893:908   */\n      revert\n        /* \"#utility.yul\":920:1042   */\n    tag_38:\n        /* \"#utility.yul\":1010:1011   */\n      0x03\n        /* \"#utility.yul\":1003:1008   */\n      dup2\n        /* \"#utility.yul\":1000:1012   */\n      lt\n        /* \"#utility.yul\":990:1036   */\n      tag_43\n      jumpi\n        /* \"#utility.yul\":1016:1034   */\n      tag_44\n      tag_21\n      jump\t// in\n    tag_44:\n        /* \"#utility.yul\":990:1036   */\n    tag_43:\n        /* \"#utility.yul\":920:1042   */\n      pop\n      jump\t// out\n\n    auxdata: 0xa2646970667358221220bfd1298184e47fad011469dfdd8e4a78b4b5fa8c42ea9d19838484a8e2e56cc064736f6c63430008070033\n}\n",
				"bytecode": {
					"linkReferences": {},
					"object": "608060405234801561001057600080fd5b506101ef806100206000396000f3fe608060405234801561001057600080fd5b506004361061004c5760003560e01c806367cb61b614610051578063694ebe4f1461006f57806391ff2c8614610079578063db39b91514610083575b600080fd5b61005961008d565b6040516100669190610136565b60405180910390f35b6100776100a3565b005b6100816100cf565b005b61008b6100fb565b005b60008060009054906101000a900460ff16905090565b60026000806101000a81548160ff021916908360028111156100c8576100c7610176565b5b0217905550565b60008060006101000a81548160ff021916908360028111156100f4576100f3610176565b5b0217905550565b60016000806101000a81548160ff021916908360028111156101205761011f610176565b5b0217905550565b61013081610164565b82525050565b600060208201905061014b6000830184610127565b92915050565b600081905061015f826101a5565b919050565b600061016f82610151565b9050919050565b7f4e487b7100000000000000000000000000000000000000000000000000000000600052602160045260246000fd5b600381106101b6576101b5610176565b5b5056fea2646970667358221220bfd1298184e47fad011469dfdd8e4a78b4b5fa8c42ea9d19838484a8e2e56cc064736f6c63430008070033",
					"opcodes": "PUSH1 0x80 PUSH1 0x40 MSTORE CALLVALUE DUP1 ISZERO PUSH2 0x10 JUMPI PUSH1 0x0 DUP1 REVERT JUMPDEST POP PUSH2 0x1EF DUP1 PUSH2 0x20 PUSH1 0x0 CODECOPY PUSH1 0x0 RETURN INVALID PUSH1 0x80 PUSH1 0x40 MSTORE CALLVALUE DUP1 ISZERO PUSH2 0x10 JUMPI PUSH1 0x0 DUP1 REVERT JUMPDEST POP PUSH1 0x4 CALLDATASIZE LT PUSH2 0x4C JUMPI PUSH1 0x0 CALLDATALOAD PUSH1 0xE0 SHR DUP1 PUSH4 0x67CB61B6 EQ PUSH2 0x51 JUMPI DUP1 PUSH4 0x694EBE4F EQ PUSH2 0x6F JUMPI DUP1 PUSH4 0x91FF2C86 EQ PUSH2 0x79 JUMPI DUP1 PUSH4 0xDB39B915 EQ PUSH2 0x83 JUMPI JUMPDEST PUSH1 0x0 DUP1 REVERT JUMPDEST PUSH2 0x59 PUSH2 0x8D JUMP JUMPDEST PUSH1 0x40 MLOAD PUSH2 0x66 SWAP2 SWAP1 PUSH2 0x136 JUMP JUMPDEST PUSH1 0x40 MLOAD DUP1 SWAP2 SUB SWAP1 RETURN JUMPDEST PUSH2 0x77 PUSH2 0xA3 JUMP JUMPDEST STOP JUMPDEST PUSH2 0x81 PUSH2 0xCF JUMP JUMPDEST STOP JUMPDEST PUSH2 0x8B PUSH2 0xFB JUMP JUMPDEST STOP JUMPDEST PUSH1 0x0 DUP1 PUSH1 0x0 SWAP1 SLOAD SWAP1 PUSH2 0x100 EXP SWAP1 DIV PUSH1 0xFF AND SWAP1 POP SWAP1 JUMP JUMPDEST PUSH1 0x2 PUSH1 0x0 DUP1 PUSH2 0x100 EXP DUP2 SLOAD DUP2 PUSH1 0xFF MUL NOT AND SWAP1 DUP4 PUSH1 0x2 DUP2 GT ISZERO PUSH2 0xC8 JUMPI PUSH2 0xC7 PUSH2 0x176 JUMP JUMPDEST JUMPDEST MUL OR SWAP1 SSTORE POP JUMP JUMPDEST PUSH1 0x0 DUP1 PUSH1 0x0 PUSH2 0x100 EXP DUP2 SLOAD DUP2 PUSH1 0xFF MUL NOT AND SWAP1 DUP4 PUSH1 0x2 DUP2 GT ISZERO PUSH2 0xF4 JUMPI PUSH2 0xF3 PUSH2 0x176 JUMP JUMPDEST JUMPDEST MUL OR SWAP1 SSTORE POP JUMP JUMPDEST PUSH1 0x1 PUSH1 0x0 DUP1 PUSH2 0x100 EXP DUP2 SLOAD DUP2 PUSH1 0xFF MUL NOT AND SWAP1 DUP4 PUSH1 0x2 DUP2 GT ISZERO PUSH2 0x120 JUMPI PUSH2 0x11F PUSH2 0x176 JUMP JUMPDEST JUMPDEST MUL OR SWAP1 SSTORE POP JUMP JUMPDEST PUSH2 0x130 DUP2 PUSH2 0x164 JUMP JUMPDEST DUP3 MSTORE POP POP JUMP JUMPDEST PUSH1 0x0 PUSH1 0x20 DUP3 ADD SWAP1 POP PUSH2 0x14B PUSH1 0x0 DUP4 ADD DUP5 PUSH2 0x127 JUMP JUMPDEST SWAP3 SWAP2 POP POP JUMP JUMPDEST PUSH1 0x0 DUP2 SWAP1 POP PUSH2 0x15F DUP3 PUSH2 0x1A5 JUMP JUMPDEST SWAP2 SWAP1 POP JUMP JUMPDEST PUSH1 0x0 PUSH2 0x16F DUP3 PUSH2 0x151 JUMP JUMPDEST SWAP1 POP SWAP2 SWAP1 POP JUMP JUMPDEST PUSH32 0x4E487B7100000000000000000000000000000000000000000000000000000000 PUSH1 0x0 MSTORE PUSH1 0x21 PUSH1 0x4 MSTORE PUSH1 0x24 PUSH1 0x0 REVERT JUMPDEST PUSH1 0x3 DUP2 LT PUSH2 0x1B6 JUMPI PUSH2 0x1B5 PUSH2 0x176 JUMP JUMPDEST JUMPDEST POP JUMP INVALID LOG2 PUSH5 0x6970667358 0x22 SLT KECCAK256 0xBF 0xD1 0x29 DUP2 DUP5 0xE4 PUSH32 0xAD011469DFDD8E4A78B4B5FA8C42EA9D19838484A8E2E56CC064736F6C634300 ADDMOD SMOD STOP CALLER "
				},
				"gasEstimates": {
					"creation": {
						"codeDepositCost": "99000",
						"executionCost": "147",
						"totalCost": "99147"
					},
					"external": {
						"getChoice()": "2546",
						"setLarge()": "24431",
						"setMedium()": "24475",
						"setSmall()": "24453"
					}
				},
				"methodIdentifiers": {
					"getChoice()": "67cb61b6",
					"setLarge()": "694ebe4f",
					"setMedium()": "db39b915",
					"setSmall()": "91ff2c86"
				}
			},
			"storageLayout": {
				"storage": [
					{
						"astId": 8,
						"contract": "contracts/Enums.sol:enumsLearn",
						"label": "choice",
						"offset": 0,
						"slot": "0",
						"type": "t_enum(frenchFriesSize)5"
					}
				],
				"types": {
					"t_enum(frenchFriesSize)5": {
						"encoding": "inplace",
						"label": "enum enumsLearn.frenchFriesSize",
						"numberOfBytes": "1"
					}
				}
			},
			"userdoc": {
				"kind": "user",
				"methods": {},
				"version": 1
			}
		}
	}
}