{
	"withdraw-pattern-remixai.sol": {
		"SecureBank": {
			"abi": [
				{
					"inputs": [],
					"stateMutability": "payable",
					"type": "constructor"
				},
				{
					"inputs": [
						{
							"internalType": "address",
							"name": "_owner",
							"type": "address"
						}
					],
					"name": "balanceOf",
					"outputs": [
						{
							"internalType": "uint256",
							"name": "",
							"type": "uint256"
						}
					],
					"stateMutability": "view",
					"type": "function"
				},
				{
					"inputs": [
						{
							"internalType": "address",
							"name": "",
							"type": "address"
						}
					],
					"name": "balances",
					"outputs": [
						{
							"internalType": "uint256",
							"name": "",
							"type": "uint256"
						}
					],
					"stateMutability": "view",
					"type": "function"
				},
				{
					"inputs": [
						{
							"internalType": "uint256",
							"name": "amount",
							"type": "uint256"
						}
					],
					"name": "withdraw",
					"outputs": [
						{
							"internalType": "bool",
							"name": "",
							"type": "bool"
						}
					],
					"stateMutability": "nonpayable",
					"type": "function"
				}
			],
			"devdoc": {
				"kind": "dev",
				"methods": {},
				"version": 1
			},
			"evm": {
				"assembly": "    /* \"withdraw-pattern-remixai.sol\":60:1296  contract SecureBank {\r... */\n  mstore(0x40, 0x80)\n    /* \"withdraw-pattern-remixai.sol\":479:488  msg.value */\n  callvalue\n    /* \"withdraw-pattern-remixai.sol\":455:463  balances */\n  0x00\n    /* \"withdraw-pattern-remixai.sol\":455:475  balances[msg.sender] */\n  dup1\n    /* \"withdraw-pattern-remixai.sol\":464:474  msg.sender */\n  caller\n    /* \"withdraw-pattern-remixai.sol\":455:475  balances[msg.sender] */\n  0xffffffffffffffffffffffffffffffffffffffff\n  and\n  0xffffffffffffffffffffffffffffffffffffffff\n  and\n  dup2\n  mstore\n  0x20\n  add\n  swap1\n  dup2\n  mstore\n  0x20\n  add\n  0x00\n  keccak256\n  0x00\n    /* \"withdraw-pattern-remixai.sol\":455:488  balances[msg.sender] += msg.value */\n  dup3\n  dup3\n  sload\n  tag_3\n  swap2\n  swap1\n  tag_4\n  jump\t// in\ntag_3:\n  swap3\n  pop\n  pop\n  dup2\n  swap1\n  sstore\n  pop\n    /* \"withdraw-pattern-remixai.sol\":60:1296  contract SecureBank {\r... */\n  jump(tag_5)\n    /* \"#utility.yul\":7:312   */\ntag_4:\n    /* \"#utility.yul\":47:50   */\n  0x00\n    /* \"#utility.yul\":66:86   */\n  tag_8\n    /* \"#utility.yul\":84:85   */\n  dup3\n    /* \"#utility.yul\":66:86   */\n  tag_9\n  jump\t// in\ntag_8:\n    /* \"#utility.yul\":61:86   */\n  swap2\n  pop\n    /* \"#utility.yul\":100:120   */\n  tag_10\n    /* \"#utility.yul\":118:119   */\n  dup4\n    /* \"#utility.yul\":100:120   */\n  tag_9\n  jump\t// in\ntag_10:\n    /* \"#utility.yul\":95:120   */\n  swap3\n  pop\n    /* \"#utility.yul\":254:255   */\n  dup3\n    /* \"#utility.yul\":186:252   */\n  0xffffffffffffffffffffffffffffffffffffffffffffffffffffffffffffffff\n    /* \"#utility.yul\":182:256   */\n  sub\n    /* \"#utility.yul\":179:180   */\n  dup3\n    /* \"#utility.yul\":176:257   */\n  gt\n    /* \"#utility.yul\":173:280   */\n  iszero\n  tag_11\n  jumpi\n    /* \"#utility.yul\":260:278   */\n  tag_12\n  tag_13\n  jump\t// in\ntag_12:\n    /* \"#utility.yul\":173:280   */\ntag_11:\n    /* \"#utility.yul\":304:305   */\n  dup3\n    /* \"#utility.yul\":301:302   */\n  dup3\n    /* \"#utility.yul\":297:306   */\n  add\n    /* \"#utility.yul\":290:306   */\n  swap1\n  pop\n    /* \"#utility.yul\":7:312   */\n  swap3\n  swap2\n  pop\n  pop\n  jump\t// out\n    /* \"#utility.yul\":318:395   */\ntag_9:\n    /* \"#utility.yul\":355:362   */\n  0x00\n    /* \"#utility.yul\":384:389   */\n  dup2\n    /* \"#utility.yul\":373:389   */\n  swap1\n  pop\n    /* \"#utility.yul\":318:395   */\n  swap2\n  swap1\n  pop\n  jump\t// out\n    /* \"#utility.yul\":401:581   */\ntag_13:\n    /* \"#utility.yul\":449:526   */\n  0x4e487b7100000000000000000000000000000000000000000000000000000000\n    /* \"#utility.yul\":446:447   */\n  0x00\n    /* \"#utility.yul\":439:527   */\n  mstore\n    /* \"#utility.yul\":546:550   */\n  0x11\n    /* \"#utility.yul\":543:544   */\n  0x04\n    /* \"#utility.yul\":536:551   */\n  mstore\n    /* \"#utility.yul\":570:574   */\n  0x24\n    /* \"#utility.yul\":567:568   */\n  0x00\n    /* \"#utility.yul\":560:575   */\n  revert\n    /* \"withdraw-pattern-remixai.sol\":60:1296  contract SecureBank {\r... */\ntag_5:\n  dataSize(sub_0)\n  dup1\n  dataOffset(sub_0)\n  0x00\n  codecopy\n  0x00\n  return\nstop\n\nsub_0: assembly {\n        /* \"withdraw-pattern-remixai.sol\":60:1296  contract SecureBank {\r... */\n      mstore(0x40, 0x80)\n      callvalue\n      dup1\n      iszero\n      tag_1\n      jumpi\n      0x00\n      dup1\n      revert\n    tag_1:\n      pop\n      jumpi(tag_2, lt(calldatasize, 0x04))\n      shr(0xe0, calldataload(0x00))\n      dup1\n      0x27e235e3\n      eq\n      tag_3\n      jumpi\n      dup1\n      0x2e1a7d4d\n      eq\n      tag_4\n      jumpi\n      dup1\n      0x70a08231\n      eq\n      tag_5\n      jumpi\n    tag_2:\n      0x00\n      dup1\n      revert\n        /* \"withdraw-pattern-remixai.sol\":91:134  mapping(address => uint256) public balances */\n    tag_3:\n      tag_6\n      0x04\n      dup1\n      calldatasize\n      sub\n      dup2\n      add\n      swap1\n      tag_7\n      swap2\n      swap1\n      tag_8\n      jump\t// in\n    tag_7:\n      tag_9\n      jump\t// in\n    tag_6:\n      mload(0x40)\n      tag_10\n      swap2\n      swap1\n      tag_11\n      jump\t// in\n    tag_10:\n      mload(0x40)\n      dup1\n      swap2\n      sub\n      swap1\n      return\n        /* \"withdraw-pattern-remixai.sol\":504:1000  function withdraw(uint256 amount) public nonReentrant returns (bool){\r... */\n    tag_4:\n      tag_12\n      0x04\n      dup1\n      calldatasize\n      sub\n      dup2\n      add\n      swap1\n      tag_13\n      swap2\n      swap1\n      tag_14\n      jump\t// in\n    tag_13:\n      tag_15\n      jump\t// in\n    tag_12:\n      mload(0x40)\n      tag_16\n      swap2\n      swap1\n      tag_17\n      jump\t// in\n    tag_16:\n      mload(0x40)\n      dup1\n      swap2\n      sub\n      swap1\n      return\n        /* \"withdraw-pattern-remixai.sol\":1008:1293  function balanceOf(address _owner) public view returns (uint256){\r... */\n    tag_5:\n      tag_18\n      0x04\n      dup1\n      calldatasize\n      sub\n      dup2\n      add\n      swap1\n      tag_19\n      swap2\n      swap1\n      tag_8\n      jump\t// in\n    tag_19:\n      tag_20\n      jump\t// in\n    tag_18:\n      mload(0x40)\n      tag_21\n      swap2\n      swap1\n      tag_11\n      jump\t// in\n    tag_21:\n      mload(0x40)\n      dup1\n      swap2\n      sub\n      swap1\n      return\n        /* \"withdraw-pattern-remixai.sol\":91:134  mapping(address => uint256) public balances */\n    tag_9:\n      mstore(0x20, 0x00)\n      dup1\n      0x00\n      mstore\n      keccak256(0x00, 0x40)\n      0x00\n      swap2\n      pop\n      swap1\n      pop\n      sload\n      dup2\n      jump\t// out\n        /* \"withdraw-pattern-remixai.sol\":504:1000  function withdraw(uint256 amount) public nonReentrant returns (bool){\r... */\n    tag_15:\n        /* \"withdraw-pattern-remixai.sol\":567:571  bool */\n      0x00\n        /* \"withdraw-pattern-remixai.sol\":225:231  locked */\n      0x01\n      0x00\n      swap1\n      sload\n      swap1\n      0x0100\n      exp\n      swap1\n      div\n      0xff\n      and\n        /* \"withdraw-pattern-remixai.sol\":224:231  !locked */\n      iszero\n        /* \"withdraw-pattern-remixai.sol\":216:232  require(!locked) */\n      tag_23\n      jumpi\n      0x00\n      dup1\n      revert\n    tag_23:\n        /* \"withdraw-pattern-remixai.sol\":270:274  true */\n      0x01\n        /* \"withdraw-pattern-remixai.sol\":261:267  locked */\n      dup1\n      0x00\n        /* \"withdraw-pattern-remixai.sol\":261:274  locked = true */\n      0x0100\n      exp\n      dup2\n      sload\n      dup2\n      0xff\n      mul\n      not\n      and\n      swap1\n      dup4\n      iszero\n      iszero\n      mul\n      or\n      swap1\n      sstore\n      pop\n        /* \"withdraw-pattern-remixai.sol\":595:596  0 */\n      0x00\n        /* \"withdraw-pattern-remixai.sol\":586:592  amount */\n      dup3\n        /* \"withdraw-pattern-remixai.sol\":586:596  amount > 0 */\n      gt\n        /* \"withdraw-pattern-remixai.sol\":586:629  amount > 0 && balanceOf(msg.sender)>=amount */\n      dup1\n      iszero\n      tag_25\n      jumpi\n      pop\n        /* \"withdraw-pattern-remixai.sol\":623:629  amount */\n      dup2\n        /* \"withdraw-pattern-remixai.sol\":600:621  balanceOf(msg.sender) */\n      tag_26\n        /* \"withdraw-pattern-remixai.sol\":610:620  msg.sender */\n      caller\n        /* \"withdraw-pattern-remixai.sol\":600:609  balanceOf */\n      tag_20\n        /* \"withdraw-pattern-remixai.sol\":600:621  balanceOf(msg.sender) */\n      jump\t// in\n    tag_26:\n        /* \"withdraw-pattern-remixai.sol\":600:629  balanceOf(msg.sender)>=amount */\n      lt\n      iszero\n        /* \"withdraw-pattern-remixai.sol\":586:629  amount > 0 && balanceOf(msg.sender)>=amount */\n    tag_25:\n        /* \"withdraw-pattern-remixai.sol\":583:979  if(amount > 0 && balanceOf(msg.sender)>=amount)\r... */\n      iszero\n      tag_27\n      jumpi\n        /* \"withdraw-pattern-remixai.sol\":693:699  amount */\n      dup2\n        /* \"withdraw-pattern-remixai.sol\":671:679  balances */\n      0x00\n        /* \"withdraw-pattern-remixai.sol\":671:691  balances[msg.sender] */\n      dup1\n        /* \"withdraw-pattern-remixai.sol\":680:690  msg.sender */\n      caller\n        /* \"withdraw-pattern-remixai.sol\":671:691  balances[msg.sender] */\n      0xffffffffffffffffffffffffffffffffffffffff\n      and\n      0xffffffffffffffffffffffffffffffffffffffff\n      and\n      dup2\n      mstore\n      0x20\n      add\n      swap1\n      dup2\n      mstore\n      0x20\n      add\n      0x00\n      keccak256\n      sload\n        /* \"withdraw-pattern-remixai.sol\":671:699  balances[msg.sender]>=amount */\n      lt\n      iszero\n        /* \"withdraw-pattern-remixai.sol\":663:700  require(balances[msg.sender]>=amount) */\n      tag_28\n      jumpi\n      0x00\n      dup1\n      revert\n    tag_28:\n        /* \"withdraw-pattern-remixai.sol\":719:734  uint newbalance */\n      0x00\n        /* \"withdraw-pattern-remixai.sol\":757:763  amount */\n      dup3\n        /* \"withdraw-pattern-remixai.sol\":736:744  balances */\n      0x00\n        /* \"withdraw-pattern-remixai.sol\":736:756  balances[msg.sender] */\n      dup1\n        /* \"withdraw-pattern-remixai.sol\":745:755  msg.sender */\n      caller\n        /* \"withdraw-pattern-remixai.sol\":736:756  balances[msg.sender] */\n      0xffffffffffffffffffffffffffffffffffffffff\n      and\n      0xffffffffffffffffffffffffffffffffffffffff\n      and\n      dup2\n      mstore\n      0x20\n      add\n      swap1\n      dup2\n      mstore\n      0x20\n      add\n      0x00\n      keccak256\n      sload\n        /* \"withdraw-pattern-remixai.sol\":736:763  balances[msg.sender]-amount */\n      tag_29\n      swap2\n      swap1\n      tag_30\n      jump\t// in\n    tag_29:\n        /* \"withdraw-pattern-remixai.sol\":719:763  uint newbalance =balances[msg.sender]-amount */\n      swap1\n      pop\n        /* \"withdraw-pattern-remixai.sol\":804:814  newbalance */\n      dup1\n        /* \"withdraw-pattern-remixai.sol\":783:791  balances */\n      0x00\n        /* \"withdraw-pattern-remixai.sol\":783:803  balances[msg.sender] */\n      dup1\n        /* \"withdraw-pattern-remixai.sol\":792:802  msg.sender */\n      caller\n        /* \"withdraw-pattern-remixai.sol\":783:803  balances[msg.sender] */\n      0xffffffffffffffffffffffffffffffffffffffff\n      and\n      0xffffffffffffffffffffffffffffffffffffffff\n      and\n      dup2\n      mstore\n      0x20\n      add\n      swap1\n      dup2\n      mstore\n      0x20\n      add\n      0x00\n      keccak256\n        /* \"withdraw-pattern-remixai.sol\":783:814  balances[msg.sender]=newbalance */\n      dup2\n      swap1\n      sstore\n      pop\n        /* \"withdraw-pattern-remixai.sol\":845:849  true */\n      0x01\n        /* \"withdraw-pattern-remixai.sol\":838:849  return true */\n      swap2\n      pop\n      pop\n      jump(tag_24)\n        /* \"withdraw-pattern-remixai.sol\":583:979  if(amount > 0 && balanceOf(msg.sender)>=amount)\r... */\n    tag_27:\n        /* \"withdraw-pattern-remixai.sol\":918:963  revert(\"Amount is too large or insufficient\") */\n      mload(0x40)\n      0x08c379a000000000000000000000000000000000000000000000000000000000\n      dup2\n      mstore\n      0x04\n      add\n      tag_32\n      swap1\n      tag_33\n      jump\t// in\n    tag_32:\n      mload(0x40)\n      dup1\n      swap2\n      sub\n      swap1\n      revert\n        /* \"withdraw-pattern-remixai.sol\":303:304  _ */\n    tag_24:\n        /* \"withdraw-pattern-remixai.sol\":386:391  false */\n      0x00\n        /* \"withdraw-pattern-remixai.sol\":377:383  locked */\n      0x01\n      0x00\n        /* \"withdraw-pattern-remixai.sol\":377:391  locked = false */\n      0x0100\n      exp\n      dup2\n      sload\n      dup2\n      0xff\n      mul\n      not\n      and\n      swap1\n      dup4\n      iszero\n      iszero\n      mul\n      or\n      swap1\n      sstore\n      pop\n        /* \"withdraw-pattern-remixai.sol\":504:1000  function withdraw(uint256 amount) public nonReentrant returns (bool){\r... */\n      swap2\n      swap1\n      pop\n      jump\t// out\n        /* \"withdraw-pattern-remixai.sol\":1008:1293  function balanceOf(address _owner) public view returns (uint256){\r... */\n    tag_20:\n        /* \"withdraw-pattern-remixai.sol\":1064:1071  uint256 */\n      0x00\n        /* \"withdraw-pattern-remixai.sol\":1105:1106  0 */\n      dup1\n        /* \"withdraw-pattern-remixai.sol\":1087:1107  _owner != address(0) */\n      0xffffffffffffffffffffffffffffffffffffffff\n      and\n        /* \"withdraw-pattern-remixai.sol\":1087:1093  _owner */\n      dup3\n        /* \"withdraw-pattern-remixai.sol\":1087:1107  _owner != address(0) */\n      0xffffffffffffffffffffffffffffffffffffffff\n      and\n      eq\n      iszero\n        /* \"withdraw-pattern-remixai.sol\":1079:1108  require(_owner != address(0)) */\n      tag_35\n      jumpi\n      0x00\n      dup1\n      revert\n    tag_35:\n        /* \"withdraw-pattern-remixai.sol\":1115:1132  uint ownerBalance */\n      0x00\n        /* \"withdraw-pattern-remixai.sol\":1134:1142  balances */\n      dup1\n        /* \"withdraw-pattern-remixai.sol\":1134:1150  balances[_owner] */\n      0x00\n        /* \"withdraw-pattern-remixai.sol\":1143:1149  _owner */\n      dup5\n        /* \"withdraw-pattern-remixai.sol\":1134:1150  balances[_owner] */\n      0xffffffffffffffffffffffffffffffffffffffff\n      and\n      0xffffffffffffffffffffffffffffffffffffffff\n      and\n      dup2\n      mstore\n      0x20\n      add\n      swap1\n      dup2\n      mstore\n      0x20\n      add\n      0x00\n      keccak256\n      sload\n        /* \"withdraw-pattern-remixai.sol\":1115:1150  uint ownerBalance =balances[_owner] */\n      swap1\n      pop\n        /* \"withdraw-pattern-remixai.sol\":1178:1179  0 */\n      0x00\n        /* \"withdraw-pattern-remixai.sol\":1164:1176  ownerBalance */\n      dup2\n        /* \"withdraw-pattern-remixai.sol\":1164:1179  ownerBalance==0 */\n      eq\n        /* \"withdraw-pattern-remixai.sol\":1161:1250  if(ownerBalance==0)\r... */\n      iszero\n      tag_36\n      jumpi\n        /* \"withdraw-pattern-remixai.sol\":1205:1234  revert(\"Owner has no funds.\") */\n      mload(0x40)\n      0x08c379a000000000000000000000000000000000000000000000000000000000\n      dup2\n      mstore\n      0x04\n      add\n      tag_37\n      swap1\n      tag_38\n      jump\t// in\n    tag_37:\n      mload(0x40)\n      dup1\n      swap2\n      sub\n      swap1\n      revert\n        /* \"withdraw-pattern-remixai.sol\":1161:1250  if(ownerBalance==0)\r... */\n    tag_36:\n        /* \"withdraw-pattern-remixai.sol\":1273:1285  ownerBalance */\n      dup1\n        /* \"withdraw-pattern-remixai.sol\":1266:1285  return ownerBalance */\n      swap2\n      pop\n      pop\n        /* \"withdraw-pattern-remixai.sol\":1008:1293  function balanceOf(address _owner) public view returns (uint256){\r... */\n      swap2\n      swap1\n      pop\n      jump\t// out\n        /* \"#utility.yul\":7:146   */\n    tag_40:\n        /* \"#utility.yul\":53:58   */\n      0x00\n        /* \"#utility.yul\":91:97   */\n      dup2\n        /* \"#utility.yul\":78:98   */\n      calldataload\n        /* \"#utility.yul\":69:98   */\n      swap1\n      pop\n        /* \"#utility.yul\":107:140   */\n      tag_42\n        /* \"#utility.yul\":134:139   */\n      dup2\n        /* \"#utility.yul\":107:140   */\n      tag_43\n      jump\t// in\n    tag_42:\n        /* \"#utility.yul\":7:146   */\n      swap3\n      swap2\n      pop\n      pop\n      jump\t// out\n        /* \"#utility.yul\":152:291   */\n    tag_44:\n        /* \"#utility.yul\":198:203   */\n      0x00\n        /* \"#utility.yul\":236:242   */\n      dup2\n        /* \"#utility.yul\":223:243   */\n      calldataload\n        /* \"#utility.yul\":214:243   */\n      swap1\n      pop\n        /* \"#utility.yul\":252:285   */\n      tag_46\n        /* \"#utility.yul\":279:284   */\n      dup2\n        /* \"#utility.yul\":252:285   */\n      tag_47\n      jump\t// in\n    tag_46:\n        /* \"#utility.yul\":152:291   */\n      swap3\n      swap2\n      pop\n      pop\n      jump\t// out\n        /* \"#utility.yul\":297:626   */\n    tag_8:\n        /* \"#utility.yul\":356:362   */\n      0x00\n        /* \"#utility.yul\":405:407   */\n      0x20\n        /* \"#utility.yul\":393:402   */\n      dup3\n        /* \"#utility.yul\":384:391   */\n      dup5\n        /* \"#utility.yul\":380:403   */\n      sub\n        /* \"#utility.yul\":376:408   */\n      slt\n        /* \"#utility.yul\":373:492   */\n      iszero\n      tag_49\n      jumpi\n        /* \"#utility.yul\":411:490   */\n      tag_50\n      tag_51\n      jump\t// in\n    tag_50:\n        /* \"#utility.yul\":373:492   */\n    tag_49:\n        /* \"#utility.yul\":531:532   */\n      0x00\n        /* \"#utility.yul\":556:609   */\n      tag_52\n        /* \"#utility.yul\":601:608   */\n      dup5\n        /* \"#utility.yul\":592:598   */\n      dup3\n        /* \"#utility.yul\":581:590   */\n      dup6\n        /* \"#utility.yul\":577:599   */\n      add\n        /* \"#utility.yul\":556:609   */\n      tag_40\n      jump\t// in\n    tag_52:\n        /* \"#utility.yul\":546:609   */\n      swap2\n      pop\n        /* \"#utility.yul\":502:619   */\n      pop\n        /* \"#utility.yul\":297:626   */\n      swap3\n      swap2\n      pop\n      pop\n      jump\t// out\n        /* \"#utility.yul\":632:961   */\n    tag_14:\n        /* \"#utility.yul\":691:697   */\n      0x00\n        /* \"#utility.yul\":740:742   */\n      0x20\n        /* \"#utility.yul\":728:737   */\n      dup3\n        /* \"#utility.yul\":719:726   */\n      dup5\n        /* \"#utility.yul\":715:738   */\n      sub\n        /* \"#utility.yul\":711:743   */\n      slt\n        /* \"#utility.yul\":708:827   */\n      iszero\n      tag_54\n      jumpi\n        /* \"#utility.yul\":746:825   */\n      tag_55\n      tag_51\n      jump\t// in\n    tag_55:\n        /* \"#utility.yul\":708:827   */\n    tag_54:\n        /* \"#utility.yul\":866:867   */\n      0x00\n        /* \"#utility.yul\":891:944   */\n      tag_56\n        /* \"#utility.yul\":936:943   */\n      dup5\n        /* \"#utility.yul\":927:933   */\n      dup3\n        /* \"#utility.yul\":916:925   */\n      dup6\n        /* \"#utility.yul\":912:934   */\n      add\n        /* \"#utility.yul\":891:944   */\n      tag_44\n      jump\t// in\n    tag_56:\n        /* \"#utility.yul\":881:944   */\n      swap2\n      pop\n        /* \"#utility.yul\":837:954   */\n      pop\n        /* \"#utility.yul\":632:961   */\n      swap3\n      swap2\n      pop\n      pop\n      jump\t// out\n        /* \"#utility.yul\":967:1076   */\n    tag_57:\n        /* \"#utility.yul\":1048:1069   */\n      tag_59\n        /* \"#utility.yul\":1063:1068   */\n      dup2\n        /* \"#utility.yul\":1048:1069   */\n      tag_60\n      jump\t// in\n    tag_59:\n        /* \"#utility.yul\":1043:1046   */\n      dup3\n        /* \"#utility.yul\":1036:1070   */\n      mstore\n        /* \"#utility.yul\":967:1076   */\n      pop\n      pop\n      jump\t// out\n        /* \"#utility.yul\":1082:1448   */\n    tag_61:\n        /* \"#utility.yul\":1224:1227   */\n      0x00\n        /* \"#utility.yul\":1245:1312   */\n      tag_63\n        /* \"#utility.yul\":1309:1311   */\n      0x13\n        /* \"#utility.yul\":1304:1307   */\n      dup4\n        /* \"#utility.yul\":1245:1312   */\n      tag_64\n      jump\t// in\n    tag_63:\n        /* \"#utility.yul\":1238:1312   */\n      swap2\n      pop\n        /* \"#utility.yul\":1321:1414   */\n      tag_65\n        /* \"#utility.yul\":1410:1413   */\n      dup3\n        /* \"#utility.yul\":1321:1414   */\n      tag_66\n      jump\t// in\n    tag_65:\n        /* \"#utility.yul\":1439:1441   */\n      0x20\n        /* \"#utility.yul\":1434:1437   */\n      dup3\n        /* \"#utility.yul\":1430:1442   */\n      add\n        /* \"#utility.yul\":1423:1442   */\n      swap1\n      pop\n        /* \"#utility.yul\":1082:1448   */\n      swap2\n      swap1\n      pop\n      jump\t// out\n        /* \"#utility.yul\":1454:1820   */\n    tag_67:\n        /* \"#utility.yul\":1596:1599   */\n      0x00\n        /* \"#utility.yul\":1617:1684   */\n      tag_69\n        /* \"#utility.yul\":1681:1683   */\n      0x23\n        /* \"#utility.yul\":1676:1679   */\n      dup4\n        /* \"#utility.yul\":1617:1684   */\n      tag_64\n      jump\t// in\n    tag_69:\n        /* \"#utility.yul\":1610:1684   */\n      swap2\n      pop\n        /* \"#utility.yul\":1693:1786   */\n      tag_70\n        /* \"#utility.yul\":1782:1785   */\n      dup3\n        /* \"#utility.yul\":1693:1786   */\n      tag_71\n      jump\t// in\n    tag_70:\n        /* \"#utility.yul\":1811:1813   */\n      0x40\n        /* \"#utility.yul\":1806:1809   */\n      dup3\n        /* \"#utility.yul\":1802:1814   */\n      add\n        /* \"#utility.yul\":1795:1814   */\n      swap1\n      pop\n        /* \"#utility.yul\":1454:1820   */\n      swap2\n      swap1\n      pop\n      jump\t// out\n        /* \"#utility.yul\":1826:1944   */\n    tag_72:\n        /* \"#utility.yul\":1913:1937   */\n      tag_74\n        /* \"#utility.yul\":1931:1936   */\n      dup2\n        /* \"#utility.yul\":1913:1937   */\n      tag_75\n      jump\t// in\n    tag_74:\n        /* \"#utility.yul\":1908:1911   */\n      dup3\n        /* \"#utility.yul\":1901:1938   */\n      mstore\n        /* \"#utility.yul\":1826:1944   */\n      pop\n      pop\n      jump\t// out\n        /* \"#utility.yul\":1950:2160   */\n    tag_17:\n        /* \"#utility.yul\":2037:2041   */\n      0x00\n        /* \"#utility.yul\":2075:2077   */\n      0x20\n        /* \"#utility.yul\":2064:2073   */\n      dup3\n        /* \"#utility.yul\":2060:2078   */\n      add\n        /* \"#utility.yul\":2052:2078   */\n      swap1\n      pop\n        /* \"#utility.yul\":2088:2153   */\n      tag_77\n        /* \"#utility.yul\":2150:2151   */\n      0x00\n        /* \"#utility.yul\":2139:2148   */\n      dup4\n        /* \"#utility.yul\":2135:2152   */\n      add\n        /* \"#utility.yul\":2126:2132   */\n      dup5\n        /* \"#utility.yul\":2088:2153   */\n      tag_57\n      jump\t// in\n    tag_77:\n        /* \"#utility.yul\":1950:2160   */\n      swap3\n      swap2\n      pop\n      pop\n      jump\t// out\n        /* \"#utility.yul\":2166:2585   */\n    tag_38:\n        /* \"#utility.yul\":2332:2336   */\n      0x00\n        /* \"#utility.yul\":2370:2372   */\n      0x20\n        /* \"#utility.yul\":2359:2368   */\n      dup3\n        /* \"#utility.yul\":2355:2373   */\n      add\n        /* \"#utility.yul\":2347:2373   */\n      swap1\n      pop\n        /* \"#utility.yul\":2419:2428   */\n      dup2\n        /* \"#utility.yul\":2413:2417   */\n      dup2\n        /* \"#utility.yul\":2409:2429   */\n      sub\n        /* \"#utility.yul\":2405:2406   */\n      0x00\n        /* \"#utility.yul\":2394:2403   */\n      dup4\n        /* \"#utility.yul\":2390:2407   */\n      add\n        /* \"#utility.yul\":2383:2430   */\n      mstore\n        /* \"#utility.yul\":2447:2578   */\n      tag_79\n        /* \"#utility.yul\":2573:2577   */\n      dup2\n        /* \"#utility.yul\":2447:2578   */\n      tag_61\n      jump\t// in\n    tag_79:\n        /* \"#utility.yul\":2439:2578   */\n      swap1\n      pop\n        /* \"#utility.yul\":2166:2585   */\n      swap2\n      swap1\n      pop\n      jump\t// out\n        /* \"#utility.yul\":2591:3010   */\n    tag_33:\n        /* \"#utility.yul\":2757:2761   */\n      0x00\n        /* \"#utility.yul\":2795:2797   */\n      0x20\n        /* \"#utility.yul\":2784:2793   */\n      dup3\n        /* \"#utility.yul\":2780:2798   */\n      add\n        /* \"#utility.yul\":2772:2798   */\n      swap1\n      pop\n        /* \"#utility.yul\":2844:2853   */\n      dup2\n        /* \"#utility.yul\":2838:2842   */\n      dup2\n        /* \"#utility.yul\":2834:2854   */\n      sub\n        /* \"#utility.yul\":2830:2831   */\n      0x00\n        /* \"#utility.yul\":2819:2828   */\n      dup4\n        /* \"#utility.yul\":2815:2832   */\n      add\n        /* \"#utility.yul\":2808:2855   */\n      mstore\n        /* \"#utility.yul\":2872:3003   */\n      tag_81\n        /* \"#utility.yul\":2998:3002   */\n      dup2\n        /* \"#utility.yul\":2872:3003   */\n      tag_67\n      jump\t// in\n    tag_81:\n        /* \"#utility.yul\":2864:3003   */\n      swap1\n      pop\n        /* \"#utility.yul\":2591:3010   */\n      swap2\n      swap1\n      pop\n      jump\t// out\n        /* \"#utility.yul\":3016:3238   */\n    tag_11:\n        /* \"#utility.yul\":3109:3113   */\n      0x00\n        /* \"#utility.yul\":3147:3149   */\n      0x20\n        /* \"#utility.yul\":3136:3145   */\n      dup3\n        /* \"#utility.yul\":3132:3150   */\n      add\n        /* \"#utility.yul\":3124:3150   */\n      swap1\n      pop\n        /* \"#utility.yul\":3160:3231   */\n      tag_83\n        /* \"#utility.yul\":3228:3229   */\n      0x00\n        /* \"#utility.yul\":3217:3226   */\n      dup4\n        /* \"#utility.yul\":3213:3230   */\n      add\n        /* \"#utility.yul\":3204:3210   */\n      dup5\n        /* \"#utility.yul\":3160:3231   */\n      tag_72\n      jump\t// in\n    tag_83:\n        /* \"#utility.yul\":3016:3238   */\n      swap3\n      swap2\n      pop\n      pop\n      jump\t// out\n        /* \"#utility.yul\":3325:3494   */\n    tag_64:\n        /* \"#utility.yul\":3409:3420   */\n      0x00\n        /* \"#utility.yul\":3443:3449   */\n      dup3\n        /* \"#utility.yul\":3438:3441   */\n      dup3\n        /* \"#utility.yul\":3431:3450   */\n      mstore\n        /* \"#utility.yul\":3483:3487   */\n      0x20\n        /* \"#utility.yul\":3478:3481   */\n      dup3\n        /* \"#utility.yul\":3474:3488   */\n      add\n        /* \"#utility.yul\":3459:3488   */\n      swap1\n      pop\n        /* \"#utility.yul\":3325:3494   */\n      swap3\n      swap2\n      pop\n      pop\n      jump\t// out\n        /* \"#utility.yul\":3500:3691   */\n    tag_30:\n        /* \"#utility.yul\":3540:3544   */\n      0x00\n        /* \"#utility.yul\":3560:3580   */\n      tag_88\n        /* \"#utility.yul\":3578:3579   */\n      dup3\n        /* \"#utility.yul\":3560:3580   */\n      tag_75\n      jump\t// in\n    tag_88:\n        /* \"#utility.yul\":3555:3580   */\n      swap2\n      pop\n        /* \"#utility.yul\":3594:3614   */\n      tag_89\n        /* \"#utility.yul\":3612:3613   */\n      dup4\n        /* \"#utility.yul\":3594:3614   */\n      tag_75\n      jump\t// in\n    tag_89:\n        /* \"#utility.yul\":3589:3614   */\n      swap3\n      pop\n        /* \"#utility.yul\":3633:3634   */\n      dup3\n        /* \"#utility.yul\":3630:3631   */\n      dup3\n        /* \"#utility.yul\":3627:3635   */\n      lt\n        /* \"#utility.yul\":3624:3658   */\n      iszero\n      tag_90\n      jumpi\n        /* \"#utility.yul\":3638:3656   */\n      tag_91\n      tag_92\n      jump\t// in\n    tag_91:\n        /* \"#utility.yul\":3624:3658   */\n    tag_90:\n        /* \"#utility.yul\":3683:3684   */\n      dup3\n        /* \"#utility.yul\":3680:3681   */\n      dup3\n        /* \"#utility.yul\":3676:3685   */\n      sub\n        /* \"#utility.yul\":3668:3685   */\n      swap1\n      pop\n        /* \"#utility.yul\":3500:3691   */\n      swap3\n      swap2\n      pop\n      pop\n      jump\t// out\n        /* \"#utility.yul\":3697:3793   */\n    tag_93:\n        /* \"#utility.yul\":3734:3741   */\n      0x00\n        /* \"#utility.yul\":3763:3787   */\n      tag_95\n        /* \"#utility.yul\":3781:3786   */\n      dup3\n        /* \"#utility.yul\":3763:3787   */\n      tag_96\n      jump\t// in\n    tag_95:\n        /* \"#utility.yul\":3752:3787   */\n      swap1\n      pop\n        /* \"#utility.yul\":3697:3793   */\n      swap2\n      swap1\n      pop\n      jump\t// out\n        /* \"#utility.yul\":3799:3889   */\n    tag_60:\n        /* \"#utility.yul\":3833:3840   */\n      0x00\n        /* \"#utility.yul\":3876:3881   */\n      dup2\n        /* \"#utility.yul\":3869:3882   */\n      iszero\n        /* \"#utility.yul\":3862:3883   */\n      iszero\n        /* \"#utility.yul\":3851:3883   */\n      swap1\n      pop\n        /* \"#utility.yul\":3799:3889   */\n      swap2\n      swap1\n      pop\n      jump\t// out\n        /* \"#utility.yul\":3895:4021   */\n    tag_96:\n        /* \"#utility.yul\":3932:3939   */\n      0x00\n        /* \"#utility.yul\":3972:4014   */\n      0xffffffffffffffffffffffffffffffffffffffff\n        /* \"#utility.yul\":3965:3970   */\n      dup3\n        /* \"#utility.yul\":3961:4015   */\n      and\n        /* \"#utility.yul\":3950:4015   */\n      swap1\n      pop\n        /* \"#utility.yul\":3895:4021   */\n      swap2\n      swap1\n      pop\n      jump\t// out\n        /* \"#utility.yul\":4027:4104   */\n    tag_75:\n        /* \"#utility.yul\":4064:4071   */\n      0x00\n        /* \"#utility.yul\":4093:4098   */\n      dup2\n        /* \"#utility.yul\":4082:4098   */\n      swap1\n      pop\n        /* \"#utility.yul\":4027:4104   */\n      swap2\n      swap1\n      pop\n      jump\t// out\n        /* \"#utility.yul\":4110:4290   */\n    tag_92:\n        /* \"#utility.yul\":4158:4235   */\n      0x4e487b7100000000000000000000000000000000000000000000000000000000\n        /* \"#utility.yul\":4155:4156   */\n      0x00\n        /* \"#utility.yul\":4148:4236   */\n      mstore\n        /* \"#utility.yul\":4255:4259   */\n      0x11\n        /* \"#utility.yul\":4252:4253   */\n      0x04\n        /* \"#utility.yul\":4245:4260   */\n      mstore\n        /* \"#utility.yul\":4279:4283   */\n      0x24\n        /* \"#utility.yul\":4276:4277   */\n      0x00\n        /* \"#utility.yul\":4269:4284   */\n      revert\n        /* \"#utility.yul\":4419:4536   */\n    tag_51:\n        /* \"#utility.yul\":4528:4529   */\n      0x00\n        /* \"#utility.yul\":4525:4526   */\n      dup1\n        /* \"#utility.yul\":4518:4530   */\n      revert\n        /* \"#utility.yul\":4542:4711   */\n    tag_66:\n        /* \"#utility.yul\":4682:4703   */\n      0x4f776e657220686173206e6f2066756e64732e00000000000000000000000000\n        /* \"#utility.yul\":4678:4679   */\n      0x00\n        /* \"#utility.yul\":4670:4676   */\n      dup3\n        /* \"#utility.yul\":4666:4680   */\n      add\n        /* \"#utility.yul\":4659:4704   */\n      mstore\n        /* \"#utility.yul\":4542:4711   */\n      pop\n      jump\t// out\n        /* \"#utility.yul\":4717:4939   */\n    tag_71:\n        /* \"#utility.yul\":4857:4891   */\n      0x416d6f756e7420697320746f6f206c61726765206f7220696e73756666696369\n        /* \"#utility.yul\":4853:4854   */\n      0x00\n        /* \"#utility.yul\":4845:4851   */\n      dup3\n        /* \"#utility.yul\":4841:4855   */\n      add\n        /* \"#utility.yul\":4834:4892   */\n      mstore\n        /* \"#utility.yul\":4926:4931   */\n      0x656e740000000000000000000000000000000000000000000000000000000000\n        /* \"#utility.yul\":4921:4923   */\n      0x20\n        /* \"#utility.yul\":4913:4919   */\n      dup3\n        /* \"#utility.yul\":4909:4924   */\n      add\n        /* \"#utility.yul\":4902:4932   */\n      mstore\n        /* \"#utility.yul\":4717:4939   */\n      pop\n      jump\t// out\n        /* \"#utility.yul\":4945:5067   */\n    tag_43:\n        /* \"#utility.yul\":5018:5042   */\n      tag_107\n        /* \"#utility.yul\":5036:5041   */\n      dup2\n        /* \"#utility.yul\":5018:5042   */\n      tag_93\n      jump\t// in\n    tag_107:\n        /* \"#utility.yul\":5011:5016   */\n      dup2\n        /* \"#utility.yul\":5008:5043   */\n      eq\n        /* \"#utility.yul\":4998:5061   */\n      tag_108\n      jumpi\n        /* \"#utility.yul\":5057:5058   */\n      0x00\n        /* \"#utility.yul\":5054:5055   */\n      dup1\n        /* \"#utility.yul\":5047:5059   */\n      revert\n        /* \"#utility.yul\":4998:5061   */\n    tag_108:\n        /* \"#utility.yul\":4945:5067   */\n      pop\n      jump\t// out\n        /* \"#utility.yul\":5073:5195   */\n    tag_47:\n        /* \"#utility.yul\":5146:5170   */\n      tag_110\n        /* \"#utility.yul\":5164:5169   */\n      dup2\n        /* \"#utility.yul\":5146:5170   */\n      tag_75\n      jump\t// in\n    tag_110:\n        /* \"#utility.yul\":5139:5144   */\n      dup2\n        /* \"#utility.yul\":5136:5171   */\n      eq\n        /* \"#utility.yul\":5126:5189   */\n      tag_111\n      jumpi\n        /* \"#utility.yul\":5185:5186   */\n      0x00\n        /* \"#utility.yul\":5182:5183   */\n      dup1\n        /* \"#utility.yul\":5175:5187   */\n      revert\n        /* \"#utility.yul\":5126:5189   */\n    tag_111:\n        /* \"#utility.yul\":5073:5195   */\n      pop\n      jump\t// out\n\n    auxdata: 0xa26469706673582212208acf34b30fc7a7fc4620778b9d855d5a81cf56424e918edac8ba5b1029ecc52964736f6c63430008070033\n}\n",
				"bytecode": {
					"linkReferences": {},
					"object": "6080604052346000803373ffffffffffffffffffffffffffffffffffffffff1673ffffffffffffffffffffffffffffffffffffffff1681526020019081526020016000206000828254610052919061005e565b925050819055506100ed565b6000610069826100b4565b9150610074836100b4565b9250827fffffffffffffffffffffffffffffffffffffffffffffffffffffffffffffffff038211156100a9576100a86100be565b5b828201905092915050565b6000819050919050565b7f4e487b7100000000000000000000000000000000000000000000000000000000600052601160045260246000fd5b610648806100fc6000396000f3fe608060405234801561001057600080fd5b50600436106100415760003560e01c806327e235e3146100465780632e1a7d4d1461007657806370a08231146100a6575b600080fd5b610060600480360381019061005b9190610377565b6100d6565b60405161006d9190610490565b60405180910390f35b610090600480360381019061008b91906103a4565b6100ee565b60405161009d9190610435565b60405180910390f35b6100c060048036038101906100bb9190610377565b610282565b6040516100cd9190610490565b60405180910390f35b60006020528060005260406000206000915090505481565b6000600160009054906101000a900460ff161561010a57600080fd5b60018060006101000a81548160ff02191690831515021790555060008211801561013c57508161013933610282565b10155b1561022757816000803373ffffffffffffffffffffffffffffffffffffffff1673ffffffffffffffffffffffffffffffffffffffff16815260200190815260200160002054101561018c57600080fd5b6000826000803373ffffffffffffffffffffffffffffffffffffffff1673ffffffffffffffffffffffffffffffffffffffff168152602001908152602001600020546101d891906104bc565b9050806000803373ffffffffffffffffffffffffffffffffffffffff1673ffffffffffffffffffffffffffffffffffffffff168152602001908152602001600020819055506001915050610262565b6040517f08c379a000000000000000000000000000000000000000000000000000000000815260040161025990610470565b60405180910390fd5b6000600160006101000a81548160ff021916908315150217905550919050565b60008073ffffffffffffffffffffffffffffffffffffffff168273ffffffffffffffffffffffffffffffffffffffff1614156102bd57600080fd5b60008060008473ffffffffffffffffffffffffffffffffffffffff1673ffffffffffffffffffffffffffffffffffffffff1681526020019081526020016000205490506000811415610344576040517f08c379a000000000000000000000000000000000000000000000000000000000815260040161033b90610450565b60405180910390fd5b80915050919050565b60008135905061035c816105e4565b92915050565b600081359050610371816105fb565b92915050565b60006020828403121561038d5761038c610567565b5b600061039b8482850161034d565b91505092915050565b6000602082840312156103ba576103b9610567565b5b60006103c884828501610362565b91505092915050565b6103da81610502565b82525050565b60006103ed6013836104ab565b91506103f88261056c565b602082019050919050565b60006104106023836104ab565b915061041b82610595565b604082019050919050565b61042f8161052e565b82525050565b600060208201905061044a60008301846103d1565b92915050565b60006020820190508181036000830152610469816103e0565b9050919050565b6000602082019050818103600083015261048981610403565b9050919050565b60006020820190506104a56000830184610426565b92915050565b600082825260208201905092915050565b60006104c78261052e565b91506104d28361052e565b9250828210156104e5576104e4610538565b5b828203905092915050565b60006104fb8261050e565b9050919050565b60008115159050919050565b600073ffffffffffffffffffffffffffffffffffffffff82169050919050565b6000819050919050565b7f4e487b7100000000000000000000000000000000000000000000000000000000600052601160045260246000fd5b600080fd5b7f4f776e657220686173206e6f2066756e64732e00000000000000000000000000600082015250565b7f416d6f756e7420697320746f6f206c61726765206f7220696e7375666669636960008201527f656e740000000000000000000000000000000000000000000000000000000000602082015250565b6105ed816104f0565b81146105f857600080fd5b50565b6106048161052e565b811461060f57600080fd5b5056fea26469706673582212208acf34b30fc7a7fc4620778b9d855d5a81cf56424e918edac8ba5b1029ecc52964736f6c63430008070033",
					"opcodes": "PUSH1 0x80 PUSH1 0x40 MSTORE CALLVALUE PUSH1 0x0 DUP1 CALLER PUSH20 0xFFFFFFFFFFFFFFFFFFFFFFFFFFFFFFFFFFFFFFFF AND PUSH20 0xFFFFFFFFFFFFFFFFFFFFFFFFFFFFFFFFFFFFFFFF AND DUP2 MSTORE PUSH1 0x20 ADD SWAP1 DUP2 MSTORE PUSH1 0x20 ADD PUSH1 0x0 KECCAK256 PUSH1 0x0 DUP3 DUP3 SLOAD PUSH2 0x52 SWAP2 SWAP1 PUSH2 0x5E JUMP JUMPDEST SWAP3 POP POP DUP2 SWAP1 SSTORE POP PUSH2 0xED JUMP JUMPDEST PUSH1 0x0 PUSH2 0x69 DUP3 PUSH2 0xB4 JUMP JUMPDEST SWAP2 POP PUSH2 0x74 DUP4 PUSH2 0xB4 JUMP JUMPDEST SWAP3 POP DUP3 PUSH32 0xFFFFFFFFFFFFFFFFFFFFFFFFFFFFFFFFFFFFFFFFFFFFFFFFFFFFFFFFFFFFFFFF SUB DUP3 GT ISZERO PUSH2 0xA9 JUMPI PUSH2 0xA8 PUSH2 0xBE JUMP JUMPDEST JUMPDEST DUP3 DUP3 ADD SWAP1 POP SWAP3 SWAP2 POP POP JUMP JUMPDEST PUSH1 0x0 DUP2 SWAP1 POP SWAP2 SWAP1 POP JUMP JUMPDEST PUSH32 0x4E487B7100000000000000000000000000000000000000000000000000000000 PUSH1 0x0 MSTORE PUSH1 0x11 PUSH1 0x4 MSTORE PUSH1 0x24 PUSH1 0x0 REVERT JUMPDEST PUSH2 0x648 DUP1 PUSH2 0xFC PUSH1 0x0 CODECOPY PUSH1 0x0 RETURN INVALID PUSH1 0x80 PUSH1 0x40 MSTORE CALLVALUE DUP1 ISZERO PUSH2 0x10 JUMPI PUSH1 0x0 DUP1 REVERT JUMPDEST POP PUSH1 0x4 CALLDATASIZE LT PUSH2 0x41 JUMPI PUSH1 0x0 CALLDATALOAD PUSH1 0xE0 SHR DUP1 PUSH4 0x27E235E3 EQ PUSH2 0x46 JUMPI DUP1 PUSH4 0x2E1A7D4D EQ PUSH2 0x76 JUMPI DUP1 PUSH4 0x70A08231 EQ PUSH2 0xA6 JUMPI JUMPDEST PUSH1 0x0 DUP1 REVERT JUMPDEST PUSH2 0x60 PUSH1 0x4 DUP1 CALLDATASIZE SUB DUP2 ADD SWAP1 PUSH2 0x5B SWAP2 SWAP1 PUSH2 0x377 JUMP JUMPDEST PUSH2 0xD6 JUMP JUMPDEST PUSH1 0x40 MLOAD PUSH2 0x6D SWAP2 SWAP1 PUSH2 0x490 JUMP JUMPDEST PUSH1 0x40 MLOAD DUP1 SWAP2 SUB SWAP1 RETURN JUMPDEST PUSH2 0x90 PUSH1 0x4 DUP1 CALLDATASIZE SUB DUP2 ADD SWAP1 PUSH2 0x8B SWAP2 SWAP1 PUSH2 0x3A4 JUMP JUMPDEST PUSH2 0xEE JUMP JUMPDEST PUSH1 0x40 MLOAD PUSH2 0x9D SWAP2 SWAP1 PUSH2 0x435 JUMP JUMPDEST PUSH1 0x40 MLOAD DUP1 SWAP2 SUB SWAP1 RETURN JUMPDEST PUSH2 0xC0 PUSH1 0x4 DUP1 CALLDATASIZE SUB DUP2 ADD SWAP1 PUSH2 0xBB SWAP2 SWAP1 PUSH2 0x377 JUMP JUMPDEST PUSH2 0x282 JUMP JUMPDEST PUSH1 0x40 MLOAD PUSH2 0xCD SWAP2 SWAP1 PUSH2 0x490 JUMP JUMPDEST PUSH1 0x40 MLOAD DUP1 SWAP2 SUB SWAP1 RETURN JUMPDEST PUSH1 0x0 PUSH1 0x20 MSTORE DUP1 PUSH1 0x0 MSTORE PUSH1 0x40 PUSH1 0x0 KECCAK256 PUSH1 0x0 SWAP2 POP SWAP1 POP SLOAD DUP2 JUMP JUMPDEST PUSH1 0x0 PUSH1 0x1 PUSH1 0x0 SWAP1 SLOAD SWAP1 PUSH2 0x100 EXP SWAP1 DIV PUSH1 0xFF AND ISZERO PUSH2 0x10A JUMPI PUSH1 0x0 DUP1 REVERT JUMPDEST PUSH1 0x1 DUP1 PUSH1 0x0 PUSH2 0x100 EXP DUP2 SLOAD DUP2 PUSH1 0xFF MUL NOT AND SWAP1 DUP4 ISZERO ISZERO MUL OR SWAP1 SSTORE POP PUSH1 0x0 DUP3 GT DUP1 ISZERO PUSH2 0x13C JUMPI POP DUP2 PUSH2 0x139 CALLER PUSH2 0x282 JUMP JUMPDEST LT ISZERO JUMPDEST ISZERO PUSH2 0x227 JUMPI DUP2 PUSH1 0x0 DUP1 CALLER PUSH20 0xFFFFFFFFFFFFFFFFFFFFFFFFFFFFFFFFFFFFFFFF AND PUSH20 0xFFFFFFFFFFFFFFFFFFFFFFFFFFFFFFFFFFFFFFFF AND DUP2 MSTORE PUSH1 0x20 ADD SWAP1 DUP2 MSTORE PUSH1 0x20 ADD PUSH1 0x0 KECCAK256 SLOAD LT ISZERO PUSH2 0x18C JUMPI PUSH1 0x0 DUP1 REVERT JUMPDEST PUSH1 0x0 DUP3 PUSH1 0x0 DUP1 CALLER PUSH20 0xFFFFFFFFFFFFFFFFFFFFFFFFFFFFFFFFFFFFFFFF AND PUSH20 0xFFFFFFFFFFFFFFFFFFFFFFFFFFFFFFFFFFFFFFFF AND DUP2 MSTORE PUSH1 0x20 ADD SWAP1 DUP2 MSTORE PUSH1 0x20 ADD PUSH1 0x0 KECCAK256 SLOAD PUSH2 0x1D8 SWAP2 SWAP1 PUSH2 0x4BC JUMP JUMPDEST SWAP1 POP DUP1 PUSH1 0x0 DUP1 CALLER PUSH20 0xFFFFFFFFFFFFFFFFFFFFFFFFFFFFFFFFFFFFFFFF AND PUSH20 0xFFFFFFFFFFFFFFFFFFFFFFFFFFFFFFFFFFFFFFFF AND DUP2 MSTORE PUSH1 0x20 ADD SWAP1 DUP2 MSTORE PUSH1 0x20 ADD PUSH1 0x0 KECCAK256 DUP2 SWAP1 SSTORE POP PUSH1 0x1 SWAP2 POP POP PUSH2 0x262 JUMP JUMPDEST PUSH1 0x40 MLOAD PUSH32 0x8C379A000000000000000000000000000000000000000000000000000000000 DUP2 MSTORE PUSH1 0x4 ADD PUSH2 0x259 SWAP1 PUSH2 0x470 JUMP JUMPDEST PUSH1 0x40 MLOAD DUP1 SWAP2 SUB SWAP1 REVERT JUMPDEST PUSH1 0x0 PUSH1 0x1 PUSH1 0x0 PUSH2 0x100 EXP DUP2 SLOAD DUP2 PUSH1 0xFF MUL NOT AND SWAP1 DUP4 ISZERO ISZERO MUL OR SWAP1 SSTORE POP SWAP2 SWAP1 POP JUMP JUMPDEST PUSH1 0x0 DUP1 PUSH20 0xFFFFFFFFFFFFFFFFFFFFFFFFFFFFFFFFFFFFFFFF AND DUP3 PUSH20 0xFFFFFFFFFFFFFFFFFFFFFFFFFFFFFFFFFFFFFFFF AND EQ ISZERO PUSH2 0x2BD JUMPI PUSH1 0x0 DUP1 REVERT JUMPDEST PUSH1 0x0 DUP1 PUSH1 0x0 DUP5 PUSH20 0xFFFFFFFFFFFFFFFFFFFFFFFFFFFFFFFFFFFFFFFF AND PUSH20 0xFFFFFFFFFFFFFFFFFFFFFFFFFFFFFFFFFFFFFFFF AND DUP2 MSTORE PUSH1 0x20 ADD SWAP1 DUP2 MSTORE PUSH1 0x20 ADD PUSH1 0x0 KECCAK256 SLOAD SWAP1 POP PUSH1 0x0 DUP2 EQ ISZERO PUSH2 0x344 JUMPI PUSH1 0x40 MLOAD PUSH32 0x8C379A000000000000000000000000000000000000000000000000000000000 DUP2 MSTORE PUSH1 0x4 ADD PUSH2 0x33B SWAP1 PUSH2 0x450 JUMP JUMPDEST PUSH1 0x40 MLOAD DUP1 SWAP2 SUB SWAP1 REVERT JUMPDEST DUP1 SWAP2 POP POP SWAP2 SWAP1 POP JUMP JUMPDEST PUSH1 0x0 DUP2 CALLDATALOAD SWAP1 POP PUSH2 0x35C DUP2 PUSH2 0x5E4 JUMP JUMPDEST SWAP3 SWAP2 POP POP JUMP JUMPDEST PUSH1 0x0 DUP2 CALLDATALOAD SWAP1 POP PUSH2 0x371 DUP2 PUSH2 0x5FB JUMP JUMPDEST SWAP3 SWAP2 POP POP JUMP JUMPDEST PUSH1 0x0 PUSH1 0x20 DUP3 DUP5 SUB SLT ISZERO PUSH2 0x38D JUMPI PUSH2 0x38C PUSH2 0x567 JUMP JUMPDEST JUMPDEST PUSH1 0x0 PUSH2 0x39B DUP5 DUP3 DUP6 ADD PUSH2 0x34D JUMP JUMPDEST SWAP2 POP POP SWAP3 SWAP2 POP POP JUMP JUMPDEST PUSH1 0x0 PUSH1 0x20 DUP3 DUP5 SUB SLT ISZERO PUSH2 0x3BA JUMPI PUSH2 0x3B9 PUSH2 0x567 JUMP JUMPDEST JUMPDEST PUSH1 0x0 PUSH2 0x3C8 DUP5 DUP3 DUP6 ADD PUSH2 0x362 JUMP JUMPDEST SWAP2 POP POP SWAP3 SWAP2 POP POP JUMP JUMPDEST PUSH2 0x3DA DUP2 PUSH2 0x502 JUMP JUMPDEST DUP3 MSTORE POP POP JUMP JUMPDEST PUSH1 0x0 PUSH2 0x3ED PUSH1 0x13 DUP4 PUSH2 0x4AB JUMP JUMPDEST SWAP2 POP PUSH2 0x3F8 DUP3 PUSH2 0x56C JUMP JUMPDEST PUSH1 0x20 DUP3 ADD SWAP1 POP SWAP2 SWAP1 POP JUMP JUMPDEST PUSH1 0x0 PUSH2 0x410 PUSH1 0x23 DUP4 PUSH2 0x4AB JUMP JUMPDEST SWAP2 POP PUSH2 0x41B DUP3 PUSH2 0x595 JUMP JUMPDEST PUSH1 0x40 DUP3 ADD SWAP1 POP SWAP2 SWAP1 POP JUMP JUMPDEST PUSH2 0x42F DUP2 PUSH2 0x52E JUMP JUMPDEST DUP3 MSTORE POP POP JUMP JUMPDEST PUSH1 0x0 PUSH1 0x20 DUP3 ADD SWAP1 POP PUSH2 0x44A PUSH1 0x0 DUP4 ADD DUP5 PUSH2 0x3D1 JUMP JUMPDEST SWAP3 SWAP2 POP POP JUMP JUMPDEST PUSH1 0x0 PUSH1 0x20 DUP3 ADD SWAP1 POP DUP2 DUP2 SUB PUSH1 0x0 DUP4 ADD MSTORE PUSH2 0x469 DUP2 PUSH2 0x3E0 JUMP JUMPDEST SWAP1 POP SWAP2 SWAP1 POP JUMP JUMPDEST PUSH1 0x0 PUSH1 0x20 DUP3 ADD SWAP1 POP DUP2 DUP2 SUB PUSH1 0x0 DUP4 ADD MSTORE PUSH2 0x489 DUP2 PUSH2 0x403 JUMP JUMPDEST SWAP1 POP SWAP2 SWAP1 POP JUMP JUMPDEST PUSH1 0x0 PUSH1 0x20 DUP3 ADD SWAP1 POP PUSH2 0x4A5 PUSH1 0x0 DUP4 ADD DUP5 PUSH2 0x426 JUMP JUMPDEST SWAP3 SWAP2 POP POP JUMP JUMPDEST PUSH1 0x0 DUP3 DUP3 MSTORE PUSH1 0x20 DUP3 ADD SWAP1 POP SWAP3 SWAP2 POP POP JUMP JUMPDEST PUSH1 0x0 PUSH2 0x4C7 DUP3 PUSH2 0x52E JUMP JUMPDEST SWAP2 POP PUSH2 0x4D2 DUP4 PUSH2 0x52E JUMP JUMPDEST SWAP3 POP DUP3 DUP3 LT ISZERO PUSH2 0x4E5 JUMPI PUSH2 0x4E4 PUSH2 0x538 JUMP JUMPDEST JUMPDEST DUP3 DUP3 SUB SWAP1 POP SWAP3 SWAP2 POP POP JUMP JUMPDEST PUSH1 0x0 PUSH2 0x4FB DUP3 PUSH2 0x50E JUMP JUMPDEST SWAP1 POP SWAP2 SWAP1 POP JUMP JUMPDEST PUSH1 0x0 DUP2 ISZERO ISZERO SWAP1 POP SWAP2 SWAP1 POP JUMP JUMPDEST PUSH1 0x0 PUSH20 0xFFFFFFFFFFFFFFFFFFFFFFFFFFFFFFFFFFFFFFFF DUP3 AND SWAP1 POP SWAP2 SWAP1 POP JUMP JUMPDEST PUSH1 0x0 DUP2 SWAP1 POP SWAP2 SWAP1 POP JUMP JUMPDEST PUSH32 0x4E487B7100000000000000000000000000000000000000000000000000000000 PUSH1 0x0 MSTORE PUSH1 0x11 PUSH1 0x4 MSTORE PUSH1 0x24 PUSH1 0x0 REVERT JUMPDEST PUSH1 0x0 DUP1 REVERT JUMPDEST PUSH32 0x4F776E657220686173206E6F2066756E64732E00000000000000000000000000 PUSH1 0x0 DUP3 ADD MSTORE POP JUMP JUMPDEST PUSH32 0x416D6F756E7420697320746F6F206C61726765206F7220696E73756666696369 PUSH1 0x0 DUP3 ADD MSTORE PUSH32 0x656E740000000000000000000000000000000000000000000000000000000000 PUSH1 0x20 DUP3 ADD MSTORE POP JUMP JUMPDEST PUSH2 0x5ED DUP2 PUSH2 0x4F0 JUMP JUMPDEST DUP2 EQ PUSH2 0x5F8 JUMPI PUSH1 0x0 DUP1 REVERT JUMPDEST POP JUMP JUMPDEST PUSH2 0x604 DUP2 PUSH2 0x52E JUMP JUMPDEST DUP2 EQ PUSH2 0x60F JUMPI PUSH1 0x0 DUP1 REVERT JUMPDEST POP JUMP INVALID LOG2 PUSH5 0x6970667358 0x22 SLT KECCAK256 DUP11 0xCF CALLVALUE 0xB3 0xF 0xC7 0xA7 0xFC CHAINID KECCAK256 PUSH24 0x8B9D855D5A81CF56424E918EDAC8BA5B1029ECC52964736F PUSH13 0x63430008070033000000000000 "
				},
				"gasEstimates": {
					"creation": {
						"codeDepositCost": "321600",
						"executionCost": "infinite",
						"totalCost": "infinite"
					},
					"external": {
						"balanceOf(address)": "3032",
						"balances(address)": "2792",
						"withdraw(uint256)": "infinite"
					}
				},
				"methodIdentifiers": {
					"balanceOf(address)": "70a08231",
					"balances(address)": "27e235e3",
					"withdraw(uint256)": "2e1a7d4d"
				}
			},
			"storageLayout": {
				"storage": [
					{
						"astId": 5,
						"contract": "withdraw-pattern-remixai.sol:SecureBank",
						"label": "balances",
						"offset": 0,
						"slot": "0",
						"type": "t_mapping(t_address,t_uint256)"
					},
					{
						"astId": 7,
						"contract": "withdraw-pattern-remixai.sol:SecureBank",
						"label": "locked",
						"offset": 0,
						"slot": "1",
						"type": "t_bool"
					}
				],
				"types": {
					"t_address": {
						"encoding": "inplace",
						"label": "address",
						"numberOfBytes": "20"
					},
					"t_bool": {
						"encoding": "inplace",
						"label": "bool",
						"numberOfBytes": "1"
					},
					"t_mapping(t_address,t_uint256)": {
						"encoding": "mapping",
						"key": "t_address",
						"label": "mapping(address => uint256)",
						"numberOfBytes": "32",
						"value": "t_uint256"
					},
					"t_uint256": {
						"encoding": "inplace",
						"label": "uint256",
						"numberOfBytes": "32"
					}
				}
			},
			"userdoc": {
				"kind": "user",
				"methods": {},
				"version": 1
			}
		}
	}
}