{
	"AdvancedI/abstract-contracts.sol": {
		"Member": {
			"abi": [
				{
					"inputs": [],
					"name": "returnAge",
					"outputs": [
						{
							"internalType": "uint256",
							"name": "",
							"type": "uint256"
						}
					],
					"stateMutability": "view",
					"type": "function"
				},
				{
					"inputs": [
						{
							"internalType": "string",
							"name": "_name",
							"type": "string"
						}
					],
					"name": "setName",
					"outputs": [],
					"stateMutability": "nonpayable",
					"type": "function"
				}
			],
			"devdoc": {
				"kind": "dev",
				"methods": {},
				"version": 1
			},
			"evm": {
				"assembly": "    /* \"AdvancedI/abstract-contracts.sol\":822:1099  contract Member{\r... */\n  mstore(0x40, 0x80)\n    /* \"AdvancedI/abstract-contracts.sol\":872:874  38 */\n  0x26\n    /* \"AdvancedI/abstract-contracts.sol\":862:874  uint age =38 */\n  0x01\n  sstore\n    /* \"AdvancedI/abstract-contracts.sol\":822:1099  contract Member{\r... */\n  callvalue\n  dup1\n  iszero\n  tag_1\n  jumpi\n  0x00\n  dup1\n  revert\ntag_1:\n  pop\n  dataSize(sub_0)\n  dup1\n  dataOffset(sub_0)\n  0x00\n  codecopy\n  0x00\n  return\nstop\n\nsub_0: assembly {\n        /* \"AdvancedI/abstract-contracts.sol\":822:1099  contract Member{\r... */\n      mstore(0x40, 0x80)\n      callvalue\n      dup1\n      iszero\n      tag_1\n      jumpi\n      0x00\n      dup1\n      revert\n    tag_1:\n      pop\n      jumpi(tag_2, lt(calldatasize, 0x04))\n      shr(0xe0, calldataload(0x00))\n      dup1\n      0x52446f53\n      eq\n      tag_3\n      jumpi\n      dup1\n      0xc47f0027\n      eq\n      tag_4\n      jumpi\n    tag_2:\n      0x00\n      dup1\n      revert\n        /* \"AdvancedI/abstract-contracts.sol\":1012:1096  function returnAge ()public view virtual returns(uint) {\r... */\n    tag_3:\n      tag_5\n      tag_6\n      jump\t// in\n    tag_5:\n      mload(0x40)\n      tag_7\n      swap2\n      swap1\n      tag_8\n      jump\t// in\n    tag_7:\n      mload(0x40)\n      dup1\n      swap2\n      sub\n      swap1\n      return\n        /* \"AdvancedI/abstract-contracts.sol\":950:1006  function setName(string memory _name) public  virtual {} */\n    tag_4:\n      tag_9\n      0x04\n      dup1\n      calldatasize\n      sub\n      dup2\n      add\n      swap1\n      tag_10\n      swap2\n      swap1\n      tag_11\n      jump\t// in\n    tag_10:\n      tag_12\n      jump\t// in\n    tag_9:\n      stop\n        /* \"AdvancedI/abstract-contracts.sol\":1012:1096  function returnAge ()public view virtual returns(uint) {\r... */\n    tag_6:\n        /* \"AdvancedI/abstract-contracts.sol\":1061:1065  uint */\n      0x00\n        /* \"AdvancedI/abstract-contracts.sol\":1085:1088  age */\n      sload(0x01)\n        /* \"AdvancedI/abstract-contracts.sol\":1078:1088  return age */\n      swap1\n      pop\n        /* \"AdvancedI/abstract-contracts.sol\":1012:1096  function returnAge ()public view virtual returns(uint) {\r... */\n      swap1\n      jump\t// out\n        /* \"AdvancedI/abstract-contracts.sol\":950:1006  function setName(string memory _name) public  virtual {} */\n    tag_12:\n      pop\n      jump\t// out\n        /* \"#utility.yul\":7:419   */\n    tag_16:\n        /* \"#utility.yul\":85:90   */\n      0x00\n        /* \"#utility.yul\":110:176   */\n      tag_18\n        /* \"#utility.yul\":126:175   */\n      tag_19\n        /* \"#utility.yul\":168:174   */\n      dup5\n        /* \"#utility.yul\":126:175   */\n      tag_20\n      jump\t// in\n    tag_19:\n        /* \"#utility.yul\":110:176   */\n      tag_21\n      jump\t// in\n    tag_18:\n        /* \"#utility.yul\":101:176   */\n      swap1\n      pop\n        /* \"#utility.yul\":199:205   */\n      dup3\n        /* \"#utility.yul\":192:197   */\n      dup2\n        /* \"#utility.yul\":185:206   */\n      mstore\n        /* \"#utility.yul\":237:241   */\n      0x20\n        /* \"#utility.yul\":230:235   */\n      dup2\n        /* \"#utility.yul\":226:242   */\n      add\n        /* \"#utility.yul\":275:278   */\n      dup5\n        /* \"#utility.yul\":266:272   */\n      dup5\n        /* \"#utility.yul\":261:264   */\n      dup5\n        /* \"#utility.yul\":257:273   */\n      add\n        /* \"#utility.yul\":254:279   */\n      gt\n        /* \"#utility.yul\":251:363   */\n      iszero\n      tag_22\n      jumpi\n        /* \"#utility.yul\":282:361   */\n      tag_23\n      tag_24\n      jump\t// in\n    tag_23:\n        /* \"#utility.yul\":251:363   */\n    tag_22:\n        /* \"#utility.yul\":372:413   */\n      tag_25\n        /* \"#utility.yul\":406:412   */\n      dup5\n        /* \"#utility.yul\":401:404   */\n      dup3\n        /* \"#utility.yul\":396:399   */\n      dup6\n        /* \"#utility.yul\":372:413   */\n      tag_26\n      jump\t// in\n    tag_25:\n        /* \"#utility.yul\":91:419   */\n      pop\n        /* \"#utility.yul\":7:419   */\n      swap4\n      swap3\n      pop\n      pop\n      pop\n      jump\t// out\n        /* \"#utility.yul\":439:779   */\n    tag_27:\n        /* \"#utility.yul\":495:500   */\n      0x00\n        /* \"#utility.yul\":544:547   */\n      dup3\n        /* \"#utility.yul\":537:541   */\n      0x1f\n        /* \"#utility.yul\":529:535   */\n      dup4\n        /* \"#utility.yul\":525:542   */\n      add\n        /* \"#utility.yul\":521:548   */\n      slt\n        /* \"#utility.yul\":511:633   */\n      tag_29\n      jumpi\n        /* \"#utility.yul\":552:631   */\n      tag_30\n      tag_31\n      jump\t// in\n    tag_30:\n        /* \"#utility.yul\":511:633   */\n    tag_29:\n        /* \"#utility.yul\":669:675   */\n      dup2\n        /* \"#utility.yul\":656:676   */\n      calldataload\n        /* \"#utility.yul\":694:773   */\n      tag_32\n        /* \"#utility.yul\":769:772   */\n      dup5\n        /* \"#utility.yul\":761:767   */\n      dup3\n        /* \"#utility.yul\":754:758   */\n      0x20\n        /* \"#utility.yul\":746:752   */\n      dup7\n        /* \"#utility.yul\":742:759   */\n      add\n        /* \"#utility.yul\":694:773   */\n      tag_16\n      jump\t// in\n    tag_32:\n        /* \"#utility.yul\":685:773   */\n      swap2\n      pop\n        /* \"#utility.yul\":501:779   */\n      pop\n        /* \"#utility.yul\":439:779   */\n      swap3\n      swap2\n      pop\n      pop\n      jump\t// out\n        /* \"#utility.yul\":785:1294   */\n    tag_11:\n        /* \"#utility.yul\":854:860   */\n      0x00\n        /* \"#utility.yul\":903:905   */\n      0x20\n        /* \"#utility.yul\":891:900   */\n      dup3\n        /* \"#utility.yul\":882:889   */\n      dup5\n        /* \"#utility.yul\":878:901   */\n      sub\n        /* \"#utility.yul\":874:906   */\n      slt\n        /* \"#utility.yul\":871:990   */\n      iszero\n      tag_34\n      jumpi\n        /* \"#utility.yul\":909:988   */\n      tag_35\n      tag_36\n      jump\t// in\n    tag_35:\n        /* \"#utility.yul\":871:990   */\n    tag_34:\n        /* \"#utility.yul\":1057:1058   */\n      0x00\n        /* \"#utility.yul\":1046:1055   */\n      dup3\n        /* \"#utility.yul\":1042:1059   */\n      add\n        /* \"#utility.yul\":1029:1060   */\n      calldataload\n        /* \"#utility.yul\":1087:1105   */\n      0xffffffffffffffff\n        /* \"#utility.yul\":1079:1085   */\n      dup2\n        /* \"#utility.yul\":1076:1106   */\n      gt\n        /* \"#utility.yul\":1073:1190   */\n      iszero\n      tag_37\n      jumpi\n        /* \"#utility.yul\":1109:1188   */\n      tag_38\n      tag_39\n      jump\t// in\n    tag_38:\n        /* \"#utility.yul\":1073:1190   */\n    tag_37:\n        /* \"#utility.yul\":1214:1277   */\n      tag_40\n        /* \"#utility.yul\":1269:1276   */\n      dup5\n        /* \"#utility.yul\":1260:1266   */\n      dup3\n        /* \"#utility.yul\":1249:1258   */\n      dup6\n        /* \"#utility.yul\":1245:1267   */\n      add\n        /* \"#utility.yul\":1214:1277   */\n      tag_27\n      jump\t// in\n    tag_40:\n        /* \"#utility.yul\":1204:1277   */\n      swap2\n      pop\n        /* \"#utility.yul\":1000:1287   */\n      pop\n        /* \"#utility.yul\":785:1294   */\n      swap3\n      swap2\n      pop\n      pop\n      jump\t// out\n        /* \"#utility.yul\":1300:1418   */\n    tag_41:\n        /* \"#utility.yul\":1387:1411   */\n      tag_43\n        /* \"#utility.yul\":1405:1410   */\n      dup2\n        /* \"#utility.yul\":1387:1411   */\n      tag_44\n      jump\t// in\n    tag_43:\n        /* \"#utility.yul\":1382:1385   */\n      dup3\n        /* \"#utility.yul\":1375:1412   */\n      mstore\n        /* \"#utility.yul\":1300:1418   */\n      pop\n      pop\n      jump\t// out\n        /* \"#utility.yul\":1424:1646   */\n    tag_8:\n        /* \"#utility.yul\":1517:1521   */\n      0x00\n        /* \"#utility.yul\":1555:1557   */\n      0x20\n        /* \"#utility.yul\":1544:1553   */\n      dup3\n        /* \"#utility.yul\":1540:1558   */\n      add\n        /* \"#utility.yul\":1532:1558   */\n      swap1\n      pop\n        /* \"#utility.yul\":1568:1639   */\n      tag_46\n        /* \"#utility.yul\":1636:1637   */\n      0x00\n        /* \"#utility.yul\":1625:1634   */\n      dup4\n        /* \"#utility.yul\":1621:1638   */\n      add\n        /* \"#utility.yul\":1612:1618   */\n      dup5\n        /* \"#utility.yul\":1568:1639   */\n      tag_41\n      jump\t// in\n    tag_46:\n        /* \"#utility.yul\":1424:1646   */\n      swap3\n      swap2\n      pop\n      pop\n      jump\t// out\n        /* \"#utility.yul\":1652:1781   */\n    tag_21:\n        /* \"#utility.yul\":1686:1692   */\n      0x00\n        /* \"#utility.yul\":1713:1733   */\n      tag_48\n      tag_49\n      jump\t// in\n    tag_48:\n        /* \"#utility.yul\":1703:1733   */\n      swap1\n      pop\n        /* \"#utility.yul\":1742:1775   */\n      tag_50\n        /* \"#utility.yul\":1770:1774   */\n      dup3\n        /* \"#utility.yul\":1762:1768   */\n      dup3\n        /* \"#utility.yul\":1742:1775   */\n      tag_51\n      jump\t// in\n    tag_50:\n        /* \"#utility.yul\":1652:1781   */\n      swap2\n      swap1\n      pop\n      jump\t// out\n        /* \"#utility.yul\":1787:1862   */\n    tag_49:\n        /* \"#utility.yul\":1820:1826   */\n      0x00\n        /* \"#utility.yul\":1853:1855   */\n      0x40\n        /* \"#utility.yul\":1847:1856   */\n      mload\n        /* \"#utility.yul\":1837:1856   */\n      swap1\n      pop\n        /* \"#utility.yul\":1787:1862   */\n      swap1\n      jump\t// out\n        /* \"#utility.yul\":1868:2176   */\n    tag_20:\n        /* \"#utility.yul\":1930:1934   */\n      0x00\n        /* \"#utility.yul\":2020:2038   */\n      0xffffffffffffffff\n        /* \"#utility.yul\":2012:2018   */\n      dup3\n        /* \"#utility.yul\":2009:2039   */\n      gt\n        /* \"#utility.yul\":2006:2062   */\n      iszero\n      tag_54\n      jumpi\n        /* \"#utility.yul\":2042:2060   */\n      tag_55\n      tag_56\n      jump\t// in\n    tag_55:\n        /* \"#utility.yul\":2006:2062   */\n    tag_54:\n        /* \"#utility.yul\":2080:2109   */\n      tag_57\n        /* \"#utility.yul\":2102:2108   */\n      dup3\n        /* \"#utility.yul\":2080:2109   */\n      tag_58\n      jump\t// in\n    tag_57:\n        /* \"#utility.yul\":2072:2109   */\n      swap1\n      pop\n        /* \"#utility.yul\":2164:2168   */\n      0x20\n        /* \"#utility.yul\":2158:2162   */\n      dup2\n        /* \"#utility.yul\":2154:2169   */\n      add\n        /* \"#utility.yul\":2146:2169   */\n      swap1\n      pop\n        /* \"#utility.yul\":1868:2176   */\n      swap2\n      swap1\n      pop\n      jump\t// out\n        /* \"#utility.yul\":2182:2259   */\n    tag_44:\n        /* \"#utility.yul\":2219:2226   */\n      0x00\n        /* \"#utility.yul\":2248:2253   */\n      dup2\n        /* \"#utility.yul\":2237:2253   */\n      swap1\n      pop\n        /* \"#utility.yul\":2182:2259   */\n      swap2\n      swap1\n      pop\n      jump\t// out\n        /* \"#utility.yul\":2265:2419   */\n    tag_26:\n        /* \"#utility.yul\":2349:2355   */\n      dup3\n        /* \"#utility.yul\":2344:2347   */\n      dup2\n        /* \"#utility.yul\":2339:2342   */\n      dup4\n        /* \"#utility.yul\":2326:2356   */\n      calldatacopy\n        /* \"#utility.yul\":2411:2412   */\n      0x00\n        /* \"#utility.yul\":2402:2408   */\n      dup4\n        /* \"#utility.yul\":2397:2400   */\n      dup4\n        /* \"#utility.yul\":2393:2409   */\n      add\n        /* \"#utility.yul\":2386:2413   */\n      mstore\n        /* \"#utility.yul\":2265:2419   */\n      pop\n      pop\n      pop\n      jump\t// out\n        /* \"#utility.yul\":2425:2706   */\n    tag_51:\n        /* \"#utility.yul\":2508:2535   */\n      tag_62\n        /* \"#utility.yul\":2530:2534   */\n      dup3\n        /* \"#utility.yul\":2508:2535   */\n      tag_58\n      jump\t// in\n    tag_62:\n        /* \"#utility.yul\":2500:2506   */\n      dup2\n        /* \"#utility.yul\":2496:2536   */\n      add\n        /* \"#utility.yul\":2638:2644   */\n      dup2\n        /* \"#utility.yul\":2626:2636   */\n      dup2\n        /* \"#utility.yul\":2623:2645   */\n      lt\n        /* \"#utility.yul\":2602:2620   */\n      0xffffffffffffffff\n        /* \"#utility.yul\":2590:2600   */\n      dup3\n        /* \"#utility.yul\":2587:2621   */\n      gt\n        /* \"#utility.yul\":2584:2646   */\n      or\n        /* \"#utility.yul\":2581:2669   */\n      iszero\n      tag_63\n      jumpi\n        /* \"#utility.yul\":2649:2667   */\n      tag_64\n      tag_56\n      jump\t// in\n    tag_64:\n        /* \"#utility.yul\":2581:2669   */\n    tag_63:\n        /* \"#utility.yul\":2689:2699   */\n      dup1\n        /* \"#utility.yul\":2685:2687   */\n      0x40\n        /* \"#utility.yul\":2678:2700   */\n      mstore\n        /* \"#utility.yul\":2468:2706   */\n      pop\n        /* \"#utility.yul\":2425:2706   */\n      pop\n      pop\n      jump\t// out\n        /* \"#utility.yul\":2712:2892   */\n    tag_56:\n        /* \"#utility.yul\":2760:2837   */\n      0x4e487b7100000000000000000000000000000000000000000000000000000000\n        /* \"#utility.yul\":2757:2758   */\n      0x00\n        /* \"#utility.yul\":2750:2838   */\n      mstore\n        /* \"#utility.yul\":2857:2861   */\n      0x41\n        /* \"#utility.yul\":2854:2855   */\n      0x04\n        /* \"#utility.yul\":2847:2862   */\n      mstore\n        /* \"#utility.yul\":2881:2885   */\n      0x24\n        /* \"#utility.yul\":2878:2879   */\n      0x00\n        /* \"#utility.yul\":2871:2886   */\n      revert\n        /* \"#utility.yul\":2898:3015   */\n    tag_31:\n        /* \"#utility.yul\":3007:3008   */\n      0x00\n        /* \"#utility.yul\":3004:3005   */\n      dup1\n        /* \"#utility.yul\":2997:3009   */\n      revert\n        /* \"#utility.yul\":3021:3138   */\n    tag_24:\n        /* \"#utility.yul\":3130:3131   */\n      0x00\n        /* \"#utility.yul\":3127:3128   */\n      dup1\n        /* \"#utility.yul\":3120:3132   */\n      revert\n        /* \"#utility.yul\":3144:3261   */\n    tag_39:\n        /* \"#utility.yul\":3253:3254   */\n      0x00\n        /* \"#utility.yul\":3250:3251   */\n      dup1\n        /* \"#utility.yul\":3243:3255   */\n      revert\n        /* \"#utility.yul\":3267:3384   */\n    tag_36:\n        /* \"#utility.yul\":3376:3377   */\n      0x00\n        /* \"#utility.yul\":3373:3374   */\n      dup1\n        /* \"#utility.yul\":3366:3378   */\n      revert\n        /* \"#utility.yul\":3390:3492   */\n    tag_58:\n        /* \"#utility.yul\":3431:3437   */\n      0x00\n        /* \"#utility.yul\":3482:3484   */\n      0x1f\n        /* \"#utility.yul\":3478:3485   */\n      not\n        /* \"#utility.yul\":3473:3475   */\n      0x1f\n        /* \"#utility.yul\":3466:3471   */\n      dup4\n        /* \"#utility.yul\":3462:3476   */\n      add\n        /* \"#utility.yul\":3458:3486   */\n      and\n        /* \"#utility.yul\":3448:3486   */\n      swap1\n      pop\n        /* \"#utility.yul\":3390:3492   */\n      swap2\n      swap1\n      pop\n      jump\t// out\n\n    auxdata: 0xa2646970667358221220aa8befdcbd0953cce17a6fe9ef9570fd682d59638f626f4cafc4f51ecaaca74064736f6c63430008070033\n}\n",
				"bytecode": {
					"linkReferences": {},
					"object": "6080604052602660015534801561001557600080fd5b5061028f806100256000396000f3fe608060405234801561001057600080fd5b50600436106100365760003560e01c806352446f531461003b578063c47f002714610059575b600080fd5b610043610075565b604051610050919061014a565b60405180910390f35b610073600480360381019061006e91906100f2565b61007f565b005b6000600154905090565b50565b60006100956100908461018a565b610165565b9050828152602081018484840111156100b1576100b0610239565b5b6100bc8482856101c5565b509392505050565b600082601f8301126100d9576100d8610234565b5b81356100e9848260208601610082565b91505092915050565b60006020828403121561010857610107610243565b5b600082013567ffffffffffffffff8111156101265761012561023e565b5b610132848285016100c4565b91505092915050565b610144816101bb565b82525050565b600060208201905061015f600083018461013b565b92915050565b600061016f610180565b905061017b82826101d4565b919050565b6000604051905090565b600067ffffffffffffffff8211156101a5576101a4610205565b5b6101ae82610248565b9050602081019050919050565b6000819050919050565b82818337600083830152505050565b6101dd82610248565b810181811067ffffffffffffffff821117156101fc576101fb610205565b5b80604052505050565b7f4e487b7100000000000000000000000000000000000000000000000000000000600052604160045260246000fd5b600080fd5b600080fd5b600080fd5b600080fd5b6000601f19601f830116905091905056fea2646970667358221220aa8befdcbd0953cce17a6fe9ef9570fd682d59638f626f4cafc4f51ecaaca74064736f6c63430008070033",
					"opcodes": "PUSH1 0x80 PUSH1 0x40 MSTORE PUSH1 0x26 PUSH1 0x1 SSTORE CALLVALUE DUP1 ISZERO PUSH2 0x15 JUMPI PUSH1 0x0 DUP1 REVERT JUMPDEST POP PUSH2 0x28F DUP1 PUSH2 0x25 PUSH1 0x0 CODECOPY PUSH1 0x0 RETURN INVALID PUSH1 0x80 PUSH1 0x40 MSTORE CALLVALUE DUP1 ISZERO PUSH2 0x10 JUMPI PUSH1 0x0 DUP1 REVERT JUMPDEST POP PUSH1 0x4 CALLDATASIZE LT PUSH2 0x36 JUMPI PUSH1 0x0 CALLDATALOAD PUSH1 0xE0 SHR DUP1 PUSH4 0x52446F53 EQ PUSH2 0x3B JUMPI DUP1 PUSH4 0xC47F0027 EQ PUSH2 0x59 JUMPI JUMPDEST PUSH1 0x0 DUP1 REVERT JUMPDEST PUSH2 0x43 PUSH2 0x75 JUMP JUMPDEST PUSH1 0x40 MLOAD PUSH2 0x50 SWAP2 SWAP1 PUSH2 0x14A JUMP JUMPDEST PUSH1 0x40 MLOAD DUP1 SWAP2 SUB SWAP1 RETURN JUMPDEST PUSH2 0x73 PUSH1 0x4 DUP1 CALLDATASIZE SUB DUP2 ADD SWAP1 PUSH2 0x6E SWAP2 SWAP1 PUSH2 0xF2 JUMP JUMPDEST PUSH2 0x7F JUMP JUMPDEST STOP JUMPDEST PUSH1 0x0 PUSH1 0x1 SLOAD SWAP1 POP SWAP1 JUMP JUMPDEST POP JUMP JUMPDEST PUSH1 0x0 PUSH2 0x95 PUSH2 0x90 DUP5 PUSH2 0x18A JUMP JUMPDEST PUSH2 0x165 JUMP JUMPDEST SWAP1 POP DUP3 DUP2 MSTORE PUSH1 0x20 DUP2 ADD DUP5 DUP5 DUP5 ADD GT ISZERO PUSH2 0xB1 JUMPI PUSH2 0xB0 PUSH2 0x239 JUMP JUMPDEST JUMPDEST PUSH2 0xBC DUP5 DUP3 DUP6 PUSH2 0x1C5 JUMP JUMPDEST POP SWAP4 SWAP3 POP POP POP JUMP JUMPDEST PUSH1 0x0 DUP3 PUSH1 0x1F DUP4 ADD SLT PUSH2 0xD9 JUMPI PUSH2 0xD8 PUSH2 0x234 JUMP JUMPDEST JUMPDEST DUP2 CALLDATALOAD PUSH2 0xE9 DUP5 DUP3 PUSH1 0x20 DUP7 ADD PUSH2 0x82 JUMP JUMPDEST SWAP2 POP POP SWAP3 SWAP2 POP POP JUMP JUMPDEST PUSH1 0x0 PUSH1 0x20 DUP3 DUP5 SUB SLT ISZERO PUSH2 0x108 JUMPI PUSH2 0x107 PUSH2 0x243 JUMP JUMPDEST JUMPDEST PUSH1 0x0 DUP3 ADD CALLDATALOAD PUSH8 0xFFFFFFFFFFFFFFFF DUP2 GT ISZERO PUSH2 0x126 JUMPI PUSH2 0x125 PUSH2 0x23E JUMP JUMPDEST JUMPDEST PUSH2 0x132 DUP5 DUP3 DUP6 ADD PUSH2 0xC4 JUMP JUMPDEST SWAP2 POP POP SWAP3 SWAP2 POP POP JUMP JUMPDEST PUSH2 0x144 DUP2 PUSH2 0x1BB JUMP JUMPDEST DUP3 MSTORE POP POP JUMP JUMPDEST PUSH1 0x0 PUSH1 0x20 DUP3 ADD SWAP1 POP PUSH2 0x15F PUSH1 0x0 DUP4 ADD DUP5 PUSH2 0x13B JUMP JUMPDEST SWAP3 SWAP2 POP POP JUMP JUMPDEST PUSH1 0x0 PUSH2 0x16F PUSH2 0x180 JUMP JUMPDEST SWAP1 POP PUSH2 0x17B DUP3 DUP3 PUSH2 0x1D4 JUMP JUMPDEST SWAP2 SWAP1 POP JUMP JUMPDEST PUSH1 0x0 PUSH1 0x40 MLOAD SWAP1 POP SWAP1 JUMP JUMPDEST PUSH1 0x0 PUSH8 0xFFFFFFFFFFFFFFFF DUP3 GT ISZERO PUSH2 0x1A5 JUMPI PUSH2 0x1A4 PUSH2 0x205 JUMP JUMPDEST JUMPDEST PUSH2 0x1AE DUP3 PUSH2 0x248 JUMP JUMPDEST SWAP1 POP PUSH1 0x20 DUP2 ADD SWAP1 POP SWAP2 SWAP1 POP JUMP JUMPDEST PUSH1 0x0 DUP2 SWAP1 POP SWAP2 SWAP1 POP JUMP JUMPDEST DUP3 DUP2 DUP4 CALLDATACOPY PUSH1 0x0 DUP4 DUP4 ADD MSTORE POP POP POP JUMP JUMPDEST PUSH2 0x1DD DUP3 PUSH2 0x248 JUMP JUMPDEST DUP2 ADD DUP2 DUP2 LT PUSH8 0xFFFFFFFFFFFFFFFF DUP3 GT OR ISZERO PUSH2 0x1FC JUMPI PUSH2 0x1FB PUSH2 0x205 JUMP JUMPDEST JUMPDEST DUP1 PUSH1 0x40 MSTORE POP POP POP JUMP JUMPDEST PUSH32 0x4E487B7100000000000000000000000000000000000000000000000000000000 PUSH1 0x0 MSTORE PUSH1 0x41 PUSH1 0x4 MSTORE PUSH1 0x24 PUSH1 0x0 REVERT JUMPDEST PUSH1 0x0 DUP1 REVERT JUMPDEST PUSH1 0x0 DUP1 REVERT JUMPDEST PUSH1 0x0 DUP1 REVERT JUMPDEST PUSH1 0x0 DUP1 REVERT JUMPDEST PUSH1 0x0 PUSH1 0x1F NOT PUSH1 0x1F DUP4 ADD AND SWAP1 POP SWAP2 SWAP1 POP JUMP INVALID LOG2 PUSH5 0x6970667358 0x22 SLT KECCAK256 0xAA DUP12 0xEF 0xDC 0xBD MULMOD MSTORE8 0xCC 0xE1 PUSH27 0x6FE9EF9570FD682D59638F626F4CAFC4F51ECAACA74064736F6C63 NUMBER STOP ADDMOD SMOD STOP CALLER "
				},
				"gasEstimates": {
					"creation": {
						"codeDepositCost": "131000",
						"executionCost": "22283",
						"totalCost": "153283"
					},
					"external": {
						"returnAge()": "2415",
						"setName(string)": "infinite"
					}
				},
				"methodIdentifiers": {
					"returnAge()": "52446f53",
					"setName(string)": "c47f0027"
				}
			},
			"storageLayout": {
				"storage": [
					{
						"astId": 21,
						"contract": "AdvancedI/abstract-contracts.sol:Member",
						"label": "name",
						"offset": 0,
						"slot": "0",
						"type": "t_string_storage"
					},
					{
						"astId": 24,
						"contract": "AdvancedI/abstract-contracts.sol:Member",
						"label": "age",
						"offset": 0,
						"slot": "1",
						"type": "t_uint256"
					}
				],
				"types": {
					"t_string_storage": {
						"encoding": "bytes",
						"label": "string",
						"numberOfBytes": "32"
					},
					"t_uint256": {
						"encoding": "inplace",
						"label": "uint256",
						"numberOfBytes": "32"
					}
				}
			},
			"userdoc": {
				"kind": "user",
				"methods": {},
				"version": 1
			}
		}
	}
}