{
	"data": {
		"bytecode": {
			"linkReferences": {},
			"object": "6104e8610053600b82828239805160001a607314610046577f4e487b7100000000000000000000000000000000000000000000000000000000600052600060045260246000fd5b30600052607381538281f3fe73000000000000000000000000000000000000000030146080604052600436106100565760003560e01c8063165c4a161461005b5780633ef5e4451461008c578063771602f7146100bd578063f88e9fbf146100ee575b600080fd5b610075600480360381019061007091906101e3565b61011f565b604051610083929190610284565b60405180910390f35b6100a660048036038101906100a191906101e3565b61013a565b6040516100b4929190610284565b60405180910390f35b6100d760048036038101906100d291906101e3565b610155565b6040516100e5929190610284565b60405180910390f35b610108600480360381019061010391906101e3565b610170565b604051610116929190610284565b60405180910390f35b600080828461012e9190610345565b33915091509250929050565b6000808284610149919061039f565b33915091509250929050565b600080828461016491906102be565b33915091509250929050565b600080600083116101b6576040517f08c379a00000000000000000000000000000000000000000000000000000000081526004016101ad90610264565b60405180910390fd5b82846101c29190610314565b33915091509250929050565b6000813590506101dd8161049b565b92915050565b600080604083850312156101fa576101f961046d565b5b6000610208858286016101ce565b9250506020610219858286016101ce565b9150509250929050565b61022c816103d3565b82525050565b600061023f6010836102ad565b915061024a82610472565b602082019050919050565b61025e81610405565b82525050565b6000602082019050818103600083015261027d81610232565b9050919050565b60006040820190506102996000830185610255565b6102a66020830184610223565b9392505050565b600082825260208201905092915050565b60006102c982610405565b91506102d483610405565b9250827fffffffffffffffffffffffffffffffffffffffffffffffffffffffffffffffff038211156103095761030861040f565b5b828201905092915050565b600061031f82610405565b915061032a83610405565b92508261033a5761033961043e565b5b828204905092915050565b600061035082610405565b915061035b83610405565b9250817fffffffffffffffffffffffffffffffffffffffffffffffffffffffffffffffff04831182151516156103945761039361040f565b5b828202905092915050565b60006103aa82610405565b91506103b583610405565b9250828210156103c8576103c761040f565b5b828203905092915050565b60006103de826103e5565b9050919050565b600073ffffffffffffffffffffffffffffffffffffffff82169050919050565b6000819050919050565b7f4e487b7100000000000000000000000000000000000000000000000000000000600052601160045260246000fd5b7f4e487b7100000000000000000000000000000000000000000000000000000000600052601260045260246000fd5b600080fd5b7f622063616e6e6f74206265207a65726f00000000000000000000000000000000600082015250565b6104a481610405565b81146104af57600080fd5b5056fea2646970667358221220151c2b73201445e64fb81cea0ec78b16d28af0c626e0270bad3a70f62618b7e664736f6c63430008070033",
			"opcodes": "PUSH2 0x4E8 PUSH2 0x53 PUSH1 0xB DUP3 DUP3 DUP3 CODECOPY DUP1 MLOAD PUSH1 0x0 BYTE PUSH1 0x73 EQ PUSH2 0x46 JUMPI PUSH32 0x4E487B7100000000000000000000000000000000000000000000000000000000 PUSH1 0x0 MSTORE PUSH1 0x0 PUSH1 0x4 MSTORE PUSH1 0x24 PUSH1 0x0 REVERT JUMPDEST ADDRESS PUSH1 0x0 MSTORE PUSH1 0x73 DUP2 MSTORE8 DUP3 DUP2 RETURN INVALID PUSH20 0x0 ADDRESS EQ PUSH1 0x80 PUSH1 0x40 MSTORE PUSH1 0x4 CALLDATASIZE LT PUSH2 0x56 JUMPI PUSH1 0x0 CALLDATALOAD PUSH1 0xE0 SHR DUP1 PUSH4 0x165C4A16 EQ PUSH2 0x5B JUMPI DUP1 PUSH4 0x3EF5E445 EQ PUSH2 0x8C JUMPI DUP1 PUSH4 0x771602F7 EQ PUSH2 0xBD JUMPI DUP1 PUSH4 0xF88E9FBF EQ PUSH2 0xEE JUMPI JUMPDEST PUSH1 0x0 DUP1 REVERT JUMPDEST PUSH2 0x75 PUSH1 0x4 DUP1 CALLDATASIZE SUB DUP2 ADD SWAP1 PUSH2 0x70 SWAP2 SWAP1 PUSH2 0x1E3 JUMP JUMPDEST PUSH2 0x11F JUMP JUMPDEST PUSH1 0x40 MLOAD PUSH2 0x83 SWAP3 SWAP2 SWAP1 PUSH2 0x284 JUMP JUMPDEST PUSH1 0x40 MLOAD DUP1 SWAP2 SUB SWAP1 RETURN JUMPDEST PUSH2 0xA6 PUSH1 0x4 DUP1 CALLDATASIZE SUB DUP2 ADD SWAP1 PUSH2 0xA1 SWAP2 SWAP1 PUSH2 0x1E3 JUMP JUMPDEST PUSH2 0x13A JUMP JUMPDEST PUSH1 0x40 MLOAD PUSH2 0xB4 SWAP3 SWAP2 SWAP1 PUSH2 0x284 JUMP JUMPDEST PUSH1 0x40 MLOAD DUP1 SWAP2 SUB SWAP1 RETURN JUMPDEST PUSH2 0xD7 PUSH1 0x4 DUP1 CALLDATASIZE SUB DUP2 ADD SWAP1 PUSH2 0xD2 SWAP2 SWAP1 PUSH2 0x1E3 JUMP JUMPDEST PUSH2 0x155 JUMP JUMPDEST PUSH1 0x40 MLOAD PUSH2 0xE5 SWAP3 SWAP2 SWAP1 PUSH2 0x284 JUMP JUMPDEST PUSH1 0x40 MLOAD DUP1 SWAP2 SUB SWAP1 RETURN JUMPDEST PUSH2 0x108 PUSH1 0x4 DUP1 CALLDATASIZE SUB DUP2 ADD SWAP1 PUSH2 0x103 SWAP2 SWAP1 PUSH2 0x1E3 JUMP JUMPDEST PUSH2 0x170 JUMP JUMPDEST PUSH1 0x40 MLOAD PUSH2 0x116 SWAP3 SWAP2 SWAP1 PUSH2 0x284 JUMP JUMPDEST PUSH1 0x40 MLOAD DUP1 SWAP2 SUB SWAP1 RETURN JUMPDEST PUSH1 0x0 DUP1 DUP3 DUP5 PUSH2 0x12E SWAP2 SWAP1 PUSH2 0x345 JUMP JUMPDEST CALLER SWAP2 POP SWAP2 POP SWAP3 POP SWAP3 SWAP1 POP JUMP JUMPDEST PUSH1 0x0 DUP1 DUP3 DUP5 PUSH2 0x149 SWAP2 SWAP1 PUSH2 0x39F JUMP JUMPDEST CALLER SWAP2 POP SWAP2 POP SWAP3 POP SWAP3 SWAP1 POP JUMP JUMPDEST PUSH1 0x0 DUP1 DUP3 DUP5 PUSH2 0x164 SWAP2 SWAP1 PUSH2 0x2BE JUMP JUMPDEST CALLER SWAP2 POP SWAP2 POP SWAP3 POP SWAP3 SWAP1 POP JUMP JUMPDEST PUSH1 0x0 DUP1 PUSH1 0x0 DUP4 GT PUSH2 0x1B6 JUMPI PUSH1 0x40 MLOAD PUSH32 0x8C379A000000000000000000000000000000000000000000000000000000000 DUP2 MSTORE PUSH1 0x4 ADD PUSH2 0x1AD SWAP1 PUSH2 0x264 JUMP JUMPDEST PUSH1 0x40 MLOAD DUP1 SWAP2 SUB SWAP1 REVERT JUMPDEST DUP3 DUP5 PUSH2 0x1C2 SWAP2 SWAP1 PUSH2 0x314 JUMP JUMPDEST CALLER SWAP2 POP SWAP2 POP SWAP3 POP SWAP3 SWAP1 POP JUMP JUMPDEST PUSH1 0x0 DUP2 CALLDATALOAD SWAP1 POP PUSH2 0x1DD DUP2 PUSH2 0x49B JUMP JUMPDEST SWAP3 SWAP2 POP POP JUMP JUMPDEST PUSH1 0x0 DUP1 PUSH1 0x40 DUP4 DUP6 SUB SLT ISZERO PUSH2 0x1FA JUMPI PUSH2 0x1F9 PUSH2 0x46D JUMP JUMPDEST JUMPDEST PUSH1 0x0 PUSH2 0x208 DUP6 DUP3 DUP7 ADD PUSH2 0x1CE JUMP JUMPDEST SWAP3 POP POP PUSH1 0x20 PUSH2 0x219 DUP6 DUP3 DUP7 ADD PUSH2 0x1CE JUMP JUMPDEST SWAP2 POP POP SWAP3 POP SWAP3 SWAP1 POP JUMP JUMPDEST PUSH2 0x22C DUP2 PUSH2 0x3D3 JUMP JUMPDEST DUP3 MSTORE POP POP JUMP JUMPDEST PUSH1 0x0 PUSH2 0x23F PUSH1 0x10 DUP4 PUSH2 0x2AD JUMP JUMPDEST SWAP2 POP PUSH2 0x24A DUP3 PUSH2 0x472 JUMP JUMPDEST PUSH1 0x20 DUP3 ADD SWAP1 POP SWAP2 SWAP1 POP JUMP JUMPDEST PUSH2 0x25E DUP2 PUSH2 0x405 JUMP JUMPDEST DUP3 MSTORE POP POP JUMP JUMPDEST PUSH1 0x0 PUSH1 0x20 DUP3 ADD SWAP1 POP DUP2 DUP2 SUB PUSH1 0x0 DUP4 ADD MSTORE PUSH2 0x27D DUP2 PUSH2 0x232 JUMP JUMPDEST SWAP1 POP SWAP2 SWAP1 POP JUMP JUMPDEST PUSH1 0x0 PUSH1 0x40 DUP3 ADD SWAP1 POP PUSH2 0x299 PUSH1 0x0 DUP4 ADD DUP6 PUSH2 0x255 JUMP JUMPDEST PUSH2 0x2A6 PUSH1 0x20 DUP4 ADD DUP5 PUSH2 0x223 JUMP JUMPDEST SWAP4 SWAP3 POP POP POP JUMP JUMPDEST PUSH1 0x0 DUP3 DUP3 MSTORE PUSH1 0x20 DUP3 ADD SWAP1 POP SWAP3 SWAP2 POP POP JUMP JUMPDEST PUSH1 0x0 PUSH2 0x2C9 DUP3 PUSH2 0x405 JUMP JUMPDEST SWAP2 POP PUSH2 0x2D4 DUP4 PUSH2 0x405 JUMP JUMPDEST SWAP3 POP DUP3 PUSH32 0xFFFFFFFFFFFFFFFFFFFFFFFFFFFFFFFFFFFFFFFFFFFFFFFFFFFFFFFFFFFFFFFF SUB DUP3 GT ISZERO PUSH2 0x309 JUMPI PUSH2 0x308 PUSH2 0x40F JUMP JUMPDEST JUMPDEST DUP3 DUP3 ADD SWAP1 POP SWAP3 SWAP2 POP POP JUMP JUMPDEST PUSH1 0x0 PUSH2 0x31F DUP3 PUSH2 0x405 JUMP JUMPDEST SWAP2 POP PUSH2 0x32A DUP4 PUSH2 0x405 JUMP JUMPDEST SWAP3 POP DUP3 PUSH2 0x33A JUMPI PUSH2 0x339 PUSH2 0x43E JUMP JUMPDEST JUMPDEST DUP3 DUP3 DIV SWAP1 POP SWAP3 SWAP2 POP POP JUMP JUMPDEST PUSH1 0x0 PUSH2 0x350 DUP3 PUSH2 0x405 JUMP JUMPDEST SWAP2 POP PUSH2 0x35B DUP4 PUSH2 0x405 JUMP JUMPDEST SWAP3 POP DUP2 PUSH32 0xFFFFFFFFFFFFFFFFFFFFFFFFFFFFFFFFFFFFFFFFFFFFFFFFFFFFFFFFFFFFFFFF DIV DUP4 GT DUP3 ISZERO ISZERO AND ISZERO PUSH2 0x394 JUMPI PUSH2 0x393 PUSH2 0x40F JUMP JUMPDEST JUMPDEST DUP3 DUP3 MUL SWAP1 POP SWAP3 SWAP2 POP POP JUMP JUMPDEST PUSH1 0x0 PUSH2 0x3AA DUP3 PUSH2 0x405 JUMP JUMPDEST SWAP2 POP PUSH2 0x3B5 DUP4 PUSH2 0x405 JUMP JUMPDEST SWAP3 POP DUP3 DUP3 LT ISZERO PUSH2 0x3C8 JUMPI PUSH2 0x3C7 PUSH2 0x40F JUMP JUMPDEST JUMPDEST DUP3 DUP3 SUB SWAP1 POP SWAP3 SWAP2 POP POP JUMP JUMPDEST PUSH1 0x0 PUSH2 0x3DE DUP3 PUSH2 0x3E5 JUMP JUMPDEST SWAP1 POP SWAP2 SWAP1 POP JUMP JUMPDEST PUSH1 0x0 PUSH20 0xFFFFFFFFFFFFFFFFFFFFFFFFFFFFFFFFFFFFFFFF DUP3 AND SWAP1 POP SWAP2 SWAP1 POP JUMP JUMPDEST PUSH1 0x0 DUP2 SWAP1 POP SWAP2 SWAP1 POP JUMP JUMPDEST PUSH32 0x4E487B7100000000000000000000000000000000000000000000000000000000 PUSH1 0x0 MSTORE PUSH1 0x11 PUSH1 0x4 MSTORE PUSH1 0x24 PUSH1 0x0 REVERT JUMPDEST PUSH32 0x4E487B7100000000000000000000000000000000000000000000000000000000 PUSH1 0x0 MSTORE PUSH1 0x12 PUSH1 0x4 MSTORE PUSH1 0x24 PUSH1 0x0 REVERT JUMPDEST PUSH1 0x0 DUP1 REVERT JUMPDEST PUSH32 0x622063616E6E6F74206265207A65726F00000000000000000000000000000000 PUSH1 0x0 DUP3 ADD MSTORE POP JUMP JUMPDEST PUSH2 0x4A4 DUP2 PUSH2 0x405 JUMP JUMPDEST DUP2 EQ PUSH2 0x4AF JUMPI PUSH1 0x0 DUP1 REVERT JUMPDEST POP JUMP INVALID LOG2 PUSH5 0x6970667358 0x22 SLT KECCAK256 ISZERO SHR 0x2B PUSH20 0x201445E64FB81CEA0EC78B16D28AF0C626E0270B 0xAD GASPRICE PUSH17 0xF62618B7E664736F6C6343000807003300 "
		},
		"gasEstimates": {
			"creation": {
				"codeDepositCost": "251200",
				"executionCost": "319",
				"totalCost": "251519"
			},
			"external": {
				"add(uint256,uint256)": "infinite",
				"divide(uint256,uint256)": "infinite",
				"multiply(uint256,uint256)": "infinite",
				"subtract(uint256,uint256)": "infinite"
			}
		},
		"methodIdentifiers": {
			"add(uint256,uint256)": "771602f7",
			"divide(uint256,uint256)": "f88e9fbf",
			"multiply(uint256,uint256)": "165c4a16",
			"subtract(uint256,uint256)": "3ef5e445"
		}
	},
	"abi": [
		{
			"inputs": [
				{
					"internalType": "uint256",
					"name": "a",
					"type": "uint256"
				},
				{
					"internalType": "uint256",
					"name": "b",
					"type": "uint256"
				}
			],
			"name": "add",
			"outputs": [
				{
					"internalType": "uint256",
					"name": "",
					"type": "uint256"
				},
				{
					"internalType": "address",
					"name": "",
					"type": "address"
				}
			],
			"stateMutability": "view",
			"type": "function"
		},
		{
			"inputs": [
				{
					"internalType": "uint256",
					"name": "a",
					"type": "uint256"
				},
				{
					"internalType": "uint256",
					"name": "b",
					"type": "uint256"
				}
			],
			"name": "divide",
			"outputs": [
				{
					"internalType": "uint256",
					"name": "",
					"type": "uint256"
				},
				{
					"internalType": "address",
					"name": "",
					"type": "address"
				}
			],
			"stateMutability": "view",
			"type": "function"
		},
		{
			"inputs": [
				{
					"internalType": "uint256",
					"name": "a",
					"type": "uint256"
				},
				{
					"internalType": "uint256",
					"name": "b",
					"type": "uint256"
				}
			],
			"name": "multiply",
			"outputs": [
				{
					"internalType": "uint256",
					"name": "",
					"type": "uint256"
				},
				{
					"internalType": "address",
					"name": "",
					"type": "address"
				}
			],
			"stateMutability": "view",
			"type": "function"
		},
		{
			"inputs": [
				{
					"internalType": "uint256",
					"name": "a",
					"type": "uint256"
				},
				{
					"internalType": "uint256",
					"name": "b",
					"type": "uint256"
				}
			],
			"name": "subtract",
			"outputs": [
				{
					"internalType": "uint256",
					"name": "",
					"type": "uint256"
				},
				{
					"internalType": "address",
					"name": "",
					"type": "address"
				}
			],
			"stateMutability": "view",
			"type": "function"
		}
	]
}