{
	"data": {
		"bytecode": {
			"linkReferences": {},
			"object": "608060405234801561001057600080fd5b506101ef806100206000396000f3fe608060405234801561001057600080fd5b506004361061004c5760003560e01c806367cb61b614610051578063694ebe4f1461006f57806391ff2c8614610079578063db39b91514610083575b600080fd5b61005961008d565b6040516100669190610136565b60405180910390f35b6100776100a3565b005b6100816100cf565b005b61008b6100fb565b005b60008060009054906101000a900460ff16905090565b60026000806101000a81548160ff021916908360028111156100c8576100c7610176565b5b0217905550565b60008060006101000a81548160ff021916908360028111156100f4576100f3610176565b5b0217905550565b60016000806101000a81548160ff021916908360028111156101205761011f610176565b5b0217905550565b61013081610164565b82525050565b600060208201905061014b6000830184610127565b92915050565b600081905061015f826101a5565b919050565b600061016f82610151565b9050919050565b7f4e487b7100000000000000000000000000000000000000000000000000000000600052602160045260246000fd5b600381106101b6576101b5610176565b5b5056fea26469706673582212208c95a5501a1989e3c434192243e8a4aa5e484f6d6aa99518c967eb6c1146a0e864736f6c63430008070033",
			"opcodes": "PUSH1 0x80 PUSH1 0x40 MSTORE CALLVALUE DUP1 ISZERO PUSH2 0x10 JUMPI PUSH1 0x0 DUP1 REVERT JUMPDEST POP PUSH2 0x1EF DUP1 PUSH2 0x20 PUSH1 0x0 CODECOPY PUSH1 0x0 RETURN INVALID PUSH1 0x80 PUSH1 0x40 MSTORE CALLVALUE DUP1 ISZERO PUSH2 0x10 JUMPI PUSH1 0x0 DUP1 REVERT JUMPDEST POP PUSH1 0x4 CALLDATASIZE LT PUSH2 0x4C JUMPI PUSH1 0x0 CALLDATALOAD PUSH1 0xE0 SHR DUP1 PUSH4 0x67CB61B6 EQ PUSH2 0x51 JUMPI DUP1 PUSH4 0x694EBE4F EQ PUSH2 0x6F JUMPI DUP1 PUSH4 0x91FF2C86 EQ PUSH2 0x79 JUMPI DUP1 PUSH4 0xDB39B915 EQ PUSH2 0x83 JUMPI JUMPDEST PUSH1 0x0 DUP1 REVERT JUMPDEST PUSH2 0x59 PUSH2 0x8D JUMP JUMPDEST PUSH1 0x40 MLOAD PUSH2 0x66 SWAP2 SWAP1 PUSH2 0x136 JUMP JUMPDEST PUSH1 0x40 MLOAD DUP1 SWAP2 SUB SWAP1 RETURN JUMPDEST PUSH2 0x77 PUSH2 0xA3 JUMP JUMPDEST STOP JUMPDEST PUSH2 0x81 PUSH2 0xCF JUMP JUMPDEST STOP JUMPDEST PUSH2 0x8B PUSH2 0xFB JUMP JUMPDEST STOP JUMPDEST PUSH1 0x0 DUP1 PUSH1 0x0 SWAP1 SLOAD SWAP1 PUSH2 0x100 EXP SWAP1 DIV PUSH1 0xFF AND SWAP1 POP SWAP1 JUMP JUMPDEST PUSH1 0x2 PUSH1 0x0 DUP1 PUSH2 0x100 EXP DUP2 SLOAD DUP2 PUSH1 0xFF MUL NOT AND SWAP1 DUP4 PUSH1 0x2 DUP2 GT ISZERO PUSH2 0xC8 JUMPI PUSH2 0xC7 PUSH2 0x176 JUMP JUMPDEST JUMPDEST MUL OR SWAP1 SSTORE POP JUMP JUMPDEST PUSH1 0x0 DUP1 PUSH1 0x0 PUSH2 0x100 EXP DUP2 SLOAD DUP2 PUSH1 0xFF MUL NOT AND SWAP1 DUP4 PUSH1 0x2 DUP2 GT ISZERO PUSH2 0xF4 JUMPI PUSH2 0xF3 PUSH2 0x176 JUMP JUMPDEST JUMPDEST MUL OR SWAP1 SSTORE POP JUMP JUMPDEST PUSH1 0x1 PUSH1 0x0 DUP1 PUSH2 0x100 EXP DUP2 SLOAD DUP2 PUSH1 0xFF MUL NOT AND SWAP1 DUP4 PUSH1 0x2 DUP2 GT ISZERO PUSH2 0x120 JUMPI PUSH2 0x11F PUSH2 0x176 JUMP JUMPDEST JUMPDEST MUL OR SWAP1 SSTORE POP JUMP JUMPDEST PUSH2 0x130 DUP2 PUSH2 0x164 JUMP JUMPDEST DUP3 MSTORE POP POP JUMP JUMPDEST PUSH1 0x0 PUSH1 0x20 DUP3 ADD SWAP1 POP PUSH2 0x14B PUSH1 0x0 DUP4 ADD DUP5 PUSH2 0x127 JUMP JUMPDEST SWAP3 SWAP2 POP POP JUMP JUMPDEST PUSH1 0x0 DUP2 SWAP1 POP PUSH2 0x15F DUP3 PUSH2 0x1A5 JUMP JUMPDEST SWAP2 SWAP1 POP JUMP JUMPDEST PUSH1 0x0 PUSH2 0x16F DUP3 PUSH2 0x151 JUMP JUMPDEST SWAP1 POP SWAP2 SWAP1 POP JUMP JUMPDEST PUSH32 0x4E487B7100000000000000000000000000000000000000000000000000000000 PUSH1 0x0 MSTORE PUSH1 0x21 PUSH1 0x4 MSTORE PUSH1 0x24 PUSH1 0x0 REVERT JUMPDEST PUSH1 0x3 DUP2 LT PUSH2 0x1B6 JUMPI PUSH2 0x1B5 PUSH2 0x176 JUMP JUMPDEST JUMPDEST POP JUMP INVALID LOG2 PUSH5 0x6970667358 0x22 SLT KECCAK256 DUP13 SWAP6 0xA5 POP BYTE NOT DUP10 0xE3 0xC4 CALLVALUE NOT 0x22 NUMBER 0xE8 LOG4 0xAA 0x5E BASEFEE 0x4F PUSH14 0x6AA99518C967EB6C1146A0E86473 PUSH16 0x6C634300080700330000000000000000 "
		},
		"gasEstimates": {
			"creation": {
				"codeDepositCost": "99000",
				"executionCost": "147",
				"totalCost": "99147"
			},
			"external": {
				"getChoice()": "2546",
				"setLarge()": "24431",
				"setMedium()": "24475",
				"setSmall()": "24453"
			}
		},
		"methodIdentifiers": {
			"getChoice()": "67cb61b6",
			"setLarge()": "694ebe4f",
			"setMedium()": "db39b915",
			"setSmall()": "91ff2c86"
		}
	},
	"abi": [
		{
			"inputs": [],
			"name": "getChoice",
			"outputs": [
				{
					"internalType": "enum enumsLearn.frenchFriesSize",
					"name": "",
					"type": "uint8"
				}
			],
			"stateMutability": "view",
			"type": "function"
		},
		{
			"inputs": [],
			"name": "setLarge",
			"outputs": [],
			"stateMutability": "nonpayable",
			"type": "function"
		},
		{
			"inputs": [],
			"name": "setMedium",
			"outputs": [],
			"stateMutability": "nonpayable",
			"type": "function"
		},
		{
			"inputs": [],
			"name": "setSmall",
			"outputs": [],
			"stateMutability": "nonpayable",
			"type": "function"
		}
	]
}