{
	"data": {
		"bytecode": {
			"linkReferences": {},
			"object": "608060405234801561001057600080fd5b50610199806100206000396000f3fe608060405234801561001057600080fd5b50600436106100415760003560e01c80634691c58f146100465780634fee737f14610050578063dadf8fee1461006e575b600080fd5b61004e610078565b005b6100586100d7565b604051610065919061010d565b60405180910390f35b6100766100eb565b005b6000600a67ffffffffffffffff81111561009557610094610134565b5b6040519080825280601f01601f1916602001820160405280156100c75781602001600182028036833780820191505090505b5090506000602082015190505050565b6000806000803b9150600082119250505090565b6000808082016040516004815250505050565b61010781610128565b82525050565b600060208201905061012260008301846100fe565b92915050565b60008115159050919050565b7f4e487b7100000000000000000000000000000000000000000000000000000000600052604160045260246000fdfea2646970667358221220847e929117d9694f90d538dcefc78aca4d4f9bda5262895423e311a1f432b2d664736f6c63430008070033",
			"opcodes": "PUSH1 0x80 PUSH1 0x40 MSTORE CALLVALUE DUP1 ISZERO PUSH2 0x10 JUMPI PUSH1 0x0 DUP1 REVERT JUMPDEST POP PUSH2 0x199 DUP1 PUSH2 0x20 PUSH1 0x0 CODECOPY PUSH1 0x0 RETURN INVALID PUSH1 0x80 PUSH1 0x40 MSTORE CALLVALUE DUP1 ISZERO PUSH2 0x10 JUMPI PUSH1 0x0 DUP1 REVERT JUMPDEST POP PUSH1 0x4 CALLDATASIZE LT PUSH2 0x41 JUMPI PUSH1 0x0 CALLDATALOAD PUSH1 0xE0 SHR DUP1 PUSH4 0x4691C58F EQ PUSH2 0x46 JUMPI DUP1 PUSH4 0x4FEE737F EQ PUSH2 0x50 JUMPI DUP1 PUSH4 0xDADF8FEE EQ PUSH2 0x6E JUMPI JUMPDEST PUSH1 0x0 DUP1 REVERT JUMPDEST PUSH2 0x4E PUSH2 0x78 JUMP JUMPDEST STOP JUMPDEST PUSH2 0x58 PUSH2 0xD7 JUMP JUMPDEST PUSH1 0x40 MLOAD PUSH2 0x65 SWAP2 SWAP1 PUSH2 0x10D JUMP JUMPDEST PUSH1 0x40 MLOAD DUP1 SWAP2 SUB SWAP1 RETURN JUMPDEST PUSH2 0x76 PUSH2 0xEB JUMP JUMPDEST STOP JUMPDEST PUSH1 0x0 PUSH1 0xA PUSH8 0xFFFFFFFFFFFFFFFF DUP2 GT ISZERO PUSH2 0x95 JUMPI PUSH2 0x94 PUSH2 0x134 JUMP JUMPDEST JUMPDEST PUSH1 0x40 MLOAD SWAP1 DUP1 DUP3 MSTORE DUP1 PUSH1 0x1F ADD PUSH1 0x1F NOT AND PUSH1 0x20 ADD DUP3 ADD PUSH1 0x40 MSTORE DUP1 ISZERO PUSH2 0xC7 JUMPI DUP2 PUSH1 0x20 ADD PUSH1 0x1 DUP3 MUL DUP1 CALLDATASIZE DUP4 CALLDATACOPY DUP1 DUP3 ADD SWAP2 POP POP SWAP1 POP JUMPDEST POP SWAP1 POP PUSH1 0x0 PUSH1 0x20 DUP3 ADD MLOAD SWAP1 POP POP POP JUMP JUMPDEST PUSH1 0x0 DUP1 PUSH1 0x0 DUP1 EXTCODESIZE SWAP2 POP PUSH1 0x0 DUP3 GT SWAP3 POP POP POP SWAP1 JUMP JUMPDEST PUSH1 0x0 DUP1 DUP1 DUP3 ADD PUSH1 0x40 MLOAD PUSH1 0x4 DUP2 MSTORE POP POP POP POP JUMP JUMPDEST PUSH2 0x107 DUP2 PUSH2 0x128 JUMP JUMPDEST DUP3 MSTORE POP POP JUMP JUMPDEST PUSH1 0x0 PUSH1 0x20 DUP3 ADD SWAP1 POP PUSH2 0x122 PUSH1 0x0 DUP4 ADD DUP5 PUSH2 0xFE JUMP JUMPDEST SWAP3 SWAP2 POP POP JUMP JUMPDEST PUSH1 0x0 DUP2 ISZERO ISZERO SWAP1 POP SWAP2 SWAP1 POP JUMP JUMPDEST PUSH32 0x4E487B7100000000000000000000000000000000000000000000000000000000 PUSH1 0x0 MSTORE PUSH1 0x41 PUSH1 0x4 MSTORE PUSH1 0x24 PUSH1 0x0 REVERT INVALID LOG2 PUSH5 0x6970667358 0x22 SLT KECCAK256 DUP5 PUSH31 0x929117D9694F90D538DCEFC78ACA4D4F9BDA5262895423E311A1F432B2D664 PUSH20 0x6F6C634300080700330000000000000000000000 "
		},
		"gasEstimates": {
			"creation": {
				"codeDepositCost": "81800",
				"executionCost": "129",
				"totalCost": "81929"
			},
			"external": {
				"addToEVM()": "210",
				"addToEVM2()": "2967",
				"addToEVM3()": "323"
			}
		},
		"methodIdentifiers": {
			"addToEVM()": "dadf8fee",
			"addToEVM2()": "4fee737f",
			"addToEVM3()": "4691c58f"
		}
	},
	"abi": [
		{
			"inputs": [],
			"name": "addToEVM",
			"outputs": [],
			"stateMutability": "pure",
			"type": "function"
		},
		{
			"inputs": [],
			"name": "addToEVM2",
			"outputs": [
				{
					"internalType": "bool",
					"name": "success",
					"type": "bool"
				}
			],
			"stateMutability": "view",
			"type": "function"
		},
		{
			"inputs": [],
			"name": "addToEVM3",
			"outputs": [],
			"stateMutability": "pure",
			"type": "function"
		}
	]
}